:020000040800F2
:10000000000002207D360008693500086B350008C5
:100010006D3500086F3500087135000800000000DC
:100020000000000000000000000000007335000820
:1000300075350008000000007735000879350008A4
:10004000CD360008CD360008CD360008CD36000884
:10005000CD360008CD360008CD360008CD36000874
:10006000CD360008CD360008CD360008CD36000864
:10007000CD360008CD360008CD360008CD36000854
:10008000CD360008CD360008CD360008000000004F
:10009000000000000000000000000000CD36000855
:1000A000CD360008CD360008CD360008CD36000824
:1000B0007D350008CD36000889350008CD360008AA
:1000C000CD360008CD360008CD360008CD36000804
:1000D000CD360008CD360008CD36000800000000FF
:1000E000CD360008CD360008CD36000800000000EF
:1000F000000000000000000000000000CD360008F5
:1001000000000000CD360008CD360008CD360008CE
:1001100000000000000000000000000000000000DF
:10012000CD360008CD360008CD360008CD360008A3
:10013000CD360008000000000000000000000000B4
:10014000000000000000000000000000CD360008A4
:10015000CD360008CD360008CD360008CD36000873
:10016000CD360008CD360008000000000000000079
:10017000000000000000000000000000000000007F
:1001800000000000CD360008000000000000000064
:08019000CD360008CD36000851
:1001A00010B5054C237833B9044B13B10448AFF3B1
:1001B00000800123237010BD2002002000000000F9
:1001C0003063000808B5034B1BB103490348AFF384
:1001D000008008BD000000002402002030630008F9
:1001E000034613F8012B002AFBD1181A0138704777
:1001F00001F0FF01102A2BDB10F0070F08D010F8D8
:10020000013B013A8B422DD010F0070F42B3F6D1DB
:10021000F0B441EA012141EA014122F007047FF0F4
:1002200000070023F0E80256083C85EA010586EA4B
:10023000010685FA47F5A3FA87F586FA47F6A5FA87
:1002400087F68EB9EED1F0BC01F0FF0102F0070293
:1002500032B110F8013B013A83EA010313B1F8D13E
:100260000020704701387047002D06BF354603381F
:10027000073815F0010F07D1013015F4807F02BF58
:10028000013015F4C03F0130F0BC0138704700BFA9
:1002900081F0004102E000BF83F0004330B54FEA37
:1002A00041044FEA430594EA050F08BF90EA020FA4
:1002B0001FBF54EA000C55EA020C7FEA645C7FEA37
:1002C000655C00F0E2804FEA5454D4EB5555B8BF5A
:1002D0006D420CDD2C4480EA020281EA030382EACB
:1002E000000083EA010180EA020281EA0303362D5D
:1002F00088BF30BD11F0004F4FEA01314FF4801C30
:100300004CEA113102D0404261EB410113F0004F41
:100310004FEA03334CEA133302D0524263EB4303F8
:1003200094EA050F00F0A780A4F10104D5F1200E96
:100330000DDB02FA0EFC22FA05F2801841F10001F1
:1003400003FA0EF2801843FA05F359410EE0A5F1C5
:1003500020050EF1200E012A03FA0EFC28BF4CF0F6
:10036000020C43FA05F3C01851EBE37101F00045AC
:1003700007D54FF0000EDCF1000C7EEB00006EEBB9
:100380000101B1F5801F1BD3B1F5001F0CD3490843
:100390005FEA30004FEA3C0C04F101044FEA44529A
:1003A00012F5800F80F09A80BCF1004F08BF5FEA21
:1003B000500C50F1000041EB045141EA050130BD01
:1003C0005FEA4C0C404141EB010111F4801FA4F1A4
:1003D0000104E9D191F0000F04BF01460020B1FAF9
:1003E00081F308BF2033A3F10B03B3F120020CDA31
:1003F0000C3208DD02F1140CC2F10C0201FA0CF00F
:1004000021FA02F10CE002F11402D8BFC2F1200C73
:1004100001FA02F120FA0CFCDCBF41EA0C01904029
:10042000E41AA2BF01EB0451294330BD6FEA040472
:100430001F3C1CDA0C340EDC04F11404C4F120025D
:1004400020FA04F001FA02F340EA030021FA04F36F
:1004500045EA030130BDC4F10C04C4F1200220FAC6
:1004600002F001FA04F340EA0300294630BD21FA04
:1004700004F0294630BD94F0000F83F4801306BFCA
:1004800081F480110134013D4EE77FEA645C18BFBE
:100490007FEA655C29D094EA050F08BF90EA020F55
:1004A00005D054EA000C04BF1946104630BD91EA4D
:1004B000030F1EBF0021002030BD5FEA545C05D150
:1004C0004000494128BF41F0004130BD14F580048F
:1004D0003CBF01F5801130BD01F0004545F0FE4103
:1004E00041F470014FF0000030BD7FEA645C1ABF38
:1004F000194610467FEA655C1CBF0B46024650EA6F
:10050000013406BF52EA033591EA030F41F400219A
:1005100030BD00BF90F0000F04BF0021704730B520
:100520004FF4806404F132044FF000054FF00001F5
:1005300050E700BF90F0000F04BF0021704730B5B6
:100540004FF4806404F1320410F0004548BF40428B
:100550004FF000013EE700BF42004FEAE2014FEAE0
:1005600031014FEA02701FBF12F07F4393F07F4FBB
:1005700081F06051704792F0000F14BF93F07F4FED
:10058000704730B54FF4607401F0004521F0004130
:1005900020E700BF50EA010208BF704730B54FF0B6
:1005A00000050AE050EA010208BF704730B511F0BB
:1005B000004502D5404261EB41014FF4806404F1F3
:1005C00032045FEA915C3FF4DCAE4FF003025FEA75
:1005D000DC0C18BF03325FEADC0C18BF033202EBFD
:1005E000DC02C2F1200300FA03FC20FA02F001FA57
:1005F00003FE40EA0E0021FA02F11444C1E600BFF6
:1006000070B54FF0FF0C4CF4E06C1CEA11541DBFA8
:100610001CEA135594EA0C0F95EA0C0F00F0DEF873
:100620002C4481EA030621EA4C5123EA4C5350EA58
:10063000013518BF52EA033541F4801143F48013A9
:1006400038D0A0FB02CE4FF00005E1FB02E506F03A
:100650000042E0FB03E54FF00006E1FB03569CF08F
:10066000000F18BF4EF0010EA4F1FF04B6F5007F95
:1006700064F5407404D25FEA4E0E6D4146EB060607
:1006800042EAC62141EA55514FEAC52040EA5E5090
:100690004FEACE2EB4F1FD0C88BFBCF5E06F1ED83A
:1006A000BEF1004F08BF5FEA500E50F1000041EB71
:1006B000045170BD06F0004646EA010140EA02001E
:1006C00081EA0301B4EB5C04C2BFD4EB0C0541EA40
:1006D000045170BD41F480114FF0000E013C00F355
:1006E000AB8014F1360FDEBF002001F0004170BD79
:1006F000C4F10004203C35DA0C341BDC04F1140492
:10070000C4F1200500FA05F320FA04F001FA05F21D
:1007100040EA020001F0004221F0004110EBD370EA
:1007200021FA04F642EB06015EEA430E08BF20EA16
:10073000D37070BDC4F10C04C4F1200500FA04F3B9
:1007400020FA05F001FA04F240EA020001F000414B
:1007500010EBD37041F100015EEA430E08BF20EABE
:10076000D37070BDC4F1200500FA05F24EEA020E06
:1007700020FA04F301FA05F243EA020321FA04F035
:1007800001F0004121FA04F220EA020000EBD370EC
:100790005EEA430E08BF20EAD37070BD94F0000FEC
:1007A0000FD101F00046400041EB010111F4801F20
:1007B00008BF013CF7D041EA060195F0000F18BFD1
:1007C000704703F00046520043EB030313F4801F0D
:1007D00008BF013DF7D043EA0603704794EA0C0FC7
:1007E0000CEA135518BF95EA0C0F0CD050EA4106DD
:1007F00018BF52EA4306D1D181EA030101F000415A
:100800004FF0000070BD50EA410606BF1046194681
:1008100052EA430619D094EA0C0F02D150EA01368D
:1008200013D195EA0C0F05D152EA03361CBF1046CE
:1008300019460AD181EA030101F0004141F0FE416D
:1008400041F470014FF0000070BD41F0FE4141F4F1
:10085000780170BD70B54FF0FF0C4CF4E06C1CEAF1
:1008600011541DBF1CEA135594EA0C0F95EA0C0FA6
:1008700000F0A7F8A4EB050481EA030E52EA033561
:100880004FEA013100F088804FEA03334FF0805582
:1008900045EA131343EA12634FEA022245EA1115AF
:1008A00045EA10654FEA00260EF000419D4208BF60
:1008B000964244F1FD0404F5407402D25B084FEA0D
:1008C0003202B61A65EB03055B084FEA32024FF4B9
:1008D00080104FF4002CB6EB020E75EB030E22BF16
:1008E000B61A754640EA0C005B084FEA3202B6EBD6
:1008F000020E75EB030E22BFB61A754640EA5C0085
:100900005B084FEA3202B6EB020E75EB030E22BF14
:10091000B61A754640EA9C005B084FEA3202B6EB15
:10092000020E75EB030E22BFB61A754640EADC00D4
:1009300055EA060E18D04FEA051545EA16754FEA36
:1009400006164FEAC30343EA52734FEAC2025FEA54
:100950001C1CC0D111F4801F0BD141EA00014FF0E3
:1009600000004FF0004CB6E711F4801F04BF0143B4
:100970000020B4F1FD0C88BFBCF5E06F3FF6AFAED0
:10098000B5EB030C04BFB6EB020C5FEA500C50F160
:10099000000041EB045170BD0EF0004E4EEA1131E3
:1009A00014EB5C04C2BFD4EB0C0541EA045170BDEA
:1009B00041F480114FF0000E013C90E645EA060E2E
:1009C0008DE60CEA135594EA0C0F08BF95EA0C0F5C
:1009D0003FF43BAF94EA0C0F0AD150EA01347FF4A4
:1009E00034AF95EA0C0F7FF425AF104619462CE77B
:1009F00095EA0C0F06D152EA03353FF4FDAE1046DE
:100A0000194622E750EA410618BF52EA43067FF42E
:100A1000C5AE50EA41047FF40DAF52EA43057FF4BE
:100A2000EBAE12E74FF0FF3C06E000BF4FF0010CC9
:100A300002E000BF4FF0010C4DF804CD4FEA410C2D
:100A40007FEA6C5C4FEA430C18BF7FEA6C5C1BD0FA
:100A500001B050EA410C0CBF52EA430C91EA030F7B
:100A600002BF90EA020F0020704710F1000F91EAD8
:100A7000030F58BF994208BF90422CBFD8176FEAA6
:100A8000E37040F0010070474FEA410C7FEA6C5C74
:100A900002D150EA013C07D14FEA430C7FEA6C5C7B
:100AA000D6D152EA033CD3D05DF8040B704700BFA7
:100AB0008446104662468C461946634600E000BFF5
:100AC00001B5FFF7B7FF002848BF10F1000F01BDC7
:100AD0004DF808EDFFF7F4FF0CBF012000205DF892
:100AE00008FB00BF4DF808EDFFF7EAFF34BF012017
:100AF00000205DF808FB00BF4DF808EDFFF7E0FFB0
:100B000094BF012000205DF808FB00BF4DF808ED00
:100B1000FFF7CEFF94BF012000205DF808FB00BF67
:100B20004DF808EDFFF7C4FF34BF012000205DF849
:100B300008FB00BF4FEA410C7FEA6C5C02D150EA2F
:100B4000013C0AD14FEA430C7FEA6C5C02D152EAC5
:100B5000033C02D14FF0000070474FF00100704796
:100B60004FEA410212F5001215D211D56FF47873D5
:100B7000B3EB625212D94FEAC12343F0004343EA78
:100B8000505311F0004F23FA02F018BF4042704753
:100B90004FF00000704750EA013005D111F00040DD
:100BA00008BF6FF0004070474FF00000704700BF73
:100BB0004A0011D212F5001211D20DD56FF47873DC
:100BC000B3EB62520ED44FEAC12343F0004343EA31
:100BD000505323FA02F070474FF00000704750EA7C
:100BE000013002D14FF0FF3070474FF000007047E6
:100BF0004FEA4102B2F1E04324BFB3F5001CDCF13F
:100C0000FE5C0DD901F0004C4FEAC0024CEA507076
:100C1000B2F1004F40EB830008BF20F001007047A5
:100C200011F0804F21D113F13872BCBF01F00040A8
:100C3000704741F480114FEA5252C2F11802C2F1DA
:100C4000200C10FA0CF320FA02F018BF40F001005B
:100C50004FEAC1234FEAD32303FA0CFC40EA0C000D
:100C600023FA02F34FEA4303CCE77FEA625307D14A
:100C700050EA01331EBF4FF0FE4040F44000704781
:100C800001F0004040F0FE4040F40000704700BF1B
:100C900053B94AB9002908BF00281CBF4FF0FF31E3
:100CA0004FF0FF3000F07AB9ADF1080C6DE904CED9
:100CB00000F006F8DDF804E0DDE9022304B0704737
:100CC0002DE9F0478C460D460446089E002B51D175
:100CD0008A4217466DD9B2FA82FEBEF1000F0BD0E0
:100CE000CEF1200C01FA0EF520FA0CFC02FA0EF7F8
:100CF0004CEA050C00FA0EF44FEA174A250CBCFB2F
:100D0000FAF81FFA87F90AFB18CC45EA0C4508FBEC
:100D100009F3AB420AD9ED1908F1FF3280F02381C3
:100D2000AB4240F22081A8F102083D44ED1AA4B282
:100D3000B5FBFAF00AFB105544EA054400FB09F93B
:100D4000A14509D9E41900F1FF3380F00A81A145DA
:100D500040F2078102383C44A4EB090440EA084011
:100D60000021002E61D024FA0EF400233460736059
:100D7000BDE8F0878B4207D9002E54D0002186E8C9
:100D800021000846BDE8F087B3FA83F1002940F05E
:100D90008E80AB4202D3824200F2FA80841A65EB65
:100DA00003050120AC46002E3FD086E81010BDE8B8
:100DB000F08712B90127B7FBF2F7B7FA87FEBEF149
:100DC000000F34D1EB1B3A0C1FFA87FC0121B3FB57
:100DD000F2F8250C02FB183345EA03450CFB08F337
:100DE000AB4207D9ED1908F1FF3002D2AB4200F255
:100DF000D1808046ED1AA3B2B5FBF2F002FB10558C
:100E000043EA05440CFB00FCA44507D9E41900F1B2
:100E1000FF3302D2A44500F2B8801846A4EB0C04BC
:100E200040EA08409DE731463046BDE8F087CEF104
:100E3000200405FA0EF307FA0EF720FA04F83A0C2C
:100E400025FA04F448EA0308B4FBF2F14FEA184526
:100E500002FB11441FFA87FC45EA044501FB0CF331
:100E6000AB4200FA0EF409D9ED1901F1FF3080F020
:100E70008A80AB4240F2878002393D44EB1A1FFA68
:100E800088F5B3FBF2F002FB103345EA034500FBA3
:100E90000CF3AB4207D9ED1900F1FF386FD2AB422A
:100EA0006DD902383D44EB1A40EA01418FE7C1F1A8
:100EB000200722FA07F88B4005FA01F448EA0303F9
:100EC00020FA07FE4FEA134CFD404EEA040EB5FB34
:100ED000FCF94FEA1E440CFB19551FFA83F844EA4B
:100EE000054509FB08F4AC4202FA01F200FA01FAE6
:100EF00008D9ED1809F1FF3043D2AC4241D9A9F12C
:100F000002091D442D1B1FFA8EFEB5FBFCF00CFBE5
:100F100010554EEA054400FB08F8A04507D9E4182F
:100F200000F1FF3529D2A04527D902381C4440EAF8
:100F30000940A4EB0804A0FB02894C45C6464D4677
:100F400015D312D056B1BAEB0E0364EB050404FAC4
:100F500007F7CB401F43CC40376074600021BDE8E9
:100F6000F0871846F8E69046E0E6C245EAD2B8EBCC
:100F7000020E69EB03050138E4E72846D7E740464F
:100F800091E78146BEE7014678E702383C4445E7F1
:100F9000084608E7A8F102083D442BE7704700BF68
:100FA00038B50E4A0E4B054618784FF47A73B3FBEA
:100FB000F0F31068B0FBF3F000F096F8044658B96F
:100FC0000F2D09D8024629464FF0FF3000F04AF8AD
:100FD000044B20461D6038BD012038BD480000206C
:100FE000000000200400002008B50B4B1A6842F4F2
:100FF00000721A601A6842F480621A601A6842F439
:1010000080721A60032000F01BF80020FFF7C8FF71
:1010100002F0B8F9002008BD003C0240034A044B2E
:1010200011681B780B441360704700BF7C020020DE
:1010300000000020014B1868704700BF7C020020B0
:10104000074AD36823F4E0631B041B0C43F0BF631F
:10105000000243F4003300F4E0600343D3607047C0
:1010600000ED00E0174B30B5DC68C4F30224C4F196
:101070000703251D042B28BF0423062D4FF001056F
:1010800005FA03F303F1FF338CBF033C002419403E
:10109000A14005FA04F4013C2240002842EA010282
:1010A0004FEA0212ADBF00F1604000F00F00064BA6
:1010B00000F56140B5BFD2B2D2B21A5480F8002315
:1010C00030BD00BF00ED00E014ED00E0002808DBBB
:1010D0004209012300F01F0003FA00F0014B43F81E
:1010E0002200704700E100E00138B0F1807F0AD2B1
:1010F000064B074A5860F02182F82310002007228F
:1011000098601A6070470120704700BF10E000E04F
:1011100000ED00E02DE9F04F85B00B68DFF89C8111
:10112000644A01934FF001090023019C09FA03F777
:1011300007EA0406B74240F0AD804C6824F0100A7C
:10114000BAF1020F16D14FEAD30C00EB8C0C03F06E
:10115000070BDCF820504FEA8B0B4FF00F0E0EFA06
:101160000BFE25EA0E0E0D6905FA0BF545EA0E0594
:10117000CCF820504FEA430C0325D0F800B005FA14
:101180000CF5ED4304F0030E0BEA050B0EFA0CFE12
:101190000AF1FF3A4EEA0B0EBAF1010F0095C0F8C2
:1011A00000E015D8D0F808E005EA0E0ECD6805FA83
:1011B0000CFA4AEA0E0EC0F808E0D0F804E02EEA75
:1011C0000707C4F3001E0EFA03FE4EEA0707476046
:1011D000C768009D3D408F6807FA0CF73D43C56026
:1011E000E50057D54FF0000BCDF80CB0D8F844709F
:1011F000314D47F48047C8F84470D8F8447007F47C
:1012000080470397039F23F0030707F1804707F503
:101210009C3703F0030CD7F808A04FEA8C0C4FF072
:101220000F0E0EFA0CFEA8422AEA0E0E39D005F572
:101230008065A84237D005F58065A84235D005F510
:101240008065A84233D005F58065A84214BF072504
:10125000042505FA0CF545EA0E05BD601568F7434F
:1012600014F4803F0CBF3D4035431560556814F4BD
:10127000003F0CBF3D4035435560956814F4801F16
:101280000CBF3D4035439560D568A40254BF3D4036
:101290003543D5600133102B7FF447AF05B0BDE86F
:1012A000F08F5D46D5E70125D3E70225D1E7032579
:1012B000CFE700BF003C0140000002400038024080
:1012C0000AB1816170470904FBE7436931EA03030E
:1012D00008BF0904816170472DE9F341044618B93C
:1012E000012002B0BDE8F0810368DD0710D4236857
:1012F000980758D423681A0700F19A8023685B077F
:1013000000F1B880A269002A40F019810020E8E7C6
:10131000A64B9A6802F00C02042A07D09A6802F0E1
:101320000C02082A0AD15B68590207D59F4B1B683B
:101330009A03DCD56368002BD9D1D1E763689B4D54
:10134000B3F5803F11D12B6843F480332B60FFF756
:1013500071FE964D06462B689B03C8D4FFF76AFEC4
:10136000801B6428F7D90320BBE7B3F5A02F04D175
:101370002B6843F480232B60E5E72A6822F480324F
:101380002A602A6822F480222A60002BDFD1FFF72E
:1013900051FE06462B689F03A9D5FFF74BFE801B25
:1013A0006428F7D9DFE7814B9A6812F00C0F07D059
:1013B0009A6802F00C02082A11D15B685E020ED412
:1013C0007A4B1A68950702D5E268012A88D11A6813
:1013D000216922F0F80242EAC1021A608AE7E26853
:1013E000734BB2B101221A60FFF724FE6F4D06461F
:1013F0002B68980707D52B68226923F0F80343EA86
:10140000C2032B6076E7FFF715FE801B0228EFD999
:10141000A9E71A60FFF70EFE644D06462B68990790
:101420007FF568AFFFF706FE801B0228F6D99AE722
:101430006269604B7AB101221A60FFF7FBFD5B4DD8
:1014400006466B6F9F073FF559AFFFF7F3FD801B13
:101450000228F6D987E71A60FFF7ECFD534D0646E0
:101460006B6F98077FF54AAFFFF7E4FD801B0228FA
:10147000F6D978E74D4B1A6C12F0805228D10192C0
:101480001A6C42F080521A641B6C03F08053019373
:10149000019B0126484D2B68D9051BD5A368434DF8
:1014A000012B27D12B6F43F001032B67FFF7C2FD00
:1014B0003E4D074641F288382B6F9B0739D5002EE9
:1014C0003FF420AF394A136C23F08053136419E7BB
:1014D0000026DFE72B6843F480732B60FFF7AAFD3B
:1014E00007462B68DA05D9D4FFF7A4FDC01B0228F4
:1014F000F7D938E7052B04D12B6F43F004032B6792
:10150000D0E72A6F22F001022A672A6F22F0040234
:101510002A67002BCAD1FFF78DFD41F288380746B4
:101520002B6F9807CBD5FFF785FDC01B4045F7D93A
:1015300019E7FFF77FFDC01B4045BDD913E71B4DE1
:10154000AB6803F00C03082B3FF4CAAE1B4E00231C
:10155000022A336034D1FFF76DFD07462B689901ED
:101560001ED4226AE3691343626A43EA8213E26A81
:1015700043EA0263A26A0D4C5208013A43EA02436D
:101580006B6001233360FFF755FD054623689A0120
:101590003FF5BCAEFFF74EFD401B0228F6D9E2E650
:1015A000FFF748FDC01B0228D8D9DCE6003802400E
:1015B00000004742800E47420070004060004742F2
:1015C000FFF738FD04462B689B017FF59FAEFFF7C0
:1015D00031FD001B0228F6D9C5E600BF134908B546
:1015E0008B6803F00C03042B03D0082B03D01048A6
:1015F00008BD104808BD4A684B68496813F4800369
:1016000014BF0C480A48C1F3881118BF002302F028
:101610003F02A1FB0001FFF73BFB044B5B68C3F3F8
:10162000014301335B00B0FBF3F008BD003802401A
:101630000024F40000127A002DE9F0410D46044622
:1016400010B90120BDE8F081444B1A6802F00F0286
:101650008A4228D321688F072DD4C80740D43F4B36
:101660001A6802F00F02954266D3226851076CD4C3
:10167000130707D53A4A2169936823F4604343EA84
:10168000C1039360FFF7AAFF354B364A9B68C3F34B
:101690000313D35CD840344B18600020FFF780FC64
:1016A0000020BDE8F081CAB21A701B6803F00F0376
:1016B0009942C6D1CEE72A4B11F0040F1EBF9A689B
:1016C00042F4E0529A600E0742BF9A6842F46042C8
:1016D0009A609A68A06822F0F00202439A60BCE720
:1016E00062681F4B012A1DD11B6813F4003FA8D06C
:1016F0001B4EB36823F003031343B360FFF79AFC58
:1017000041F288380746B368626803F00C03B3EB14
:10171000820FA4D0FFF78EFCC01B4045F3D90320F5
:10172000BDE8F081911E01291B6802D813F0007FEB
:10173000DDE713F0020FDAE7EAB21A701B6803F074
:101740000F039D427FF47DAF8FE70549E0688B680A
:1017500023F4E05303438B608AE700BF003C024060
:10176000003802408D66000848000020044B054AFE
:101770009B68C3F38223D35C034A1068D840704748
:10178000003802409D66000848000020044B054ACE
:101790009B68C3F34233D35C034A1068D840704758
:1017A000003802409D66000848000020036A23F0CC
:1017B00001030362036A70B5446882690D6822F010
:1017C00073022A438D6823F002032B430A4DA8427B
:1017D0000BD1CD688E6923F008032B434D6924F4A7
:1017E0004074354323F004032C43446082614A680B
:1017F0004263036270BD00BF00000140036A23F42E
:1018000080730362036A70B54468C2690D6822F090
:1018100073022A438D6823F4007343EA05230B4DBA
:10182000A8420DD1CD688E6923F4006343EA0523F5
:101830004D6924F44054354323F4806344EA05148D
:101840004460C2614A68C263036270BD0000014027
:10185000036A23F480530362036A30B54468C269A3
:101860000D6822F4E64242EA05228D6823F4005313
:1018700043EA0533064DA84202BF4D6924F4804473
:1018800044EA85144460C2614A680264036230BD60
:101890000000014070477047704703681A6991075C
:1018A00010B504460ED5DA6892070BD56FF0020228
:1018B0001A619B6901229B07027777D000F0C4FD73
:1018C0000023237723681A69500710D5DA68510777
:1018D0000DD56FF004021A619B69022213F4407F58
:1018E0002277204668D000F0AFFD002323772368DD
:1018F0001A6912070FD5DA6810070CD56FF00802C5
:101900001A61DB6904229907227720465AD000F039
:101910009BFD0023237723681A69D20610D5DA6865
:10192000D0060DD56FF010021A61DB69082213F49E
:10193000407F227720464BD000F086FD002323779E
:1019400023681A69D10708D5DA68D20705D56FF080
:1019500001021A612046FFF79DFF23681A691006ED
:1019600008D5DA68110605D56FF080021A612046A5
:1019700000F0FEFA23681A69520608D5DA685006A4
:1019800005D56FF040021A612046FFF785FF2368F6
:101990001A69910622D5DA6892061FD56FF02002E7
:1019A00020461A61BDE8104000F0E1BA01F056FC93
:1019B0002046FFF770FF83E701F050FC2046FFF759
:1019C0006AFF92E701F04AFC2046FFF764FFA0E7B8
:1019D00001F044FC2046FFF75EFFAFE710BD0000BA
:1019E000244A036890420ED0B0F1804F0BD0A2F58C
:1019F0007C42904207D002F58062904203D002F50B
:101A00008062904215D14A6823F070031343194A4B
:101A1000904219D0B0F1804F16D0A2F57C4290428E
:101A200012D002F5806290420ED002F580629042A0
:101A30000AD0114A904207D002F58062904203D04A
:101A400002F58062904203D1CA6823F440731343C5
:101A50004A6923F08003134303608B68C3620B68F9
:101A60008362044B984204BF0B6903630123436103
:101A7000704700BF000001400040014010B504461F
:101A8000A0B190F83D3003F0FF021BB980F83C2074
:101A900001F0EAFC022384F83D302068211DFFF7A5
:101AA0009FFF012384F83D30002010BD012010BDB0
:101AB00010B50446A0B190F83D3003F0FF021BB909
:101AC00080F83C2001F0B8FC022384F83D30206807
:101AD000211DFFF785FF012384F83D30002010BD54
:101AE000012010BD10B50446A0B190F83D3003F0C0
:101AF000FF021BB980F83C2001F064FC022384F84B
:101B00003D302068211DFFF76BFF012384F83D3035
:101B1000002010BD012010BD036A23F010030362F2
:101B2000036A70B5446882690D6822F4E64242EAAD
:101B300005228D6823F0200343EA05130B4DA842CC
:101B40000DD1CD688E6923F0800343EA05134D69FA
:101B500024F44064354323F0400344EA85044460A0
:101B600082614A688263036270BD00BF0000014069
:101B700038B590F83C30012B04464FF0020018D0E5
:101B8000012384F83C3084F83D001D460C2A0BD814
:101B9000DFE802F0070A0A0A100A0A0A140A0A0A07
:101BA00018002068FFF702FE002084F83D5084F8FA
:101BB0003C0038BD2068FFF7AFFFF5E72068FFF76E
:101BC0001DFEF1E72068FFF743FEEDE738B590F81A
:101BD0003C30012B04464FF0020025D0012384F84D
:101BE0003C3084F83D000C2A18D8DFE802F00717D3
:101BF00017171E1717172F17171740002068FFF722
:101C0000D5FD236809699A6942F008029A619A69C8
:101C100022F004029A619A690A439A610123002022
:101C200084F83D3084F83C0038BD2068FFF774FF2D
:101C3000236809699A6942F400629A619A6922F4F8
:101C400080629A619A6942EA0122E6E72068FFF71A
:101C5000D5FD23680969DA6942F00802DA61DA69B8
:101C600022F00402DA61DA690A43DA61D6E7206811
:101C7000FFF7EEFD23680969DA6942F40062DA6170
:101C8000DA6922F48062DA61DA6942EA0122ECE779
:101C900070B5046A164E24F001040462B0428469EF
:101CA000056A12D0B0F1804F0FD0A6F57C46B04245
:101CB0000BD006F58066B04207D006F58066B042CC
:101CC00003D006F59A36B0420FD124F00304224324
:101CD0001B0122F0F002DBB225F00A0501F00A0137
:101CE0001A4329438261016270BD44F00102EFE7AB
:101CF00000000140F8B590F83C30012B04460D4639
:101D00004FF0020019D0012384F83C3084F83D00E4
:101D1000A2B9CB68206806C9FFF7BAFF2368A96893
:101D20009A6922F00C029A619A690A439A61012326
:101D3000002084F83D3084F83C00F8BD042A8E6809
:101D40002368E86882C91FD11A6A22F010021A6259
:101D50009A691D6A22F4407242EA0722000380B2A7
:101D600022F470420901024301F0A00125F0A00015
:101D700001439A6119629A6922F440629A619A69F0
:101D800042EA06269E61D2E7082A1A6A1CD122F48A
:101D900080721A62DA691D6A22F003023A43000176
:101DA000C0B222F0F0020902024301F4206125F4DE
:101DB00020600143DA611962DA6922F00C02DA610B
:101DC000DA691643DE61B2E722F480521A62DA69F8
:101DD0001D6A22F4407242EA0722000322F4704294
:101DE00080B20903104301F4204125F4204211433D
:101DF000D8611962DA6922F44062DA61DA6942EA8A
:101E00000626DFE7036A01F01F0110B501248C40AC
:101E100023EA04030362036A8A401A43026210BD84
:101E200010B5044601220068FFF7ECFF2368094A59
:101E3000934202BF5A6C42F400425A649A6802F01C
:101E40000702062A1EBF1A6842F001021A6000202B
:101E500010BD00BF0000014010B504460C290DD88C
:101E6000DFE801F0070C0C0C230C0C0C280C0C0CFC
:101E70002D000268D36843F00203D360206801227A
:101E8000FFF7C0FF2368104A934202BF5A6C42F426
:101E900000425A649A6802F00702062A1EBF1A68B6
:101EA00042F001021A60002010BD0268D36843F0BE
:101EB0000403E2E70268D36843F00803DDE7026841
:101EC000D36843F01003D8E700000140FFF7C4BF18
:101ED00010B504460C290DD8DFE801F0070C0C0CF6
:101EE0001C0C0C0C210C0C0C26000268D36843F06F
:101EF0000203D36020680122FFF784FF23689A68F9
:101F000002F00702062A1EBF1A6842F001021A6098
:101F1000002010BD0268D36843F00403E9E70268BB
:101F2000D36843F00803E4E70268D36843F0100382
:101F3000DFE790F83C30012B30B54FF0020314D0AE
:101F4000046880F83D306268A3680D68496822F033
:101F5000700223F080030B432A436260A3600123D5
:101F600080F83D30002380F83C30184630BD704783
:101F7000704700002DE9F0470668C2683369C169FF
:101F800023F4405313433361044683680069F268C5
:101F90000343606922F41642034322F00C020B4310
:101FA0001343F3607369A26923F440731343B1F5DB
:101FB000004F73617A4B7CD19E4203D003F580635E
:101FC0009E4244D1FFF7E2FB192505FB00F3606850
:101FD0004FF064094000B3FBF0F3B3FBF9F34FEAB1
:101FE0000318FFF7D3FB636868435B00B0FBF3F7AC
:101FF000FFF7CCFB636868435B00B0FBF3F3B3FB14
:10200000F9F309FB1373DB003233B3FBF9F35B0025
:1020100003F4F877FFF7BAFB626868435200B0FB3D
:10202000F2FAFFF7B3FB636868435B00B0FBF3F3BE
:10203000B3FBF9F309FB13A3DB003233B3FBF9F372
:1020400003F0070343443B44B360BDE8F087FFF768
:102050008DFB192505FB00F360684FF06409400013
:10206000B3FBF0F3B3FBF9F34FEA0318FFF77EFB82
:10207000636868435B00B0FBF3F7FFF777FB6368C7
:1020800068435B00B0FBF3F3B3FBF9F309FB137395
:10209000DB003233B3FBF9F35B0003F4F877FFF7AF
:1020A00065FB626868435200B0FBF2FAFFF75EFB23
:1020B000B9E79E4202D03B4B9E4240D1FFF766FB00
:1020C000676819254FF0640905FB00F3BF00B3FBF7
:1020D000F7F3B3FBF9F31F01FFF758FB636868439D
:1020E0009B00B0FBF3F8FFF751FB636868439B006C
:1020F000B0FBF3F3B3FBF9F309FB13831B0132339A
:10210000B3FBF9F303F0F008FFF740FB62686843A4
:102110009200B0FBF2FAFFF739FB636868439B005B
:10212000B0FBF3F3B3FBF9F309FB13A31B01323349
:10213000B3FBF9F303F00F0343EA080383E7FFF768
:1021400015FB676819254FF0640905FB00F3BF0014
:10215000B3FBF7F3B3FBF9F31F01FFF707FB63686A
:1021600068439B00B0FBF3F8FFF700FB636868432C
:102170009B00B0FBF3F3B3FBF9F309FB13831B01E3
:102180003233B3FBF9F303F0F008FFF7EFFA6268BC
:1021900068439200B0FBF2FAFFF7E8FABDE700BF30
:1021A0000010014000140140F8B504460E461746E1
:1021B0001D4621680B6836EA030301D10020F8BDF3
:1021C0006B1CF7D095B92368DA6822F4D072DA6014
:1021D0005A6922F001025A61202384F8393084F8C8
:1021E0003A30002384F838300320F8BDFEF722FF90
:1021F000C01B8542DDD2E6E710B5044640B390F837
:10220000393003F0FF021BB980F8382001F074F96F
:102210002268242384F83930D36823F40053D36030
:102220002046FFF7A7FE23681A6922F490421A613C
:102230005A6922F02A025A61DA6842F40052DA60DE
:1022400000202023E06384F8393084F83A3010BD50
:10225000012010BD2DE9F0411F4690F83930202BA8
:1022600004460D4690464FD100294AD0002A48D056
:1022700090F83830012B47D0012380F83830002304
:10228000C363212380F83930FEF7D4FEA4F82480FC
:102290000646A4F82680E38C9BB26BB93B463246D7
:1022A00040212046FFF780FFB0B9202384F8393061
:1022B00084F83800BDE8F081E38C013B9BB2E384F5
:1022C000A368B3F5805F32463B464FF0800120465D
:1022D0000ED1FFF769FF10B10320BDE8F0812B8814
:1022E0002268C3F308035360236943B90235D2E778
:1022F000FFF75AFF0028EFD123682A785A6001358A
:10230000C9E70120BDE8F0810220BDE8F0812DE998
:10231000F0411F4690F83A30202B04460D46904677
:1023200052D100294DD0002A4BD090F83830012BE3
:102330004AD0012380F838300023C363222380F879
:102340003A30FEF777FEA4F82C800646A4F82E80DB
:10235000E08D80B230B9202384F83A3084F8380018
:10236000BDE8F081E38D013B9BB2E385A368B3F543
:10237000805F32463B464FF02001204612D1FFF7E6
:1023800013FF10B10320BDE8F081236822695B6868
:1023900022B9C3F3080325F8023BD9E7DBB225F8DD
:1023A000013BD5E7FFF700FF0028EBD12368216947
:1023B0005B686A1C11B92B701546C9E703F07F03EF
:1023C000F9E70120BDE8F0810220BDE8F0810000BE
:1023D00030B595B03022002108A801F0A7F90021FE
:1023E000142203A801F0A2F90024154B01941A6CE1
:1023F00042F080521A641B6C03F080530193019BDE
:10240000104B02941A6842F440421A601B680E9402
:1024100003F440430293029B01254FF4A02308A834
:1024200009930895FEF758FF0F23214603A803934D
:102430000495059406940794FFF7FEF815B030BD97
:1024400000380240007000400368B3F1804F06D1AD
:10245000037F012B04D1044A1368013313607047D2
:10246000022BFCD1014AF7E74C0200205002002069
:1024700010B50F4C0F494FF0FF3306222046FFF7EF
:10248000E9FE4FF0FF3304220B492046FFF7E2FE3E
:102490004FF0FF332A2209492046FFF7DBFE204692
:1024A0004FF0FF3376220649BDE81040FFF7D2BE59
:1024B00050030020586400085F640008646400084A
:1024C0008F64000813B50A4C0A494FF0FF33042209
:1024D0002046FFF7BFFE4FF0FF33012201A920463F
:1024E000FFF715FF01A801F0F2F802B010BD00BF20
:1024F000500300202066000870B5324BADF5AF6D7B
:1025000004466A4603F1180618685968154603C55B
:102510000833B3422A46F7D11B882B804A22002178
:102520000DF11A0001F002F9631E022B00F27F8107
:102530002246254919A801F07DF919A8FDF750FE9A
:102540004FF0FF3382B219A92048FFF783FE022C17
:1025500042D0032C00F06D816846FDF741FE4FF03C
:10256000FF3382B269461948194CFFF773FE4FF0EA
:10257000FF3303220DF214511448FFF7C8FE4FF049
:10258000FF3303220DF214511048FFF763FE0DF2E2
:10259000145001F09CF807EE900AF8EEE77A0DF27D
:1025A0001450C4ED097A01F092F807EE900A094B35
:1025B000F8EEE77A0120C4ED0A7A18700DF5AF6DD8
:1025C00070BD00BF48630008066500085003002086
:1025D00008000020480200209B4C9C49D4ED007A62
:1025E000FDEEE77A19A817EE902A01F023F9D4ED51
:1025F000017A9749FDEEE77A32A817EE902A01F0AA
:1026000019F9A068FDF7A8FF8BA3D3E90023FEF713
:1026100021F9904B0022FDF7F3FFFEF7A1FA8E4956
:1026200002464BA801F006F98C4B8D491A8864A824
:1026300001F000F98B4B8C491A887DA801F0FAF85B
:10264000A28D8A4996A801F0F5F8E28D8849AFA8D5
:1026500001F0F0F8874B88491A88C8A801F0EAF819
:10266000864B87491A88E1A801F0E4F8206BFDF752
:1026700073FF73A3D3E90023FEF7ECF8754B002238
:10268000FDF7BEFFFEF76CFA7E490246FAA801F09C
:10269000D1F8D4ED0D7A7C49FDEEE77A0DF24C408D
:1026A00017EE902A01F0C6F8784B1868FDF754FF32
:1026B00063A3D3E90023FEF7CDF80022654BFDF7B5
:1026C0009FFFFEF74DFA724B04461868FDF744FF72
:1026D0005BA3D3E90023FEF7BDF800225D4BFDF7B5
:1026E0008FFFFEF73DFA234602466A490DF59660D4
:1026F00001F0A0F8684B694993ED007A684BD3ED7F
:10270000007ABDEEC77AFDEEE77A17EE103A17EEC3
:10271000902A0DF2145001F08DF819A8FDF760FD14
:102720004FF0FF3382B219A95E48FFF793FD32A83C
:10273000FDF756FD4FF0FF3382B232A95948FFF73B
:1027400089FD4BA8FDF74CFD4FF0FF3382B24BA93A
:102750005448FFF77FFD64A8FDF742FD4FF0FF33BB
:1027600082B264A94F48FFF775FD7DA8FDF738FDDB
:102770004FF0FF3382B27DA94A48FFF76BFD96A860
:10278000FDF72EFD4FF0FF3382B296A94548FFF7C3
:1027900061FDAFA8FDF724FD4FF0FF3382B2AFA972
:1027A0004048FFF757FDC8A8FDF71AFD4FF0FF336B
:1027B00082B2C8A93B48FFF74DFDE1A8FDF710FD27
:1027C0004FF0FF3382B2E1A93648FFF743FDFAA884
:1027D000FDF706FD4FF0FF3382B2FAA93148FFF74B
:1027E00039FD0DF24C40FDF7FBFC4FF0FF3382B298
:1027F0000DF24C412B48FFF72DFD0DF59660FDF7CE
:10280000EFFC4FF0FF3382B20DF596612548FFF7DC
:1028100021FD0DF21450FDF7E3FC4FF0FF3382B2BF
:102820000DF214511F48FFF715FD0120C6E60020E8
:10283000C4E60220C2E600BF1F85EB51B81E094066
:102840006F1283C0CA210940080000200A650008F1
:1028500013650008008066401C65000868020020BF
:10286000336500086A0200204365000853650008CC
:10287000726500086C020020916500086E0200205D
:102880009E650008AB650008CA650008C402002008
:102890000C030020E4650008C00200200E6600085A
:1028A000C8020020500300202DE9F0438FB0FEF74E
:1028B0009BFBFFF78DFD1422002107A8002400F0E8
:1028C00035FF814B01941A6B8048814D814F42F056
:1028D00004021A631A6B02F004020192019A029434
:1028E0001A6B42F080021A631A6B02F080020292A5
:1028F000029A03941A6B42F001021A631A6B02F0F7
:1029000001020392039A04941A6B42F002021A63C2
:102910001B6B03F00203049322464FF40871049BDF
:10292000FEF7CEFC224680216B48FEF7C9FC4FF42F
:102930000053079307A9694B674808934FF00108B4
:102940000994FEF7E7FB4FF4087307A95F48079364
:10295000CDF8208009940A94FEF7DCFB802307A9B8
:102960005D480793CDF8208009940A94FEF7D2FBC6
:102970001C220DEB020021460594069400F0D6FEC1
:10298000574BAC6040F28F16284685E81800EE6081
:102990002C61AC61FFF78CF805A9284605940694D4
:1029A000FFF7C7FA6023224607A92846079308962F
:1029B00009940B94FFF70AF9042207A92846FFF7A8
:1029C00005F9284600F06EFD1C220DEB02002146A1
:1029D0000594069400F0AAFE424BBC6041F63F7994
:1029E00087E8080238463123FB603C61BC61FFF791
:1029F00045F805A9384605940694FFF79AFA07A901
:102A0000224638460794089409940B94FFF7B0F8CF
:102A10003548364A364E84604FF4E13380E80C0086
:102A20000C234361C46004618461C461FFF7E4FB6B
:102A30001022214607A80594069400F077FE4FF077
:102A4000804386E8080230464FF0FF33F360B460FD
:102A50003461B461FFF746F805A930460594069441
:102A6000FFF767FA224607A930460794CDF8208081
:102A700009940A94FFF73EF9042207A93046FFF7AC
:102A800039F921463046FFF723FA04213046FFF793
:102A90001FFA21462846FFF7C3F904212846FFF70D
:102AA000BFF921463846FFF711FA2B684FF4FA7246
:102AB0005A639A63FFF7DCFCFFF704FD0446FFF757
:102AC0001BFD032CF8D1F5E700380240000002405E
:102AD000CC020020800200200008024000002110EB
:102AE0000004004000080040500300200044004063
:102AF00010030020012A10B51FD1144B091A1960C8
:102B0000134B1A686FF003006FF01004504304FB7E
:102B1000010002F1C704B4F5C77F03D902FB01F439
:102B2000002C01DC11441960B0F5C87FA8BF4FF438
:102B3000C8703228B8BF322010BD022A04D1054B1C
:102B4000091A1960044BDCE7322010BD4002002056
:102B50005C0200204402002060020020000000000F
:102B60002DE9F843A84C2DED0A8BD4ED097A94EDAC
:102B700000AAD4ED019A94ED0A8A77EECA7A38EE6B
:102B8000698AFDEEE77A17EE905A0935122D10D8B2
:102B9000FDEEC87A17EE903A0933122B09D8BDEC36
:102BA0000A8B0023A385E385002363632363BDE8C9
:102BB000F883964F964E3888FDF7BCFC8EA3D3E978
:102BC0000023FDF747FE8EA3D3E90023FDF718FD90
:102BD00002460B46FDF762FB00228E4BFDF710FD0F
:102BE0008D4B804618688946FDF7B6FC02460B46B9
:102BF00040464946FDF704FDFDF7FAFF0AEE900A4C
:102C0000A0613088FDF796FC7BA3D3E90023FDF794
:102C100021FE7BA3D3E90023FDF7F2FC02460B461D
:102C2000FDF73CFB00227B4BFDF7EAFC7B4B80462B
:102C300018688946FDF790FC02460B464046494617
:102C4000FDF7DEFCFDF7D4FF09EE100A7AEE897A73
:102C5000B6EE007A67EE877AE061C4ED087A17EE87
:102C6000900AFDF779FCD4ED028A804618EE900AAE
:102C70008946FDF771FC41EC100B41EC1C0B02F096
:102C8000E3F8404653EC102B4946FDF7B9FCFDF73D
:102C9000AFFFB0EE4C0AF0EE6C0A0BEE100AE060EB
:102CA00002F01EF9404653EC102B4946FDF7A8FCF4
:102CB000FDF79EFF39EE6A9ADFED596A2061C9EE91
:102CC000267A07EE100A78EEA78A79EE879A3AEE0E
:102CD0000BAAC4ED057A84ED00AA18EE900AC4EDA3
:102CE000019AC4ED028AFDF737FC41EC100B41EC70
:102CF000190B02F0F5F8B0EE40AAF0EE60AAB0EEC3
:102D0000490AF0EE690A02F09FF8B0EE401AF0EEC0
:102D1000601AB0EE4A0AF0EE6A0A02F029F951ECA4
:102D2000100BFDF765FF122DA06007D8FDEEC87AE5
:102D300017EE903A0933122B7FF631AF39489FEDE9
:102D40003A8A00F06FFD3988384800F0F7FC318886
:102D5000374800F0F3FCD4ED067A364867EE887AFF
:102D6000FDEEE77A17EE901A00F0E8FCD4ED077A52
:102D7000314867EE887AFDEEE77A17EE901A00F098
:102D8000DDFCD4ED087A2D4867EE887AFDEEE77A0F
:102D900017EE901A00F0D2FCD4ED027A284867EEC4
:102DA000887AFDEEE77A17EE901A00F0C7FCD4EDB2
:102DB000037A244867EE887AFDEEE77A17EE901AD8
:102DC00000F0BCFCD4ED047A1F4867EE887AFDEE73
:102DD000E77A17EE901A00F0B1FCD4ED057A1B48A3
:102DE00027EE888AFDEEC87ABDEC0A8B17EE901AA2
:102DF000BDE8F84300F0A2BC0000000000E0704015
:102E00006F1283C0CA210940080000206802002018
:102E10006A020020000044404000002044000020DE
:102E20000000AA43256600080000C8423664000876
:102E300037660008456600084D66000855660008BC
:102E400061660008736600087B66000883660008F8
:102E500010B5174C2DED028B94ED008A18EE100A78
:102E6000F0EE408AFDF778FB0FA3D3E90023FDF7CE
:102E700039FE30B968EE287AF5EEC07AF1EE10FA34
:102E800003D538EE288A84ED008AD4ED007A9FEDD0
:102E9000090A27EE800AB6EE007AA8EE870ABDEC92
:102EA000028B10BDAFF30080A4703D0AD7A3E03FB2
:102EB000640200200000000070B5D54D2DED048B9C
:102EC000D5ED007AD5ED098A95ED0A8A78EEE78A84
:102ED000D5ED017A38EE678A82B068EE087A2C4622
:102EE000E8EEA87A17EE900AFDF736FB41EC100BDE
:102EF00002F040F8FDEEE87A51EC100B17EE903A34
:102F00000933122B10D8FDEEC87A17EE903A093328
:102F1000122B09D80023AB85EB8500236B632B6351
:102F200002B0BDEC048B70BDFDF762FE09EE100A25
:102F3000FDF712FB41EC100B01F0DEFDAAA3D3E973
:102F4000002351EC100BFDF785FCA9A3D3E9002366
:102F5000FDF756FBFDF74CFE07EE900A28EE278A98
:102F600068EEA78AC8EE097AAA4DAB4E88EE897A38
:102F7000C5ED007A67EEA77A86ED007AE7EE077A6C
:102F800017EE900AFDF7E8FA41EC100B01F0F2FFA2
:102F900051EC100BFDF72CFE60633068FDF7DCFA96
:102FA000CDE900012868FDF7D7FA9DED001B41EC43
:102FB000100B01F0DDFF51EC100BFDF719FE94ED45
:102FC000027A964B07EE900A77EEC77A186017EEF2
:102FD000900AFDF7C1FA41EC100B41EC180B01F01F
:102FE0007FFFB0EE409AF0EE609AB0EE480AF0EE45
:102FF000680A01F029FFB0EE401AF0EE601AB0EE58
:10300000490AF0EE690A01F0B3FF51EC100BFDF72D
:10301000EFFD834B00EE100A1860FFF719FFDFED9C
:10302000817A84ED0C0A20EE270AD4ED0D6ADFEDDB
:103030007E7AB0EE007AB0EE406A96EE876AA6EE2F
:10304000870A86EE279AC0EE278ABDEEC98AFDEE72
:10305000E87A18EE103A002BB8BF5B420E2B17EE41
:10306000902A05DC82EAE271A1EBE2710E292FDDE4
:1030700007EE903A002AB8BF5242B8EEE78A07EE50
:10308000902AF8EEE77AB4EE678AF1EE10FA48BFBC
:10309000B0EE678AC9EE087A17EE900AFDF75CFA7F
:1030A00055A3D3E90023FDF7ABFAFDF7A1FDC8EE68
:1030B000887A09EE100A17EE900AFDF74DFA4EA332
:1030C000D3E90023FDF79CFAFDF792FD08EE900A84
:1030D000B5EEC09AF1EE10FA9FED548A544BD8BF6A
:1030E000544AF5EEC08AC8BF4FF07E5269EE087AA6
:1030F000F1EE10FA1A60504BD4BF4E4A4FF07E5298
:1031000017EE900A1A60FDF727FA3DA3D3E90023D2
:10311000FDF7A0FBFDF724FD80EAE073A3EBE0736D
:1031200098B2FDF707FA38A3D3E90023FDF768FA50
:10313000FDF73EFD68EE887AA08517EE900AFDF750
:103140000BFA2FA3D3E90023FDF784FBFDF708FD5D
:1031500080EAE073A3EBE07398B2FDF7EBF92AA3E2
:10316000D3E90023FDF74CFAFDF722FDE085334853
:103170009FED338A00F056FBD4ED0D7A314867EEAF
:10318000887AFDEEE77A17EE901A00F0D7FAD4EDC0
:103190000C7A2D4867EE887AFDEEE77A17EE901AE2
:1031A00000F0CCFA29EE089A2848FDEEC97A17EE0D
:1031B000901A00F0C3FA68EE888A2548FDEEE87A96
:1031C00017EE901A00F0BAFAA18D224800F0B6FA74
:1031D000E18D214802B0BDEC048BBDE8704000F0E9
:1031E000ADBA00BFAFF300801F85EB51B81EF93FA9
:1031F0000000000000C0624085EB51B81E4527402A
:103200006F1283C0CA2119409A9999999999A93F37
:1032100008000020C0020020C80200200C0300208B
:10322000C402002000002A430000A042000087439F
:1032300040000020000080BF44000020D063000850
:103240000000C842E7630008FC630008126400083D
:10325000206400082F64000844640008F8B5026880
:10326000364B9A422DED028B65D1037F012B62D143
:10327000334B1B78012B5ED1324F3348334E344CE5
:1032800000F0D0FA20213348FEF71FF83B78324A8D
:1032900001333B70314B196813681160CB1A304A07
:1032A0003380304B196813681160CB1A2380FFF705
:1032B00057FC3B780A2B254603D100233B70FFF7D0
:1032C000FBFD294F3088B98D284C0122FFF712FCF5
:1032D00002222080F98D2888FFF70CFC244A254B18
:1032E00092ED007A1880F7EE007AB4EE677AF1EE8C
:1032F00010FA0CBF0022012280211F482546B0EEA3
:10330000678A1C46FDF7DCFF1C4B29881A681148A8
:1033100051631B4AD2ED007AF4EE487AF1EE10FACE
:103320001D460CBF012200224FF40071FDF7C8FFBB
:103330002B6822889A63BDEC028BF8BD0008004020
:10334000480200203C020020AC6300086802002014
:103350006A02002000000240540200204C020020BB
:103360005802002050020020080000206C020020BB
:10337000400000206E02002000080240CC02002025
:103380004400002007B50E4B002100915A6C42F416
:1033900080425A645A6C02F480420092009A019171
:1033A0001A6C42F080521A641B6C03F08053019334
:1033B0000720019BFDF744FE03B05DF804FB00BF4E
:1033C0000038024010B5044688B01422002103A83A
:1033D00000F0ACF92368B3F1804F28D103F50E3328
:1033E000002401941A6C134842F001021A641A6C0A
:1033F00002F001020192019A02941A6B42F001025A
:103400001A631B6B03F001030293029B03230393D4
:103410000223049303A901230793FDF77BFE1C20DD
:1034200022462146FDF71EFE1C20FDF74FFE08B088
:1034300010BD00BF000002400268094B9A4282B0F2
:103440000BD100230193074B1A6C42F002021A645D
:103450001B6C03F002030193019B02B0704700BF95
:10346000000400400038024007B50D4B02689A4244
:1034700013D1002203F50C330192196C41F00401C1
:1034800019641B6C03F0040301931E201146019B79
:10349000FDF7E8FD1E20FDF719FE03B05DF804FB03
:1034A0000008004010B5044686B01422002101A88F
:1034B00000F03CF922680D4B9A4214D1002300938E
:1034C0000B4B0C481A6B42F001021A631B6B03F0A2
:1034D00001030093009BC023019301A902230293DF
:1034E0000593FDF717FE06B010BD00BF00040040B5
:1034F000003802400000024010B5044688B0142293
:10350000002103A800F012F92268154B9A4224D139
:1035100003F5FA33002101911A6C124842F400328B
:103520001A641A6C02F400320192019A02911A6B29
:1035300042F001021A631B6B03F001030293029B2A
:103540000C2303930223049301230593032306937F
:1035500003A907230793FDF7DDFD08B010BD00BFE9
:1035600000440040000002407047FEE7FEE7FEE72F
:10357000FEE7704770477047FDF750BD0148FEF702
:103580008CB900BF100300200148FEF786B900BFC8
:103590008002002070B50E4615460C46A31B9D42C6
:1035A00001DC284670BDAFF3008004F8010BF5E79D
:1035B00010B500234FF06044934201DB104610BD6C
:1035C000D4F8800EC00703D5D4F8000EC00702D48B
:1035D0000133F1E700BF20680028FBD0C85C2070F1
:1035E000F6E7000008B50A4B1968024609B909490F
:1035F00019601868694602448A4206D900F06CF8DE
:103600000C2303604FF0FF3008BD1A6008BD00BFF7
:1036100070020020940300204FF0FF3070474FF4F9
:1036200000534B6000207047012070470020704716
:103630000F49D1F8883043F47003C1F888300D4B3E
:103640001A68002042F001021A6098601A6822F09D
:10365000847222F480321A60074A5A601A6822F48F
:1036600080221A60D8604FF000638B60704700BF03
:1036700000ED00E00038024010300024DFF834D0C4
:10368000002103E00C4B5B58435004310B480C4BBA
:1036900042189A42F6D30B4A02E0002342F8043B58
:1036A000094B9A42F9D3FFF7C3FF00F01BF8FFF76D
:1036B000FBF8704700000220806A0008000000202C
:1036C000200200202002002094030020FEE70A22AE
:1036D000002100F053B90000014B1868704700BF8B
:1036E0004C00002070B50D4E0D4CA41BA4100025FD
:1036F000A54209D10B4E0C4C02F01AFEA41BA410DB
:103700000025A54205D170BD56F8253098470135F2
:10371000EEE756F8253098470135F2E7786A000859
:10372000786A0008786A00087C6A00080244034648
:10373000934200D1704703F8011BF9E70FB40A4B1D
:1037400013B51C6824B1A36913B9204600F0DEFA52
:1037500005AB049AA1680193204600F001FE02B077
:10376000BDE8104004B070474C00002070B50E4614
:10377000054618B183690BB900F0C8FAAB69AC68AB
:1037800013B9284600F0C2FA234B9C4217D16C684B
:10379000A3891B071DD52369DBB1013EA36816F879
:1037A000011F013BA360E9B9002B2EDA22460A2152
:1037B000284600F0F9F8013011D00A2070BD174BEF
:1037C0009C4201D1AC68E3E7154B9C4208BFEC6812
:1037D000DEE72146284600F039F90028DDD04FF019
:1037E000FF3070BD002B04DAA269934206DB0A2980
:1037F00004D023685A1C22601970CFE7224628465D
:1038000000F0D2F80130C9D1E9E723680A205A1C38
:103810002260187070BD00BFCC660008EC6600081E
:10382000AC660008024B01461868FFF79FBF00BF57
:103830004C0000200EB400B59CB04FF402711DABDB
:10384000ADF81410029006906FF000410A48049100
:1038500007914FF6FF7153F8042BADF8161000686E
:10386000019302A900F05EFC029B00221A701CB0BA
:103870005DF804EB03B070474C0000202DE9F84FD1
:103880008046894692461F468B465D460A9815F843
:10389000014B00F0C5FA2044467816F008060BD11B
:1038A0002D2C0BD12C7801260BF1020567B1102FBE
:1038B00014D1302C0AD011E0AB46E6E72B2C04BF24
:1038C0002C780BF10205F1E7302C27D12B7803F08F
:1038D000DF03582B4BD16C7810270235002E0CBF1C
:1038E0006FF000414FF000410022B1FBF7FE10469F
:1038F00007FB1E1CA4F13003092B11D81C46A7425C
:103900001DDD531C07D0864516D301D1A44513DB1A
:1039100000FB0740012215F8014BEBE70A27DDE722
:10392000A4F14103192B01D8373CE8E7A4F1610366
:10393000192B04D8573CE2E74FF0FF32EBE7531C5A
:1039400008D12223C8F800300846BAF1000F07D189
:10395000BDE8F88F06B14042BAF1000F0CD022B199
:10396000013DCAF80050BDE8F88F4D46F9E7302414
:10397000002FB3D10827B1E7BDE8F88F084B37B562
:103980001C68084D236A002B08BF2B460093134682
:103990000A4601462046FFF771FF03B030BD00BF65
:1039A0004C000020B0000020F8B50E461446054635
:1039B00018B183690BB900F0A9F9214B9C422AD1B7
:1039C0006C68A369A360A3891A072ED5236963B322
:1039D00023692068C01A6369F6B29842374604DB4F
:1039E0002146284600F028F928BBA368013BA360C4
:1039F00023685A1C22601E7063690130984204D00B
:103A0000A389DB0719D50A2E17D12146284600F0D5
:103A100013F990B10FE00B4B9C4201D1AC68D0E799
:103A2000094B9C4208BFEC68CBE72146284600F0D2
:103A30000DF80028CCD04FF0FF373846F8BD00BF56
:103A4000CC660008EC660008AC660008324B70B526
:103A50001D6806460C4625B1AB6913B9284600F02F
:103A600055F92E4B9C420FD16C68B4F90C309AB2C8
:103A700015072CD4D00611D40922326043F040033C
:103A8000A3814FF0FF3070BD254B9C4201D1AC6843
:103A9000EBE7244B9C4208BFEC68E6E7510712D5E0
:103AA000616B41B104F14403994202D0304600F009
:103AB00031FA00236363A38923F02403A381002345
:103AC000636023692360A38943F00803A38123690A
:103AD0004BB9A38903F42073B3F5007F03D02146CB
:103AE000304600F0C5F9A28912F001030CD0002382
:103AF000A36063695B42A361236953B9B4F90C30D5
:103B000013F08000BAD170BD920758BF6369A360FB
:103B1000F2E70020F7E700BF4C000020CC66000869
:103B2000EC660008AC6600088A892DE9F04105467C
:103B300010070C465AD44B68002B05DC0B6C002B8D
:103B400002DC0020BDE8F081E66A002EF9D00023F7
:103B500012F480522F682B6033D0606DA3895A070E
:103B600005D56368C01A636B0BB1236CC01A0023C0
:103B70000246E66A216A2846B047431CA38906D15B
:103B800029681D294BD82B4ACA40D60747D50022A1
:103B90006260D9042269226004D5421C01D12B68DD
:103BA00003B96065616B2F600029CAD004F144033A
:103BB000994202D0284600F0ADF900206063BDE8CC
:103BC000F081216A01232846B047411CC6D12B68E9
:103BD000002BC3D01D2B01D0162B01D12F60B0E7D5
:103BE000A38943F04003A381BDE8F0810F69002F52
:103BF000A7D093070E6808BF4B690F6018BF00235A
:103C0000A6EB07088B60B8F1000F9ADD43463A46F1
:103C1000216AA66A2846B047002807DCA38943F03A
:103C20004003A3814FF0FF30BDE8F0810744A8EBCB
:103C30000008E8E70100402038B50B6905460C464E
:103C4000DBB118B183690BB900F060F80C4B9C42F2
:103C500009D16C68B4F90C307BB121462846BDE827
:103C60003840FFF761BF074B9C4201D1AC68F1E7D8
:103C7000054B9C4208BFEC68ECE7002038BD00BF54
:103C8000CC660008EC660008AC660008014900F04C
:103C9000A9B800BF393C0008002310B504460360F2
:103CA0004360836081814366C281036143618361B4
:103CB000194608225C30FFF739FD054B6362054B5E
:103CC000A362054BE362054B2462236310BD00BF72
:103CD000D9480008FB480008334900085749000844
:103CE00070B54A1E682555430E4605F1740100F073
:103CF0005FF9044640B1002180E842000C30A0602A
:103D000005F16802FFF712FD204670BD836910B50A
:103D1000044633BB8364C3640365124B124A1B68B9
:103D20008262984204BF0123836100F01FF8606043
:103D3000204600F01BF8A060204600F017F8002293
:103D4000E06004216068FFF7A7FF01220921A06855
:103D5000FFF7A2FF02221221E068FFF79DFF012377
:103D6000A36110BDA86600088D3C0008F8B51C4B87
:103D70001E68B369074613B93046FFF7C7FF4836D8
:103D8000B4687368013B03D5336833B13668F7E72D
:103D9000B4F90C506DB16834F4E704213846FFF7EC
:103DA0009FFF30600028F1D10C233B600446204681
:103DB000F8BD4FF6FF73E3810123A381656625609B
:103DC000A560656025616561A5610822294604F149
:103DD0005C00FFF7ABFC6563A563A564E564E6E7FB
:103DE000A86600082DE9F8438046894600F148049A
:103DF000002614B93046BDE8F883A5686768013F1E
:103E000001D52468F5E7AB89012B07D9B5F90E3048
:103E1000013303D029464046C84706436835EEE7DC
:103E2000D0F8EC00704770B50E46B1F90E100029BD
:103E300090B014461D4607DA00232B60B3891A069A
:103E400010D44FF480630EE001AA00F0B7FD002803
:103E5000F2DB029A02F47042A2F500535A425A4130
:103E60002A60EEE740230020236010B070BD000000
:103E70008B8973B59D0706460C4607D504F14703A9
:103E8000236023610123636102B070BD01AB6A4608
:103E9000FFF7C9FF00990546304600F089F848B998
:103EA000B4F90C309A05EFD423F0030343F0020376
:103EB000A381E3E70D4BB362A389206043F0800345
:103EC000A381009B6361019B20615BB1B4F90E107B
:103ED000304600F085FD28B1A38923F0030343F0A9
:103EE0000103A381A3891D43A581CDE78D3C000873
:103EF00082B001B901A942B14BB113780B601278BD
:103F0000101C18BF012002B070471046FBE76FF08D
:103F10000100F8E738B50546002945D051F8043CC2
:103F20000C1F002BB8BFE41800F0A1FD1F4A136856
:103F3000104633B9636014602846BDE8384000F08D
:103F400097BDA3420CD921686218934204BF1A6836
:103F50005B68636004BF521822600460ECE713469C
:103F60005A680AB1A242FAD919685818A0420BD16E
:103F700020680144581882421960DDD110685268E7
:103F80005A6001441960D7E702D90C232B60D3E7AC
:103F9000206821188A4204BF11685268626004BF19
:103FA000091821605C60C7E738BD00BF74020020BB
:103FB00070B5CD1C25F0030508350C2D38BF0C2538
:103FC000002D064601DBA94203D90C2333600020F3
:103FD00070BD00F04CFD234A1468214691B9224C73
:103FE00023681BB9304600F067FC20602946304644
:103FF00000F062FC431C26D10C233360304600F0F5
:1040000037FDE4E70B685B1B1AD40B2B0FD90B6051
:10401000CD50CC18304600F02BFD04F10B00231DD1
:1040200020F00700C31A1BD05A42E25070BD8C42E8
:104030000DBF63684B686360136018BF0C46E9E707
:104040000C464968CAE7C41C24F00304A04205D00A
:10405000211A304600F030FC0130CDD02560D9E780
:1040600070BD00BF74020020780200202DE9F047E7
:104070008E689E4282460C469146984635D88A897B
:1040800012F4906F31D0256809696F1A65690223AF
:1040900005EB450595FBF3F508F101033B449D4213
:1040A00038BF1D46530531D52946FFF781FF064627
:1040B00050B90C23CAF80030A38943F04003A38110
:1040C0004FF0FF30BDE8F0873A46216900F0AAFCC6
:1040D000A38923F4906343F08003A3812661656183
:1040E0003E44ED1B2660A5604646464528BF464631
:1040F00032464946206800F0A0FCA3689B1BA360E1
:1041000023681E4426600020BDE8F0872A4600F0A0
:10411000B0FC06460028E1D121695046FFF7FAFEBF
:10412000C7E700002DE9F04F9DB0804603938B89CF
:104130001C060D4616460FD50B696BB94021FFF7DB
:1041400037FF2860286128B90C23C8F800304FF0E9
:10415000FF30C5E040236B610023099320238DF8D5
:10416000293030238DF82A304FF0010B37463C467A
:1041700014F8013B002B3CD1B7EB060A0BD0534699
:10418000324629464046FFF771FF013000F0A38018
:10419000099B534409933B78002B00F09C8000233B
:1041A0004FF0FF3204930793059206938DF8533036
:1041B0001A93052221785048FCF71AF8671C049BD3
:1041C000D8B9D90644BF20228DF853201A0744BF1E
:1041D0002B228DF8532022782A2A16D0079A002104
:1041E0000A20274601343B78303B092B51D9C9B10D
:1041F00011E0252BC0D02746B9E73F4A801A0BFAB9
:1042000000F0184304903C46D3E7039A111D12684E
:104210000391002A01DB079204E0524243F00203BB
:10422000079204933B782E2B0ED17B782A2B07F133
:10423000010132D1039B1A1D1B680392002BB8BFEA
:104240004FF0FF33023705932C4C39780322204678
:10425000FBF7CEFF38B14023001B03FA00F0049BAC
:10426000034304930137397825488DF82810062236
:104270007E1CFBF7BDFF002835D0224BFBB9039B0A
:10428000073323F0070308330393099B4B44099337
:104290006CE700FB02320121A3E7002305931846D7
:1042A0000A240F4601313A78303A092A03D9002B03
:1042B000CAD00590C8E704FB00200123F1E703AB57
:1042C00000932A46104B04A94046AFF30080B0F19A
:1042D000FF3F8146D9D1AB895B063FF538AF0998DE
:1042E0001DB0BDE8F08F03AB00932A46064B04A92E
:1042F000404600F0C1F9EAE7166700081C670008AD
:1043000020670008000000006D4000089368013B32
:10431000002B10B4936009DA9469A34202DBCBB29C
:104320000A2B03D15DF8044BFFF73EBB1368581C02
:1043300010601970C8B25DF8044B7047F8B50646B6
:104340000F461446D518AC4201D1002007E03A468A
:1043500014F8011B3046FFF7D9FF431CF3D1F8BD19
:104360002DE9F04F9DB00C4617460393064618B151
:1043700083690BB9FFF7CAFC7C4B9C4257D1746828
:10438000A38918075DD52369002B5AD00023099310
:1043900020238DF8293030238DF82A304FF0010B7F
:1043A000B846454615F8013B002B55D1B8EB070A36
:1043B0000BD053463A4621463046FFF7BFFF013047
:1043C00000F0C480099B5344099398F80030002BF7
:1043D00000F0BC8000234FF0FF3204930793059256
:1043E00006938DF853301A93052229786048FBF71D
:1043F000FFFE05F10108049B002831D1D90644BF16
:1044000020228DF853201A0744BF2B228DF8532009
:104410002A782A2A2CD0079A00210A20A84601359A
:1044200098F80030303B092B6DD971B326E0514B21
:104430009C4201D1B468A3E74F4B9C4208BFF4688B
:104440009EE721463046FFF701FB00289ED04FF043
:10445000FF301DB0BDE8F08F252BA7D0A846A0E700
:10446000434A801A0BFA00F0184304904546BBE714
:10447000039A111D12680391002A01DB079204E0E0
:10448000524243F002030792049398F800302E2B17
:1044900010D198F801302A2B08F1010137D1039B84
:1044A0001A1D1B680392002BB8BF4FF0FF3308F1B1
:1044B00002080593314D98F8001003222846FBF7B7
:1044C00097FE40B14023401B03FA00F0049B0343D6
:1044D000049308F1010898F8001029488DF8281075
:1044E000062208F10107FBF783FE002834D0254B94
:1044F00003BB039B073323F0070308330393099B94
:104500004B4409934CE700FB0232012186E700236C
:10451000059318460A258846013198F80020303A5C
:10452000092A03D9002BC5D00590C3E705FB00205D
:104530000123F0E703AB00932246134B04A9304656
:10454000AFF30080B0F1FF3F8146D8D1A3895B066D
:104550003FF57DAF09987CE703AB009322460A4BF9
:1045600004A9304600F088F8ECE700BFCC660008EC
:1045700016670008EC660008AC6600081C670008B7
:1045800020670008000000003D4300082DE9F047C7
:1045900091461F468A680B69DDF820809342B8BFB8
:1045A0001346C9F8003091F8432006460C4612B174
:1045B0000133C9F800302368990642BFD9F80030AA
:1045C0000233C9F80030256815F0060507D104F15B
:1045D000190AE368D9F800209B1A9D4229DB94F858
:1045E00043302268003318BF012392062ED404F111
:1045F000430239463046C047013021D02368E56880
:10460000D9F8002003F00603042B08BFAD1AA368F5
:1046100022690CBF25EAE57500259342C4BF9B1AA9
:10462000ED184FF000091A344D451BD10020BDE8AC
:10463000F0870123524639463046C047013003D146
:104640004FF0FF30BDE8F0870135C2E7E1185A1C92
:10465000302081F84300224494F8451082F843103A
:104660000233C4E70123224639463046C0470130B1
:10467000E6D009F10109D7E72DE9F04317460A7E94
:1046800085B06E2A984606460C460C9B01F1430EF7
:1046900000F0BC801AD8632A2ED00AD8002A00F075
:1046A000C880582A00F08A8004F1420584F842202C
:1046B0002AE0642A01D0692AF6D121681A6811F02B
:1046C000800F23D0111D1960136827E0732A00F0B2
:1046D000B48008D86F2A2AD0702AE5D10A6842F03F
:1046E00020020A6003E0752A21D0782ADCD17822E2
:1046F00084F845206E4964E01A6801F14205111DF5
:104700001960136884F842300123A3E011F0400FD0
:1047100002F104011960D7D0B2F90030002B03DA9E
:104720002D225B4284F8432062490A2217E0206868
:10473000196810F0800F03D0081D18600B6806E0A0
:1047400010F0400F01F104001860F7D00B885949B0
:104750006F2A14BF0A220822002084F843006568EB
:10476000A560002DC0F29C80206820F0040020602D
:10477000002B3FD1002D40F095807546082A0BD1C3
:104780002368DA0708D5236962689A42DEBF3023BE
:1047900005F8013C05F1FF35AEEB05032361CDF8CB
:1047A00000803B4603AA21463046FFF7EFFE01306A
:1047B00055D14FF0FF3005B0BDE8F08381F84520BA
:1047C0003C492268186812F0800F00F104051D6052
:1047D00001D0036802E05506FBD50388D00744BF2B
:1047E00042F0200222601BB9226822F020022260DF
:1047F0001022B1E77546B3FBF2F002FB1033CB5C3D
:1048000005F8013D03460028F5D1B7E708681A68A6
:10481000496910F0800F04D0101D186013681960EA
:1048200007E010F0400F02F1040018601368F6D0A2
:104830001980002323617546B1E71A68111D1960BC
:104840001568626800212846FBF7D2FC08B1401BBE
:10485000606063682361002384F843309FE7236925
:104860002A4639463046C0470130A2D023689B070C
:1048700007D5002504F11909E368039A9B1A9D42A4
:1048800005DBE068039B9842B8BF184693E7012315
:104890004A4639463046C04701308AD00135EBE7F9
:1048A000002BA7D10B7884F8423004F1420565E76C
:1048B000386700082767000838B5064C002305460E
:1048C00008462360FEF78EFE431C02D1236803B125
:1048D0002B6038BD9003002010B50C46B1F90E10C6
:1048E00000F0EEF80028ABBF636DA3891B1823F41A
:1048F0008053ACBF6365A38110BD2DE9F0411F4615
:104900008B89DB0505460C46164605D50223002299
:10491000B1F90E1000F074F8A389B4F90E1023F465
:104920008053A38132463B462846BDE8F04100F063
:1049300023B810B50C46B1F90E1000F061F8431C15
:10494000A38915BF606523F4805343F48053A3818A
:1049500018BFA38110BDB1F90E1000F01FB849B106
:10496000FF2A85BF8A2303600A704FF0FF3098BF8B
:10497000012070470846704738B5074C0546084681
:104980001146002222601A46FEF712FE431C02D195
:10499000236803B12B6038BD9003002038B5064C66
:1049A0000023054608462360FEF736FE431C02D16D
:1049B000236803B12B6038BD9003002038B5074C45
:1049C00000230546084611462360FEF728FE431CD7
:1049D00002D1236803B12B6038BD00BF90030020D3
:1049E00038B5064C0023054608462360FEF71CFE3A
:1049F000431C02D1236803B12B6038BD9003002013
:104A000038B5074C054608461146002222601A4672
:104A1000FEF70CFE431C02D1236803B12B6038BDA6
:104A20009003002010B5431E0A44914200D110BDEE
:104A300011F8014B03F8014FF7E7884210B501EB7D
:104A4000020303D8421E99420CD110BD9842F9D2FC
:104A50008118D21AD34200D110BD13F8014D01F8CC
:104A6000014DF7E711F8014B02F8014FEBE77047F2
:104A70007047F8B5074614460E4621B91146BDE801
:104A8000F840FFF795BA22B9FFF744FA25462846C1
:104A9000F8BD00F027F884420FD921463846FFF7C9
:104AA00087FA05460028F2D031462246FFF7BAFFC2
:104AB00031463846FFF72EFAE9E73546E7E70000CA
:104AC00038B5074C054608461146002222601A46B2
:104AD000FEF760FD431C02D1236803B12B6038BD93
:104AE0009003002051F8040C0028A0F10400BCBF82
:104AF0000B58C018704700002DE9F84F55EC104BCB
:104B0000C74B25F000469E42AB4618DDC54A96428B
:104B100001DC09D144B122462B4620462946FBF749
:104B2000BDFB04460D4606E0BBF1000F00F33A81E1
:104B30009FA5D5E9004545EC104BBDE8F88FBA4B71
:104B40009E4214DCA3F1DE739E420DDC9AA3D3E9EE
:104B5000002310EE100A2946FBF7A0FB0022B34BFE
:104B6000FBF7DEFF0028E6D14FF0FF3A2BE000F024
:104B7000AFF9AF4B9E4255EC104B00F3BF80A3F54D
:104B800050239E4200F3A08010EE102A10EE100A6F
:104B90002B462946FBF782FB0022A44BFBF77CFB4C
:104BA000002206460F464FF0804320462946FBF779
:104BB00075FB02460B4630463946FBF74BFE4FF07D
:104BC000000A04460D4622462B4620462946FBF79E
:104BD00017FD02460B4680468946FBF711FD78A378
:104BE000D3E9002306460F46FBF70AFD76A3D3E977
:104BF0000023FBF753FB32463B46FBF701FD74A352
:104C0000D3E90023FBF74AFB32463B46FBF7F8FCAF
:104C100071A3D3E90023FBF741FB32463B46FBF788
:104C2000EFFC6FA3D3E90023FBF738FB32463B468A
:104C3000FBF7E6FC6CA3D3E90023FBF72FFB42460E
:104C40004B46FBF7DDFC6AA3D3E900238046894687
:104C500030463946FBF7D4FC67A3D3E90023FBF7C2
:104C60001BFB32463B46FBF7CBFC65A3D3E9002395
:104C7000FBF712FB32463B46FBF7C2FC62A3D3E9CB
:104C80000023FBF709FB32463B46FBF7B9FC60A368
:104C9000D3E90023FBF700FB32463B46FBF7B0FCB1
:104CA000BAF1FF3F02460B4655D140464946FBF755
:104CB000F5FA22462B46FBF7A3FC02460B4620469C
:104CC0002946FBF7E9FA2CE710EE100A0022574BB1
:104CD0002946FBF7E1FA002206460F46534B2046D1
:104CE0002946FBF7DBFA02460B4630463946FBF70E
:104CF000B1FD4FF0010A04460D4664E74D4B9E425C
:104D00001DDC10EE100A00224B4B2946FBF7C4FABB
:104D1000002206460F46484B20462946FBF770FC0A
:104D20000022424BFBF7BAFA02460B4630463946A0
:104D3000FBF790FD4FF0020A04460D4643E72B4671
:104D400010EE102A00203D49FBF784FD4FF0030AC6
:104D500004460D4637E740464946FBF79FFA224690
:104D60002B46FBF74DFC364E364B4FEACA0A5644EB
:104D70009A44DAE90023FBF78FFA22462B46FBF729
:104D80008BFA02460B46D6E90001FBF785FABBF128
:104D9000000F04460D46BFF6CEAE01F100430446B7
:104DA0001D46C8E61CA5D5E90045C4E6AFF3008062
:104DB000182D4454FB21F9BF9C7500883CE4377ED4
:104DC00011DA22E33AAD903FEB0D76244B7BA93FFD
:104DD000513DD0A0660DB13F6E204CC5CD45B73FCB
:104DE000FF8300922449C23F0D5555555555D53F77
:104DF0002F6C6A2C44B4A2BF9AFDDE522DDEAD3F6B
:104E00006D9A74AFF2B0B33F711623FEC671BC3F0A
:104E1000C4EB98999999C93F182D4454FB21F93F47
:104E2000FFFF0F440000F07FFFFFDB3F0000F03F7B
:104E3000FFFFF23FFF7F03400000F83F0000F0BF9C
:104E400050680008706800081FB551EC100B1E4A2E
:104E500021F00043934206DC9FED191B00F064FC37
:104E600051EC100B07E0194A934209DD10EE102AAD
:104E70000B46FBF711FA41EC100B05B05DF804FB93
:104E8000684600F0ADF900F0030001289DED021B1B
:104E90009DED000B07D002280ED00028DED00120A7
:104EA00001F07AF8DCE701F077F853EC102B10EE04
:104EB000100A03F10041DEE700F036FCF5E700BF21
:104EC0000000000000000000FB21E93FFFFFEF7F32
:104ED00053EC102B23F0004343EC102B70470000E1
:104EE0001FB551EC100B204A21F00043934207DC20
:104EF0009FED1B1B002001F04FF851EC100B07E059
:104F00001A4A934209DD10EE102A0B46FBF7C4F94A
:104F100041EC100B05B05DF804FB684600F060F949
:104F200000F0030001289DED021B9DED000B04D055
:104F3000022805D070B90120DDE700F0F5FBDCE7C1
:104F4000012001F029F853EC102B10EE100A03F1A8
:104F50000041DDE700F0E8FBF5E700BFAFF30080BC
:104F60000000000000000000FB21E93FFFFFEF7F91
:104F700000F05AB82DE9F0432DED028B8BB055ECC3
:104F8000104B00F01FFB264BB0EE408AF0EE608A1B
:104F900093F90060731C2AD022462B4620462946EE
:104FA000FBF7C8FD074610BB4FF000084FF00009A3
:104FB00042464B4620462946FBF794FDB8B10123F3
:104FC0000093184B01930897CDE90445CDE90245BC
:104FD000B6B9CDE90689684601F01EF9D0B1089B43
:104FE0001BB1FEF779FB089B03609DED068BB0EECD
:104FF000480AF0EE680A0BB0BDEC028BBDE8F08306
:1050000042464B4640464946FBF724FC022ECDE97A
:105010000601E0D1FEF760FB21230360DFE700BF5C
:105020001C020020906800082DE9F84357EC116B32
:10503000734227F000423343DFF89CC151EC100B60
:1050400042EAD373634511EE108A10EE109A8E4631
:1050500007D8444221F00043044343EAD474644532
:1050600007D932463B46FBF719F941EC100BBDE876
:10507000F88307F1404404F58014344303D1BDE8BC
:10508000F843FFF739BDBC1704F0020459EA0309DD
:1050900044EAD17407D1022C30D0032CE5D13CA1D5
:1050A000D1E90001E1E758EA020806D1BEF1000F9C
:1050B0006ADA39A1D1E90001D7E7624522D19342EA
:1050C00011D1022C07D0032C09D0012C56D134A1C8
:1050D000D1E90001C9E734A1D1E90001C5E734A154
:1050E000D1E90001C1E7022C08D0032CD7D0012C54
:1050F0004FF0000046D14FF00041B6E72EA1D1E9B4
:105100000001B2E76345D1D09B1A1B153C2B1EDC76
:10511000002F01DA3C331EDB32463B46FBF79AFB9D
:1051200041EC100BFFF7D4FEFFF7E6FC51EC100B3F
:10513000012C13D0022C14D0002C96D020A3D3E93C
:105140000023FBF7A9F81CA3D3E9002313E01EA159
:10515000D1E90001ECE700200021E9E701F100417D
:1051600083E717A3D3E90023FBF796F802460B4623
:1051700011A1D1E90001FBF78FF876E714A1D1E97D
:10518000000172E7002170E70FA1D1E900016CE78F
:10519000182D4454FB2109C0182D4454FB21F9BF9C
:1051A000182D4454FB21E9BFD221337F7CD9024022
:1051B000D221337F7CD902C0182D4454FB210940F1
:1051C000075C143326A6A13C182D4454FB21F93F5B
:1051D000182D4454FB21E93F0000F07F000000003F
:1051E0002DE9F04F57EC106BC34B8DB027F0004802
:1051F00098450446049707DC0022002384ED000B49
:10520000C0E90223002527E0BC4B984575DC049BD0
:10521000BB4D002B10EE100AA9A3D3E90023394699
:1052200036DDFBF739F8A84506460F4618D0A6A389
:10523000D3E90023FBF730F802460B46C4E900230C
:1052400030463946FBF728F89FA3D3E90023FBF744
:1052500023F8C4E90201012528460DB0BDE8F08F0E
:105260009BA3D3E90023FBF717F89BA3D3E9002303
:1052700006460F46FBF710F802460B46C4E900232A
:1052800030463946FBF708F893A3D3E90023DEE75D
:10529000FBF704F8A84506460F4616D08AA3D3E9C3
:1052A0000023FAF7FBFF02460B46C4E90023304611
:1052B0003946FAF7F1FF84A3D3E90023FAF7EEFFAA
:1052C0004FF0FF35C4E90201C6E781A3D3E900230B
:1052D000FAF7E4FF80A3D3E9002306460F46FAF766
:1052E000DDFF02460B46C4E9002330463946FAF793
:1052F000D3FF79A3D3E90023E0E7824B984500F37D
:10530000D080FFF7E5FD57EC106B10EE100A74A388
:10531000D3E900233946FBF773F900227A4BFAF7F9
:10532000BDFFFBF71DFC0546FBF704F964A3D3E9B9
:105330000023CDE90201FBF763F902460B46304634
:105340003946FAF7A9FF60A3D3E9002382468B46CA
:10535000DDE90201FBF754F91F2D06460F462ADC52
:105360006A1E6A4B53F82230984524D032463B4699
:1053700050465946FAF790FFC4E90001D4E9008984
:10538000504642464B465946FAF786FF3B46324660
:10539000FAF782FF049B002BC4E90201BFF65CAF61
:1053A00009F100436360C4F80080A06001F100438C
:1053B000E3606D4250E732463B4650465946FAF7A5
:1053C0006BFF4FEA2852C1F30A53D31A102BC4E9DA
:1053D00000010592D2DD3EA3D3E90023DDE90201FD
:1053E000FBF70EF906460F4602460B465046594655
:1053F000FAF752FF02460B46804689465046594608
:10540000FAF74AFF32463B46FAF746FF32A3D3E9A2
:10541000002306460F46DDE90201FBF7F1F83246AC
:105420003B46FAF739FF02460B4606460F46404612
:105430004946FAF731FF059AC1F30A53D31A312BC3
:10544000C4E900012ADD28A3D3E90023DDE9020134
:10545000FBF7D6F806460F4602460B46404649463D
:10546000FAF71AFF02460B4682468B4640464946EB
:10547000FAF712FF32463B46FAF70EFF1CA3D3E9B8
:10548000002306460F46DDE90201FBF7B9F8324674
:105490003B46FAF701FF06460F4667E7C246CB4692
:1054A0006CE71B4B984535DD10EE102A3B46304625
:1054B0003946FAF7F1FEC4E90201C4E90001A1E6A8
:1054C00000004054FB21F93F3163621A61B4D03DC2
:1054D0000000601A61B4D03D7370032E8A19A33B9B
:1054E00083C8C96D305FE43F0000002E8A19A33BDA
:1054F000C14920259A837B39FB21E93F7BD90240B2
:10550000FB21F93FFB2139410000E03F986800088A
:10551000FFFFEF7F4FEA2855A5F21645A8EB05518E
:1055200030460F46FBF71CFBFBF704F802460B4620
:1055300030463946CDE90623FAF7AEFE00221F4B6E
:10554000FBF75EF80F460646FBF70AFBFAF7F2FF99
:1055500002460B4630463946CDE90823FAF79CFE51
:105560000022164BFBF74CF8CDE90A010DF130098A
:105570004FF003080026002732463B4679E9020136
:1055800008F1FF3AFBF7A4FAB0B90D4B01930223DF
:1055900000932A464346214606A800F0ADF9049B35
:1055A000002B0546BFF658AE636803F10043636005
:1055B000E36803F10043FBE6D046DDE700007041FD
:1055C000186900082DE9F04155EC104B544EAE43DC
:1055D00010EE100A2B462A46214613D110EE102A4F
:1055E0002B4610EE100A2946FBF70AF802460B4636
:1055F00020462946FAF752FE04460D4645EC104B6C
:10560000BDE8F081002D10DC25F000463043F5D0D8
:105610005DB110EE102A2B4620462946FAF73CFED3
:1056200002460B46FBF716F9E6E71B150CD1002ADC
:105630006DD00020D6026ED5441E1B1BC0F1200485
:1056400021FA04F422438140A3F2FF33C2F3130290
:10565000DD0742F4801242BF520002EBD1724900D2
:105660005810002502EBD1731A44490016232C462A
:105670004FF40016A7199742DEBFD21BBC19AD1913
:105680005200013B02EBD1724FEA56064FEA41014C
:10569000F0D14FF0200E9C464FF00046A24206EBA0
:1056A0000C0702DC12D18F4210D8002F07EB060C3A
:1056B00034DABCF1000F31DB04F10108121B8F4218
:1056C00088BF02F1FF32C91B3344444602EBD17755
:1056D000BEF1010E3A444FEA41014FEA5606DDD1D0
:1056E0000A4306D05C1C13BF01330135734623F017
:1056F00001036A105B08E90702F17F5202F500120C
:1057000048BF43F0004302EB00551C4676E7CA0A47
:10571000153B49058BE7520001308BE7A046CDE7EA
:105720000000F07F000000002DE9F04F59EC108BD5
:1057300029F0004785B0B7F1795F8DED001B07DADE
:1057400010EE100A4946FBF70BFA002800F0AA8079
:1057500042464B4640464946FAF752FF59A3D3E921
:10576000002304460D46FAF74BFF58A3D3E9002364
:10577000FAF794FD22462B46FAF742FF55A3D3E9E8
:105780000023FAF789FD22462B46FAF739FF53A387
:10579000D3E90023FAF782FD22462B46FAF730FFC1
:1057A00050A3D3E90023FAF777FD22462B46FAF7F8
:1057B00027FF4EA3D3E90023FAF770FD2B462246BC
:1057C000FAF71EFF3A4B9F4282468B462CDC0022A2
:1057D000384B20462946FAF713FF524606460F4635
:1057E0005B4620462946FAF70BFFDDE90023044615
:1057F0000D4640464946FAF703FF02460B4620464F
:105800002946FAF749FD02460B4630463946FAF773
:1058100043FD0B46284902460020FAF73DFD41ECC6
:10582000100B05B0BDE8F08F244B23499F42D7BF32
:10583000A7F50013224F00221646D4BF1F460026AC
:1058400032463B460020FAF727FD0022CDE902014F
:10585000184B20462946FAF7D3FE32463B46FAF764
:105860001BFD524606460F465B4620462946FAF780
:10587000C7FEDDE9002304460D4640464946FAF7D7
:10588000BFFE02460B4620462946FAF705FD0246B2
:105890000B4630463946FAF7FFFC02460B46DDE977
:1058A0000201BAE700200449B9E700BFAFF3008066
:1058B0003233D33F0000E03F0000F03F0000E93FFB
:1058C0000000D23FD43888BEE9FAA8BDC4B1B4BD47
:1058D0009EEE213EAD529C804F7E923E9015CB199C
:1058E000A001FA3E7751C1166CC1563F4C55555533
:1058F0005555A53F000000002DE9F04F2DED028B1E
:10590000ADF5197DD41E06930291C34BA49909905D
:1059100053F821300093069B013B0493182394FB1A
:10592000F3F46FF0170324EAE47404FB033303EB8E
:10593000020A009B049A9FEDB48B03EB0208A59B1F
:10594000A71A20AE03EB87090025454513DD9FED1F
:10595000AE8B0DF5E07B0026009B9E4232DC099B5E
:105960000393069B9D1920AB03EBC503089359ECE9
:10597000188B00271FE0EF4207D459F82500FAF7EB
:10598000D9FDE6E802010135DFE751EC180BF8E735
:105990000899039D71E902230891F5E80201039536
:1059A000FAF72EFE02460B4640464946FAF776FCC9
:1059B000013780468946049B9F42E9DDEBE8028976
:1059C0000136C9E7009B009F0CAA02EB83030B93EF
:1059D000A59B03EB84030A9398AB07F1005B03EBF1
:1059E000C7030BF1FF3B53E928894FEACB03089328
:1059F000089A98AB1344A3F1980B0026BB1B002B0D
:105A000077DC49EC108B504600F00AFC55EC104B4B
:105A100000224FF07F5310EE100A2946FAF7F0FDEE
:105A200041EC100B00F074FB002251EC100B7B4B8F
:105A3000FAF7E6FD02460B4620462946FAF72CFC0B
:105A40000D460446FBF78CF80390FAF773FD024607
:105A50000B4620462946FAF71FFCBAF1000F804694
:105A600089466BDD7A1E0CABCAF1180153F822008F
:105A7000039C40FA01F31C448B40C01A0CAB039406
:105A800043F82200CAF1170340FA03FBBBF1000FF1
:105A900062DD039B00220133039314466FF07F41C4
:105AA000974200F38980BAF1000F07DDBAF1010FC8
:105AB00000F09680BAF1020F00F09C80BBF1020F5B
:105AC0004AD142464B4600205549FAF7E5FB80464D
:105AD0008946002C40D050469FED4D0B00F0A0FBB6
