:020000040800F2
:1000000000000220F12200084522000847220008D3
:10001000492200084B2200084D2200080000000081
:100020000000000000000000000000004F22000857
:100030005122000800000000532200085522000849
:100040004123000841230008412300084123000800
:1000500041230008412300084123000841230008F0
:1000600041230008412300084123000841230008E0
:1000700041230008412300084123000841230008D0
:10008000412300084123000841230008000000002C
:1000900000000000000000000000000041230008F4
:1000A00041230008412300084123000841230008A0
:1000B0005922000841230008652200084123000856
:1000C0004123000841230008412300084123000880
:1000D00041230008412300084123000800000000DC
:1000E00041230008412300084123000800000000CC
:1000F0000000000000000000000000004123000894
:1001000000000000412300084123000841230008AB
:1001100000000000000000000000000000000000DF
:10012000412300084123000841230008412300081F
:100130004123000800000000000000000000000053
:100140000000000000000000000000004123000843
:1001500041230008412300084123000841230008EF
:1001600041230008412300080000000000000000B7
:10017000000000000000000000000000000000007F
:100180000000000041230008000000000000000003
:0801900041230008412300088F
:1001A00010B5054C237833B9044B13B10448AFF3B1
:1001B00000800123237010BDE40100200000000036
:1001C000582D000808B5034B1BB103490348AFF392
:1001D000008008BD00000000E8010020582D000844
:1001E000034613F8012B002AFBD1181A0138704777
:1001F00001F0FF01102A2BDB10F0070F08D010F8D8
:10020000013B013A8B422DD010F0070F42B3F6D1DB
:10021000F0B441EA012141EA014122F007047FF0F4
:1002200000070023F0E80256083C85EA010586EA4B
:10023000010685FA47F5A3FA87F586FA47F6A5FA87
:1002400087F68EB9EED1F0BC01F0FF0102F0070293
:1002500032B110F8013B013A83EA010313B1F8D13E
:100260000020704701387047002D06BF354603381F
:10027000073815F0010F07D1013015F4807F02BF58
:10028000013015F4C03F0130F0BC0138704700BFA9
:1002900053B94AB9002908BF00281CBF4FF0FF31ED
:1002A0004FF0FF3000F07AB9ADF1080C6DE904CEE3
:1002B00000F006F8DDF804E0DDE9022304B0704741
:1002C0002DE9F0478C460D460446089E002B51D17F
:1002D0008A4217466DD9B2FA82FEBEF1000F0BD0EA
:1002E000CEF1200C01FA0EF520FA0CFC02FA0EF702
:1002F0004CEA050C00FA0EF44FEA174A250CBCFB39
:10030000FAF81FFA87F90AFB18CC45EA0C4508FBF6
:1003100009F3AB420AD9ED1908F1FF3280F02381CD
:10032000AB4240F22081A8F102083D44ED1AA4B28C
:10033000B5FBFAF00AFB105544EA054400FB09F945
:10034000A14509D9E41900F1FF3380F00A81A145E4
:1003500040F2078102383C44A4EB090440EA08401B
:100360000021002E61D024FA0EF400233460736063
:10037000BDE8F0878B4207D9002E54D0002186E8D3
:1003800021000846BDE8F087B3FA83F1002940F068
:100390008E80AB4202D3824200F2FA80841A65EB6F
:1003A00003050120AC46002E3FD086E81010BDE8C2
:1003B000F08712B90127B7FBF2F7B7FA87FEBEF153
:1003C000000F34D1EB1B3A0C1FFA87FC0121B3FB61
:1003D000F2F8250C02FB183345EA03450CFB08F341
:1003E000AB4207D9ED1908F1FF3002D2AB4200F25F
:1003F000D1808046ED1AA3B2B5FBF2F002FB105596
:1004000043EA05440CFB00FCA44507D9E41900F1BC
:10041000FF3302D2A44500F2B8801846A4EB0C04C6
:1004200040EA08409DE731463046BDE8F087CEF10E
:10043000200405FA0EF307FA0EF720FA04F83A0C36
:1004400025FA04F448EA0308B4FBF2F14FEA184530
:1004500002FB11441FFA87FC45EA044501FB0CF33B
:10046000AB4200FA0EF409D9ED1901F1FF3080F02A
:100470008A80AB4240F2878002393D44EB1A1FFA72
:1004800088F5B3FBF2F002FB103345EA034500FBAD
:100490000CF3AB4207D9ED1900F1FF386FD2AB4234
:1004A0006DD902383D44EB1A40EA01418FE7C1F1B2
:1004B000200722FA07F88B4005FA01F448EA030303
:1004C00020FA07FE4FEA134CFD404EEA040EB5FB3E
:1004D000FCF94FEA1E440CFB19551FFA83F844EA55
:1004E000054509FB08F4AC4202FA01F200FA01FAF0
:1004F00008D9ED1809F1FF3043D2AC4241D9A9F136
:1005000002091D442D1B1FFA8EFEB5FBFCF00CFBEF
:1005100010554EEA054400FB08F8A04507D9E41839
:1005200000F1FF3529D2A04527D902381C4440EA02
:100530000940A4EB0804A0FB02894C45C6464D4681
:1005400015D312D056B1BAEB0E0364EB050404FACE
:1005500007F7CB401F43CC40376074600021BDE8F3
:10056000F0871846F8E69046E0E6C245EAD2B8EBD6
:10057000020E69EB03050138E4E72846D7E7404659
:1005800091E78146BEE7014678E702383C4445E7FB
:10059000084608E7A8F102083D442BE7704700BF72
:1005A00038B50E4A0E4B054618784FF47A73B3FBF4
:1005B000F0F31068B0FBF3F000F096F8044658B979
:1005C0000F2D09D8024629464FF0FF3000F04AF8B7
:1005D000044B20461D6038BD012038BD10000020AE
:1005E000000000200400002008B50B4B1A6842F4FC
:1005F00000721A601A6842F480621A601A6842F443
:1006000080721A60032000F01BF80020FFF7C8FF7B
:1006100001F026FD002008BD003C0240034A044BC7
:1006200011681B780B441360704700BF480200201C
:1006300000000020014B1868704700BF48020020EE
:10064000074AD36823F4E0631B041B0C43F0BF6329
:10065000000243F4003300F4E0600343D3607047CA
:1006600000ED00E0174B30B5DC68C4F30224C4F1A0
:100670000703251D042B28BF0423062D4FF0010579
:1006800005FA03F303F1FF338CBF033C0024194048
:10069000A14005FA04F4013C2240002842EA01028C
:1006A0004FEA0212ADBF00F1604000F00F00064BB0
:1006B00000F56140B5BFD2B2D2B21A5480F800231F
:1006C00030BD00BF00ED00E014ED00E0002808DBC5
:1006D0004209012300F01F0003FA00F0014B43F828
:1006E0002200704700E100E00138B0F1807F0AD2BB
:1006F000064B074A5860F02182F823100020072299
:1007000098601A6070470120704700BF10E000E059
:1007100000ED00E02DE9F04F85B00B68DFF89C811B
:10072000644A01934FF001090023019C09FA03F781
:1007300007EA0406B74240F0AD804C6824F0100A86
:10074000BAF1020F16D14FEAD30C00EB8C0C03F078
:10075000070BDCF820504FEA8B0B4FF00F0E0EFA10
:100760000BFE25EA0E0E0D6905FA0BF545EA0E059E
:10077000CCF820504FEA430C0325D0F800B005FA1E
:100780000CF5ED4304F0030E0BEA050B0EFA0CFE1C
:100790000AF1FF3A4EEA0B0EBAF1010F0095C0F8CC
:1007A00000E015D8D0F808E005EA0E0ECD6805FA8D
:1007B0000CFA4AEA0E0EC0F808E0D0F804E02EEA7F
:1007C0000707C4F3001E0EFA03FE4EEA0707476050
:1007D000C768009D3D408F6807FA0CF73D43C56030
:1007E000E50057D54FF0000BCDF80CB0D8F84470A9
:1007F000314D47F48047C8F84470D8F8447007F486
:1008000080470397039F23F0030707F1804707F50D
:100810009C3703F0030CD7F808A04FEA8C0C4FF07C
:100820000F0E0EFA0CFEA8422AEA0E0E39D005F57C
:100830008065A84237D005F58065A84235D005F51A
:100840008065A84233D005F58065A84214BF07250E
:10085000042505FA0CF545EA0E05BD601568F74359
:1008600014F4803F0CBF3D4035431560556814F4C7
:10087000003F0CBF3D4035435560956814F4801F20
:100880000CBF3D4035439560D568A40254BF3D4040
:100890003543D5600133102B7FF447AF05B0BDE879
:1008A000F08F5D46D5E70125D3E70225D1E7032583
:1008B000CFE700BF003C014000000240003802408A
:1008C0000AB1816170470904FBE7436931EA030318
:1008D00008BF0904816170472DE9F341044618B946
:1008E000012002B0BDE8F0810368DD0710D4236861
:1008F000980758D423681A0700F19A8023685B0789
:1009000000F1B880A269002A40F019810020E8E7D0
:10091000A64B9A6802F00C02042A07D09A6802F0EB
:100920000C02082A0AD15B68590207D59F4B1B6845
:100930009A03DCD56368002BD9D1D1E763689B4D5E
:10094000B3F5803F11D12B6843F480332B60FFF760
:1009500071FE964D06462B689B03C8D4FFF76AFECE
:10096000801B6428F7D90320BBE7B3F5A02F04D17F
:100970002B6843F480232B60E5E72A6822F4803259
:100980002A602A6822F480222A60002BDFD1FFF738
:1009900051FE06462B689F03A9D5FFF74BFE801B2F
:1009A0006428F7D9DFE7814B9A6812F00C0F07D063
:1009B0009A6802F00C02082A11D15B685E020ED41C
:1009C0007A4B1A68950702D5E268012A88D11A681D
:1009D000216922F0F80242EAC1021A608AE7E2685D
:1009E000734BB2B101221A60FFF724FE6F4D064629
:1009F0002B68980707D52B68226923F0F80343EA90
:100A0000C2032B6076E7FFF715FE801B0228EFD9A3
:100A1000A9E71A60FFF70EFE644D06462B6899079A
:100A20007FF568AFFFF706FE801B0228F6D99AE72C
:100A30006269604B7AB101221A60FFF7FBFD5B4DE2
:100A400006466B6F9F073FF559AFFFF7F3FD801B1D
:100A50000228F6D987E71A60FFF7ECFD534D0646EA
:100A60006B6F98077FF54AAFFFF7E4FD801B022804
:100A7000F6D978E74D4B1A6C12F0805228D10192CA
:100A80001A6C42F080521A641B6C03F0805301937D
:100A9000019B0126484D2B68D9051BD5A368434D02
:100AA000012B27D12B6F43F001032B67FFF7C2FD0A
:100AB0003E4D074641F288382B6F9B0739D5002EF3
:100AC0003FF420AF394A136C23F08053136419E7C5
:100AD0000026DFE72B6843F480732B60FFF7AAFD45
:100AE00007462B68DA05D9D4FFF7A4FDC01B0228FE
:100AF000F7D938E7052B04D12B6F43F004032B679C
:100B0000D0E72A6F22F001022A672A6F22F004023E
:100B10002A67002BCAD1FFF78DFD41F288380746BE
:100B20002B6F9807CBD5FFF785FDC01B4045F7D944
:100B300019E7FFF77FFDC01B4045BDD913E71B4DEB
:100B4000AB6803F00C03082B3FF4CAAE1B4E002326
:100B5000022A336034D1FFF76DFD07462B689901F7
:100B60001ED4226AE3691343626A43EA8213E26A8B
:100B700043EA0263A26A0D4C5208013A43EA024377
:100B80006B6001233360FFF755FD054623689A012A
:100B90003FF5BCAEFFF74EFD401B0228F6D9E2E65A
:100BA000FFF748FDC01B0228D8D9DCE60038024018
:100BB00000004742800E47420070004060004742FC
:100BC000FFF738FD04462B689B017FF59FAEFFF7CA
:100BD00031FD001B0228F6D9C5E600BF134908B550
:100BE0008B6803F00C03042B03D0082B03D01048B0
:100BF00008BD104808BD4A684B68496813F4800373
:100C000014BF0C480A48C1F3881118BF002302F032
:100C10003F02A1FB0001FFF73BFB044B5B68C3F302
:100C2000014301335B00B0FBF3F008BD0038024024
:100C30000024F40000127A002DE9F0410D4604462C
:100C400010B90120BDE8F081444B1A6802F00F0290
:100C50008A4228D321688F072DD4C80740D43F4B40
:100C60001A6802F00F02954266D3226851076CD4CD
:100C7000130707D53A4A2169936823F4604343EA8E
:100C8000C1039360FFF7AAFF354B364A9B68C3F355
:100C90000313D35CD840344B18600020FFF780FC6E
:100CA0000020BDE8F081CAB21A701B6803F00F0380
:100CB0009942C6D1CEE72A4B11F0040F1EBF9A68A5
:100CC00042F4E0529A600E0742BF9A6842F46042D2
:100CD0009A609A68A06822F0F00202439A60BCE72A
:100CE00062681F4B012A1DD11B6813F4003FA8D076
:100CF0001B4EB36823F003031343B360FFF79AFC62
:100D000041F288380746B368626803F00C03B3EB1E
:100D1000820FA4D0FFF78EFCC01B4045F3D90320FF
:100D2000BDE8F081911E01291B6802D813F0007FF5
:100D3000DDE713F0020FDAE7EAB21A701B6803F07E
:100D40000F039D427FF47DAF8FE70549E0688B6814
:100D500023F4E05303438B608AE700BF003C02406A
:100D600000380240FE2E000810000020044B054A07
:100D70009B68C3F38223D35C034A1068D840704752
:100D8000003802400E2F000810000020044B054AD6
:100D90009B68C3F34233D35C034A1068D840704762
:100DA000003802400E2F000810000020036A23F0D4
:100DB00001030362036A70B5446882690D6822F01A
:100DC00073022A438D6823F002032B430A4DA84285
:100DD0000BD1CD688E6923F008032B434D6924F4B1
:100DE0004074354323F004032C43446082614A6815
:100DF0004263036270BD00BF00000140036A23F438
:100E000080730362036A70B54468C2690D6822F09A
:100E100073022A438D6823F4007343EA05230B4DC4
:100E2000A8420DD1CD688E6923F4006343EA0523FF
:100E30004D6924F44054354323F4806344EA051497
:100E40004460C2614A68C263036270BD0000014031
:100E5000036A23F480530362036A30B54468C269AD
:100E60000D6822F4E64242EA05228D6823F400531D
:100E700043EA0533064DA84202BF4D6924F480447D
:100E800044EA85144460C2614A680264036230BD6A
:100E90000000014070477047704703681A69910766
:100EA00010B504460ED5DA6892070BD56FF0020232
:100EB0001A619B6901229B07027777D000F0C4FD7D
:100EC0000023237723681A69500710D5DA68510781
:100ED0000DD56FF004021A619B69022213F4407F62
:100EE0002277204668D000F0AFFD002323772368E7
:100EF0001A6912070FD5DA6810070CD56FF00802CF
:100F00001A61DB6904229907227720465AD000F043
:100F10009BFD0023237723681A69D20610D5DA686F
:100F2000D0060DD56FF010021A61DB69082213F4A8
:100F3000407F227720464BD000F086FD00232377A8
:100F400023681A69D10708D5DA68D20705D56FF08A
:100F500001021A612046FFF79DFF23681A691006F7
:100F600008D5DA68110605D56FF080021A612046AF
:100F700000F0FEFA23681A69520608D5DA685006AE
:100F800005D56FF040021A612046FFF785FF236800
:100F90001A69910622D5DA6892061FD56FF02002F1
:100FA00020461A61BDE8104000F0E1BA00F0EAFF07
:100FB0002046FFF770FF83E700F0E4FF2046FFF7CD
:100FC0006AFF92E700F0DEFF2046FFF764FFA0E72C
:100FD00000F0D8FF2046FFF75EFFAFE710BD00002E
:100FE000244A036890420ED0B0F1804F0BD0A2F596
:100FF0007C42904207D002F58062904203D002F515
:101000008062904215D14A6823F070031343194A55
:10101000904219D0B0F1804F16D0A2F57C42904298
:1010200012D002F5806290420ED002F580629042AA
:101030000AD0114A904207D002F58062904203D054
:1010400002F58062904203D1CA6823F440731343CF
:101050004A6923F08003134303608B68C3620B6803
:101060008362044B984204BF0B690363012343610D
:10107000704700BF000001400040014010B5044629
:10108000A0B190F83D3003F0FF021BB980F83C207E
:1010900001F058F8022384F83D302068211DFFF745
:1010A0009FFF012384F83D30002010BD012010BDBA
:1010B00010B50446A0B190F83D3003F0FF021BB913
:1010C00080F83C2001F026F8022384F83D302068A7
:1010D000211DFFF785FF012384F83D30002010BD5E
:1010E000012010BD10B50446A0B190F83D3003F0CA
:1010F000FF021BB980F83C2000F0D2FF022384F8E5
:101100003D302068211DFFF76BFF012384F83D303F
:10111000002010BD012010BD036A23F010030362FC
:10112000036A70B5446882690D6822F4E64242EAB7
:1011300005228D6823F0200343EA05130B4DA842D6
:101140000DD1CD688E6923F0800343EA05134D6904
:1011500024F44064354323F0400344EA85044460AA
:1011600082614A688263036270BD00BF0000014073
:1011700038B590F83C30012B04464FF0020018D0EF
:10118000012384F83C3084F83D001D460C2A0BD81E
:10119000DFE802F0070A0A0A100A0A0A140A0A0A11
:1011A00018002068FFF702FE002084F83D5084F804
:1011B0003C0038BD2068FFF7AFFFF5E72068FFF778
:1011C0001DFEF1E72068FFF743FEEDE738B590F824
:1011D0003C30012B04464FF0020025D0012384F857
:1011E0003C3084F83D000C2A18D8DFE802F00717DD
:1011F00017171E1717172F17171740002068FFF72C
:10120000D5FD236809699A6942F008029A619A69D2
:1012100022F004029A619A690A439A61012300202C
:1012200084F83D3084F83C0038BD2068FFF774FF37
:10123000236809699A6942F400629A619A6922F402
:1012400080629A619A6942EA0122E6E72068FFF724
:10125000D5FD23680969DA6942F00802DA61DA69C2
:1012600022F00402DA61DA690A43DA61D6E720681B
:10127000FFF7EEFD23680969DA6942F40062DA617A
:10128000DA6922F48062DA61DA6942EA0122ECE783
:1012900070B5046A164E24F001040462B0428469F9
:1012A000056A12D0B0F1804F0FD0A6F57C46B0424F
:1012B0000BD006F58066B04207D006F58066B042D6
:1012C00003D006F59A36B0420FD124F0030422432E
:1012D0001B0122F0F002DBB225F00A0501F00A0141
:1012E0001A4329438261016270BD44F00102EFE7B5
:1012F00000000140F8B590F83C30012B04460D4643
:101300004FF0020019D0012384F83C3084F83D00EE
:10131000A2B9CB68206806C9FFF7BAFF2368A9689D
:101320009A6922F00C029A619A690A439A61012330
:10133000002084F83D3084F83C00F8BD042A8E6813
:101340002368E86882C91FD11A6A22F010021A6263
:101350009A691D6A22F4407242EA0722000380B2B1
:1013600022F470420901024301F0A00125F0A0001F
:1013700001439A6119629A6922F440629A619A69FA
:1013800042EA06269E61D2E7082A1A6A1CD122F494
:1013900080721A62DA691D6A22F003023A43000180
:1013A000C0B222F0F0020902024301F4206125F4E8
:1013B00020600143DA611962DA6922F00C02DA6115
:1013C000DA691643DE61B2E722F480521A62DA6902
:1013D0001D6A22F4407242EA0722000322F470429E
:1013E00080B20903104301F4204125F42042114347
:1013F000D8611962DA6922F44062DA61DA6942EA94
:101400000626DFE7036A01F01F0110B501248C40B6
:1014100023EA04030362036A8A401A43026210BD8E
:1014200010B5044601220068FFF7ECFF2368094A63
:10143000934202BF5A6C42F400425A649A6802F026
:101440000702062A1EBF1A6842F001021A60002035
:1014500010BD00BF0000014010B504460C290DD896
:10146000DFE801F0070C0C0C230C0C0C280C0C0C06
:101470002D000268D36843F00203D3602068012284
:10148000FFF7C0FF2368104A934202BF5A6C42F430
:1014900000425A649A6802F00702062A1EBF1A68C0
:1014A00042F001021A60002010BD0268D36843F0C8
:1014B0000403E2E70268D36843F00803DDE702684B
:1014C000D36843F01003D8E700000140FFF7C4BF22
:1014D00010B504460C290DD8DFE801F0070C0C0C00
:1014E0001C0C0C0C210C0C0C26000268D36843F079
:1014F0000203D36020680122FFF784FF23689A6803
:1015000002F00702062A1EBF1A6842F001021A60A2
:10151000002010BD0268D36843F00403E9E70268C5
:10152000D36843F00803E4E70268D36843F010038C
:10153000DFE790F83C30012B30B54FF0020314D0B8
:10154000046880F83D306268A3680D68496822F03D
:10155000700223F080030B432A436260A3600123DF
:1015600080F83D30002380F83C30184630BD70478D
:10157000704700002DE9F0470668C2683369C16909
:1015800023F4405313433361044683680069F268CF
:101590000343606922F41642034322F00C020B431A
:1015A0001343F3607369A26923F440731343B1F5E5
:1015B000004F73617A4B7CD19E4203D003F5806368
:1015C0009E4244D1FFF7E2FB192505FB00F360685A
:1015D0004FF064094000B3FBF0F3B3FBF9F34FEABB
:1015E0000318FFF7D3FB636868435B00B0FBF3F7B6
:1015F000FFF7CCFB636868435B00B0FBF3F3B3FB1E
:10160000F9F309FB1373DB003233B3FBF9F35B002F
:1016100003F4F877FFF7BAFB626868435200B0FB47
:10162000F2FAFFF7B3FB636868435B00B0FBF3F3C8
:10163000B3FBF9F309FB13A3DB003233B3FBF9F37C
:1016400003F0070343443B44B360BDE8F087FFF772
:101650008DFB192505FB00F360684FF0640940001D
:10166000B3FBF0F3B3FBF9F34FEA0318FFF77EFB8C
:10167000636868435B00B0FBF3F7FFF777FB6368D1
:1016800068435B00B0FBF3F3B3FBF9F309FB13739F
:10169000DB003233B3FBF9F35B0003F4F877FFF7B9
:1016A00065FB626868435200B0FBF2FAFFF75EFB2D
:1016B000B9E79E4202D03B4B9E4240D1FFF766FB0A
:1016C000676819254FF0640905FB00F3BF00B3FB01
:1016D000F7F3B3FBF9F31F01FFF758FB63686843A7
:1016E0009B00B0FBF3F8FFF751FB636868439B0076
:1016F000B0FBF3F3B3FBF9F309FB13831B013233A4
:10170000B3FBF9F303F0F008FFF740FB62686843AE
:101710009200B0FBF2FAFFF739FB636868439B0065
:10172000B0FBF3F3B3FBF9F309FB13A31B01323353
:10173000B3FBF9F303F00F0343EA080383E7FFF772
:1017400015FB676819254FF0640905FB00F3BF001E
:10175000B3FBF7F3B3FBF9F31F01FFF707FB636874
:1017600068439B00B0FBF3F8FFF700FB6368684336
:101770009B00B0FBF3F3B3FBF9F309FB13831B01ED
:101780003233B3FBF9F303F0F008FFF7EFFA6268C6
:1017900068439200B0FBF2FAFFF7E8FABDE700BF3A
:1017A0000010014000140140F8B504460E461746EB
:1017B0001D4621680B6836EA030301D10020F8BDFD
:1017C0006B1CF7D095B92368DA6822F4D072DA601E
:1017D0005A6922F001025A61202384F8393084F8D2
:1017E0003A30002384F838300320F8BDFEF722FF9A
:1017F000C01B8542DDD2E6E710B5044640B390F841
:10180000393003F0FF021BB980F8382000F0E2FC09
:101810002268242384F83930D36823F40053D3603A
:101820002046FFF7A7FE23681A6922F490421A6146
:101830005A6922F02A025A61DA6842F40052DA60E8
:1018400000202023E06384F8393084F83A3010BD5A
:10185000012010BD2DE9F0411F4690F83930202BB2
:1018600004460D4690464FD100294AD0002A48D060
:1018700090F83830012B47D0012380F8383000230E
:10188000C363212380F83930FEF7D4FEA4F8248006
:101890000646A4F82680E38C9BB26BB93B463246E1
:1018A00040212046FFF780FFB0B9202384F839306B
:1018B00084F83800BDE8F081E38C013B9BB2E384FF
:1018C000A368B3F5805F32463B464FF08001204667
:1018D0000ED1FFF769FF10B10320BDE8F0812B881E
:1018E0002268C3F308035360236943B90235D2E782
:1018F000FFF75AFF0028EFD123682A785A60013594
:10190000C9E70120BDE8F0810220BDE8F0812DE9A2
:10191000F0411F4690F83A30202B04460D46904681
:1019200052D100294DD0002A4BD090F83830012BED
:101930004AD0012380F838300023C363222380F883
:101940003A30FEF777FEA4F82C800646A4F82E80E5
:10195000E08D80B230B9202384F83A3084F8380022
:10196000BDE8F081E38D013B9BB2E385A368B3F54D
:10197000805F32463B464FF02001204612D1FFF7F0
:1019800013FF10B10320BDE8F081236822695B6872
:1019900022B9C3F3080325F8023BD9E7DBB225F8E7
:1019A000013BD5E7FFF700FF0028EBD12368216951
:1019B0005B686A1C11B92B701546C9E703F07F03F9
:1019C000F9E70120BDE8F0810220BDE8F0810000C8
:1019D00030B595B03022002108A800F0E1FC0021CC
:1019E000142203A800F0DCFC0024154B01941A6CAF
:1019F00042F080521A641B6C03F080530193019BE8
:101A0000104B02941A6842F440421A601B680E940C
:101A100003F440430293029B01254FF4A02308A83E
:101A200009930895FEF758FF0F23214603A8039357
:101A30000495059406940794FFF7FEF815B030BDA1
:101A400000380240007000400368B3F1804F06D1B7
:101A5000037F012B04D1044A1368013313607047DC
:101A6000022BFCD1014AF7E70C02002010020020F3
:101A700010B50F4C0F494FF0FF3306222046FFF7F9
:101A8000E9FE4FF0FF3304220B492046FFF7E2FE48
:101A90004FF0FF332A2209492046FFF7DBFE20469C
:101AA0004FF0FF3376220649BDE81040FFF7D2BE63
:101AB0000C030020D42D0008DB2D0008E02D0008C9
:101AC0000B2E000813B50A4C0A494FF0FF330422CD
:101AD0002046FFF7BFFE4FF0FF33012201A9204649
:101AE000FFF715FF01A800F02CFC02B010BD00BFED
:101AF0000C030020F92E000870B5614BADF5307D68
:101B0000044601AA03F1180618685968154603C56A
:101B10000833B3422A46F7D11B882B804A22002182
:101B20000DF11E0000F03CFC631E022B00F2A480AD
:101B3000224654491AA800F03BFC1AA8FEF750FBB5
:101B40004FF0FF3382B21AA94F48FFF783FE022CF1
:101B500030D0032C00F0928001A8FEF741FB4FF03B
:101B6000FF3382B201A94848FFF774FE4FF0FF33FC
:101B7000032297A94448FFF7CAFE4FF0FF33032220
:101B800097A94148FFF766FE97A800F0DAFB80EAC4
:101B9000E073A3EBE0733C2B3C4990FBF3F03C4A31
:101BA000C8BF3C230B603B4B1060012018600DF553
:101BB000307D70BD384B39491A681AA800F0F8FB1F
:101BC000324B37491A6833A800F0F2FB354B3649DF
:101BD0001A684CA800F0ECFB344B35491A6865A82C
:101BE00000F0E6FB334B34491A687EA800F0E0FBB6
:101BF000324B33491A6897A800F0DAFB1AA8FEF7AF
:101C0000EFFA4FF0FF3382B21AA91F48FFF722FE06
:101C100033A8FEF7E5FA4FF0FF3382B233A91A4832
:101C2000FFF718FE4CA8FEF7DBFA4FF0FF3382B245
:101C30004CA91548FFF70EFE65A8FEF7D1FA4FF044
:101C4000FF3382B265A91048FFF704FE7EA8FEF7B5
:101C5000C7FA4FF0FF3382B27EA90B48FFF7FAFDB7
:101C600097A8FEF7BDFA4FF0FF3382B297A9064856
:101C7000FFF7F0FD01209AE7002098E7022096E7A1
:101C8000702D0008DB2E00080C0300202C02002021
:101C9000080000200802002014020020822E000804
:101CA0009E2E000824020020B32E000834020020DB
:101CB000C42E000800020020D02E00081C020020C4
:101CC000DF2E00082DE9F0438FB0FEF78DFCFFF703
:101CD0007FFE1422002107A8002400F061FB814B45
:101CE00001941A6B8048814D814F42F004021A63BF
:101CF0001A6B02F004020192019A02941A6B42F0EC
:101D000080021A631A6B02F080020292029A039414
:101D10001A6B42F001021A631A6B02F0010203927D
:101D2000039A04941A6B42F002021A631B6B03F0CD
:101D30000203049322464FF40871049BFEF7C0FD92
:101D4000224680216B48FEF7BBFD4FF400530793FA
:101D500007A9694B674808934FF001080994FEF7FB
:101D6000D9FC4FF4087307A95F480793CDF820808A
:101D700009940A94FEF7CEFC802307A95D480793D7
:101D8000CDF8208009940A94FEF7C4FC1C220DEBC8
:101D9000020021460594069400F002FB574BAC600C
:101DA00040F28F16284685E81800EE602C61AC6181
:101DB000FFF77EF905A9284605940694FFF7B9FBBD
:101DC0006023224607A928460793089609940B9496
:101DD000FFF7FCF9042207A92846FFF7F7F9284680
:101DE00000F0CEF91C220DEB02002146059406946A
:101DF00000F0D6FA424BBC6041F63F7987E8080212
:101E000038466323FB603C61BC61FFF737F905A9E5
:101E1000384605940694FFF78CFB07A922463846FE
:101E20000794089409940B94FFF7A2F93548364AB1
:101E3000364E84604FF4E13380E80C000C2343619C
:101E4000C46004618461C461FFF7D6FC102221469E
:101E500007A80594069400F0A3FA4FF0804386E8A3
:101E6000080230464FF0FF33F360B4603461B46170
:101E7000FFF738F905A9304605940694FFF759FB9A
:101E8000224607A930460794CDF8208009940A9489
:101E9000FFF730FA042207A93046FFF72BFA214654
:101EA0003046FFF715FB04213046FFF711FB2146B2
:101EB0002846FFF7B5FA04212846FFF7B1FA214674
:101EC0003846FFF703FB2B684FF4FA725A639A63A4
:101ED000FFF7CEFDFFF7F6FD0446FFF70DFE032CDE
:101EE000F8D1F5E700380240000002408C020020E3
:101EF0004C020020000802400000211000040040B5
:101F0000000800400C03002000440040CC020020E8
:101F1000012A10B519D1174B174A091A196013680D
:101F2000A1EB0114A3EB0310204403F11804302C9F
:101F300003D903FB01F4002C01DC194411600028D3
:101F400013DBB0F5C87F12DC10BD022A0DD10B4B9C
:101F50000B4A091A19601368A1EB0114A3EB0310D3
:101F6000204403F11304262CE2E7002010BD4FF4B7
:101F7000C87010BD000200201C02002004020020D6
:101F8000200200200268254B9A4270B545D1037F9C
:101F9000012B42D1224B1E68012E3ED12021214827
:101FA000214D224CFEF791FC214B22491A68224B0D
:101FB00018681A60101A214B214A086019681368C2
:101FC0001160CB1A2B601F4B32461968FFF7A0FF38
:101FD0001D4B2060196828681C4D0222FFF798FFEE
:101FE0001B4A286012681B48012A0CBF0022324697
:101FF0008021FEF765FC184B21681A680948516377
:10200000164A12681C46012A18BF00224FF40071BC
:10201000FEF756FC23682A689A6370BD00080040EA
:1020200008020020000002402802002034020020A4
:102030000C020020240200201402002010020020C4
:10204000180200202C02002030020020380200205C
:1020500008000020000802408C0200200C00002034
:1020600007B50E4B002100915A6C42F480425A642D
:102070005A6C02F480420092009A01911A6C42F06C
:1020800080521A641B6C03F0805301930720019B5C
:10209000FEF7D6FA03B05DF804FB00BF003802403B
:1020A00010B5044688B01422002103A800F078F986
:1020B0002368B3F1804F28D103F50E330024019437
:1020C0001A6C134842F001021A641A6C02F0010201
:1020D0000192019A02941A6B42F001021A631B6B7F
:1020E00003F001030293029B03230393022304934F
:1020F00003A901230793FEF70DFB1C20224621466E
:10210000FEF7B0FA1C20FEF7E1FA08B010BD00BFE0
:10211000000002400268094B9A4282B00BD10023B2
:102120000193074B1A6C42F002021A641B6C03F015
:1021300002030193019B02B0704700BF00040040FE
:102140000038024007B50D4B02689A4213D10022B5
:1021500003F50C330192196C41F0040119641B6CF6
:1021600003F0040301931E201146019BFEF77AFA47
:102170001E20FEF7ABFA03B05DF804FB0008004038
:1021800010B5044686B01422002101A800F008F919
:1021900022680D4B9A4214D1002300930B4B0C483C
:1021A0001A6B42F001021A631B6B03F001030093E8
:1021B000009BC023019301A9022302930593FEF71C
:1021C000A9FA06B010BD00BF00040040003802406C
:1021D0000000024010B5044688B01422002103A874
:1021E00000F0DEF82268154B9A4224D103F5FA3349
:1021F000002101911A6C124842F400321A641A6CE0
:1022000002F400320192019A02911A6B42F001022B
:102210001A631B6B03F001030293029B0C230393CD
:1022200002230493012305930323069303A90723A1
:102230000793FEF76FFA08B010BD00BF00440040DE
:10224000000002407047FEE7FEE7FEE7FEE770474A
:1022500070477047FEF7E2B90148FEF71EBE00BFA7
:10226000CC0200200148FEF718BE00BF4C0200203F
:1022700008B50A4B1968024609B909491960186876
:10228000694602448A4206D900F060F80C230360D4
:102290004FF0FF3008BD1A6008BD00BF3C020020AF
:1022A000500300200F49D1F8883043F47003C1F87F
:1022B00088300D4B1A68002042F001021A609860C5
:1022C0001A6822F0847222F480321A60074A5A6037
:1022D0001A6822F480221A60D8604FF000638B6085
:1022E000704700BF00ED00E00038024010300024CD
:1022F000DFF834D0002103E00C4B5B58435004312D
:102300000B480C4B42189A42F6D30B4A02E00023CA
:1023100042F8043B094B9A42F9D3FFF7C3FF00F0A0
:102320001BF8FFF7CFFC7047000002206430000864
:1023300000000020E4010020E40100205003002000
:10234000FEE70A22002100F0D7B80000014B186810
:10235000704700BF1400002070B50D4E0D4CA41B3B
:10236000A4100025A54209D10B4E0C4C00F0F4FC42
:10237000A41BA4100025A54205D170BD56F8253038
:1023800098470135EEE756F8253098470135F2E7D2
:102390005C3000085C3000085C30000860300008E9
:1023A00002440346934200D1704703F8011BF9E74A
:1023B0000EB400B59CB04FF402711DABADF8141013
:1023C000029006906FF000410A48049107914FF681
:1023D000FF7153F8042BADF816100068019302A9A1
:1023E00000F010F9029B00221A701CB05DF804EB9B
:1023F00003B07047140000202DE9F84F804689464D
:1024000092461F468B465D460A9815F8014B00F030
:1024100089F82044467816F008060BD12D2C0BD1F4
:102420002C7801260BF1020567B1102F14D1302C46
:102430000AD011E0AB46E6E72B2C04BF2C780BF159
:102440000205F1E7302C27D12B7803F0DF03582B5E
:102450004BD16C7810270235002E0CBF6FF0004175
:102460004FF000410022B1FBF7FE104607FB1E1C97
:10247000A4F13003092B11D81C46A7421DDD531CC3
:1024800007D0864516D301D1A44513DB00FB0740D6
:10249000012215F8014BEBE70A27DDE7A4F1410320
:1024A000192B01D8373CE8E7A4F16103192B04D8B4
:1024B000573CE2E74FF0FF32EBE7531C08D12223F1
:1024C000C8F800300846BAF1000F07D1BDE8F88F10
:1024D00006B14042BAF1000F0CD022B1013DCAF85A
:1024E0000050BDE8F88F4D46F9E73024002FB3D1F6
:1024F0000827B1E7BDE8F88F084B37B51C68084DD1
:10250000236A002B08BF2B46009313460A46014658
:102510002046FFF771FF03B030BD00BF140000205C
:1025200078000020D0F8EC00704782B001B901A912
:1025300042B14BB113780B601278101C18BF012008
:1025400002B070471046FBE76FF00100F8E72DE995
:10255000F0478E689E4282460C469146984635D892
:102560008A8912F4906F31D0256809696F1A6569FC
:10257000022305EB450595FBF3F508F101033B4408
:102580009D4238BF1D46530531D5294600F044FB16
:10259000064650B90C23CAF80030A38943F0400323
:1025A000A3814FF0FF30BDE8F0873A46216900F083
:1025B000C0FAA38923F4906343F08003A3812661CA
:1025C00065613E44ED1B2660A5604646464528BF32
:1025D000464632464946206800F0B6FAA3689B1B7F
:1025E000A36023681E4426600020BDE8F0872A46C9
:1025F00000F070FB06460028E1D12169504600F04A
:10260000BDFAC7E72DE9F04F9DB0804603938B8953
:102610001C060D4616460FD50B696BB9402100F01C
:10262000FBFA2860286128B90C23C8F800304FF065
:10263000FF30C5E040236B610023099320238DF810
:10264000293030238DF82A304FF0010B37463C46B5
:1026500014F8013B002B3CD1B7EB060A0BD05346D4
:10266000324629464046FFF772FF013000F0A38052
:10267000099B534409933B78002B00F09C80002376
:102680004FF0FF3204930793059206938DF8533071
:102690001A93052221785048FDF7AAFD671C049B78
:1026A000D8B9D90644BF20228DF853201A0744BF59
:1026B0002B228DF8532022782A2A16D0079A00213F
:1026C0000A20274601343B78303B092B51D9C9B148
:1026D00011E0252BC0D02746B9E73F4A801A0BFAF4
:1026E00000F0184304903C46D3E7039A111D12688A
:1026F0000391002A01DB079204E0524243F00203F7
:10270000079204933B782E2B0ED17B782A2B07F16E
:10271000010132D1039B1A1D1B680392002BB8BF25
:102720004FF0FF33023705932C4C397803222046B3
:10273000FDF75EFD38B14023001B03FA00F0049B57
:10274000034304930137397825488DF82810062271
:102750007E1CFDF74DFD002835D0224BFBB9039BB5
:10276000073323F0070308330393099B4B44099372
:102770006CE700FB02320121A3E700230593184612
:102780000A240F4601313A78303A092A03D9002B3E
:10279000CAD00590C8E704FB00200123F1E703AB92
:1027A00000932A46104B04A94046AFF30080B0F1D5
:1027B000FF3F8146D9D1AB895B063FF538AF099819
:1027C0001DB0BDE8F08F03AB00932A46064B04A969
:1027D000404600F081F8EAE7202F0008262F000885
:1027E0002A2F0008000000004F2500082DE9F047BF
:1027F00091461F468A680B69DDF820809342B8BF76
:102800001346C9F8003091F8432006460C4612B131
:102810000133C9F800302368990642BFD9F8003067
:102820000233C9F80030256815F0060507D104F118
:10283000190AE368D9F800209B1A9D4229DB94F815
:1028400043302268003318BF012392062ED404F1CE
:10285000430239463046C047013021D02368E5683D
:10286000D9F8002003F00603042B08BFAD1AA368B3
:1028700022690CBF25EAE57500259342C4BF9B1A67
:10288000ED184FF000091A344D451BD10020BDE86A
:10289000F0870123524639463046C047013003D104
:1028A0004FF0FF30BDE8F0870135C2E7E1185A1C50
:1028B000302081F84300224494F8451082F84310F8
:1028C0000233C4E70123224639463046C04701306F
:1028D000E6D009F10109D7E72DE9F04317460A7E52
:1028E00085B06E2A984606460C460C9B01F1430EB5
:1028F00000F0BC801AD8632A2ED00AD8002A00F033
:10290000C880582A00F08A8004F1420584F84220E9
:102910002AE0642A01D0692AF6D121681A6811F0E8
:10292000800F23D0111D1960136827E0732A00F06F
:10293000B48008D86F2A2AD0702AE5D10A6842F0FC
:1029400020020A6003E0752A21D0782ADCD178229F
:1029500084F845206E4964E01A6801F14205111DB2
:102960001960136884F842300123A3E011F0400F8E
:1029700002F104011960D7D0B2F90030002B03DA5C
:102980002D225B4284F8432062490A2217E0206826
:10299000196810F0800F03D0081D18600B6806E05E
:1029A00010F0400F01F104001860F7D00B8859496E
:1029B0006F2A14BF0A220822002084F843006568A9
:1029C000A560002DC0F29C80206820F004002060EB
:1029D000002B3FD1002D40F095807546082A0BD181
:1029E0002368DA0708D5236962689A42DEBF30237C
:1029F00005F8013C05F1FF35AEEB05032361CDF889
:102A000000803B4603AA21463046FFF7EFFE013027
:102A100055D14FF0FF3005B0BDE8F08381F8452077
:102A20003C492268186812F0800F00F104051D600F
:102A300001D0036802E05506FBD50388D00744BFE8
:102A400042F0200222601BB9226822F0200222609C
:102A50001022B1E77546B3FBF2F002FB1033CB5CFA
:102A600005F8013D03460028F5D1B7E708681A6864
:102A7000496910F0800F04D0101D186013681960A8
:102A800007E010F0400F02F1040018601368F6D060
:102A90001980002323617546B1E71A68111D19607A
:102AA0001568626800212846FDF7A2FB08B1401BAB
:102AB000606063682361002384F843309FE72369E3
:102AC0002A4639463046C0470130A2D023689B07CA
:102AD00007D5002504F11909E368039A9B1A9D4262
:102AE00005DBE068039B9842B8BF184693E70123D3
:102AF0004A4639463046C04701308AD00135EBE7B7
:102B0000002BA7D10B7884F8423004F1420565E729
:102B1000422F0008312F000849B1FF2A85BF8A23C0
:102B200003600A704FF0FF3098BF012070470846DD
:102B3000704710B5431E0A44914200D110BD11F8F0
:102B4000014B03F8014FF7E7884210B501EB020390
:102B500003D8421E99420CD110BD9842F9D2811877
:102B6000D21AD34200D110BD13F8014D01F8014D26
:102B7000F7E711F8014B02F8014FEBE738B50546CE
:102B8000002945D051F8043C0C1F002BB8BFE418B5
:102B900000F0D6F81F4A1368104633B9636014601A
:102BA0002846BDE8384000F0CCB8A3420CD92168D3
:102BB0006218934204BF1A685B68636004BF5218CE
:102BC00022600460ECE713465A680AB1A242FAD9BF
:102BD00019685818A0420BD1206801445818824245
:102BE0001960DDD1106852685A6001441960D7E756
:102BF00002D90C232B60D3E7206821188A4204BF36
:102C000011685268626004BF091821605C60C7E700
:102C100038BD00BF4002002070B5CD1C25F0030573
:102C200008350C2D38BF0C25002D064601DBA942C6
:102C300003D90C233360002070BD00F081F8234AD3
:102C40001468214691B9224C23681BB9304600F024
:102C500067F820602946304600F062F8431C26D110
:102C60000C233360304600F06CF8E4E70B685B1B24
:102C70001AD40B2B0FD90B60CD50CC18304600F076
:102C800060F804F10B00231D20F00700C31A1BD0CD
:102C90005A42E25070BD8C420DBF63684B6863605E
:102CA000136018BF0C46E9E70C464968CAE7C41C24
:102CB00024F00304A04205D0211A304600F030F879
:102CC0000130CDD02560D9E770BD00BF40020020A3
:102CD00044020020F8B5074614460E4621B91146B5
:102CE000BDE8F840FFF798BF22B9FFF747FF254638
:102CF0002846F8BD00F026F884420FD92146384610
:102D0000FFF78AFF05460028F2D031462246FFF73A
:102D100010FF31463846FFF731FFE9E73546E7E770
:102D200038B5064C0023054608462360FFF7A0FA95
:102D3000431C02D1236803B12B6038BD4C03002033
:102D40007047704751F8040C0028A0F10400BCBF84
:102D50000B58C01870470000F8B500BFF8BC08BC9D
:102D60009E467047F8B500BFF8BC08BC9E46704749
:102D70000D0A596F757220646573697265642073FA
:102D8000706565642069733A20000000000000004F
:102D90000000000000000000000000000000000033
:102DA0000000000000000000000000000000000023
:102DB0000000000000000000000000000000000013
:102DC0000000000000000000000000000000000003
:102DD000000000001B5B303B3048001B5B324A00A8
:102DE00057656C636F6D6520746F20746865204E45
:102DF00075636C656F206D616E6167656D656E747E
:102E000020636F6E736F6C650D0A0053656C6563AC
:102E10007420746865206F7074696F6E20796F75A7
:102E20002061726520696E746572657374656420D3
:102E3000696E3A0D0A09312E20536574206E5F7059
:102E4000756C73650D0A09322E205072696E7420FC
:102E50006E5F70756C73650D0A09332E20436C65C7
:102E600061722073637265656E20616E642070729A
:102E7000696E742074686973206D6573736167652A
:102E800020000D0A20696E7075745F63617074753F
:102E900072655F70726576313A20256C75000D0A97
:102EA000206E5F70756C73655F736574313A2025B1
:102EB0006C75000D0A206E5F70756C7365313A2079
:102EC000256C75000D0A2050574D3A20256C750071
:102ED0000D0A206572726F72313A20256C64000D04
:102EE0000A20696E74656772617465645F657272E9
:102EF0006F72313A20256C64000D0A3E20000000FC
:102F00000000000000000102030406070809000099
:102F10000000010203044300504F534958002E00A3
:102F2000232D302B2000686C4C00656667454647B2
:102F30000030313233343536373839414243444535
:102F400046003031323334353637383961626364A4
:102F5000656600002020202020202020202828280E
:102F60002828202020202020202020202020202051
:102F70002020202088101010101010101010101099
:102F800010101010040404040404040404041010B9
:102F90001010101010414141414141010101010156
:102FA0000101010101010101010101010101011002
:102FB000101010101042424242424202020202022B
:102FC00002020202020202020202020202020210D3
:102FD00010101020000000000000000000000000A1
:102FE00000000000000000000000000000000000E1
:102FF00000000000000000000000000000000000D1
:1030000000000000000000000000000000000000C0
:1030100000000000000000000000000000000000B0
:1030200000000000000000000000000000000000A0
:103030000000000000000000000000000000000090
:103040000000000000000000000000000000000080
:04305000000000007C
:083054006CD2FF7F01000000B7
:04305C00C5010008A2
:04306000A1010008C2
:103064000100000010000000010000000100000049
:103074000024F400180000200000000000000000FC
:10308400000000000000000000000000000000003C
:10309400000000000000000000000000000000002C
:1030A400000000000000000000000000000000001C
:1030B400000000000000000000000000000000000C
:1030C40000000000000000000000000000000000FC
:1030D40000000000000000004300000000000000A9
:1030E40000000000000000000000000000000000DC
:1030F4000000000000000000430000000000000089
:1031040000000000000000000000000000000000BB
:103114000000000000000000430000000000000068
:10312400000000000000000000000000000000009B
:103134000000000000000000430000000000000048
:10314400000000000000000000000000000000007B
:103154000000000000000000430000000000000028
:10316400000000000000000000000000000000005B
:103174000000000000000000430000000000000008
:10318400000000000000000000000000000000003B
:1031940000000000000000004300000000000000E8
:1031A400000000000000000000000000000000001B
:1031B4000000000000000000192B00082B25000867
:1031C40000000000532F00081E2F00080A2E0008DC
:1031D4000A2E00080A2E00080A2E00080A2E0008EB
:1031E4000A2E00080A2E00080A2E00080A2E0008DB
:1031F400FFFFFFFFFFFFFFFFFFFFFFFFFFFF0000D9
:103204000100415343494900000000000000000050
:1032140000000000000000000000000000000000AA
:103224000000415343494900000000000000000031
:10323400000000000000000000000000000000008A
:043244000000000086
:04000005080022F1DC
:00000001FF
