:020000040800F2
:10000000000002201D310008713000087330000824
:1000100075300008773000087930000800000000D3
:100020000000000000000000000000007B3000081D
:100030007D300008000000007F300008813000089B
:100040006D3100086D3100086D3100086D31000818
:100050006D3100086D3100086D3100086D31000808
:100060006D3100086D3100086D3100086D310008F8
:100070006D3100086D3100086D3100086D310008E8
:100080006D3100086D3100086D310008000000007E
:100090000000000000000000000000006D310008BA
:1000A0006D3100086D3100086D3100086D310008B8
:1000B000853000086D310008913000086D3100086E
:1000C0006D3100086D3100086D3100086D31000898
:1000D0006D3100086D3100086D310008000000002E
:1000E0006D3100086D3100086D310008000000001E
:1000F0000000000000000000000000006D3100085A
:10010000000000006D3100086D3100086D310008FD
:1001100000000000000000000000000000000000DF
:100120006D3100086D3100086D3100086D31000837
:100130006D31000800000000000000000000000019
:100140000000000000000000000000006D31000809
:100150006D3100086D3100086D3100086D31000807
:100160006D3100086D310008000000000000000043
:10017000000000000000000000000000000000007F
:10018000000000006D3100080000000000000000C9
:080190006D3100086D3100081B
:1001A00010B5054C237833B9044B13B10448AFF3B1
:1001B00000800123237010BD0C020020000000000D
:1001C000C053000808B5034B1BB103490348AFF304
:1001D000008008BD0000000010020020C05300088D
:1001E000034613F8012B002AFBD1181A0138704777
:1001F00001F0FF01102A2BDB10F0070F08D010F8D8
:10020000013B013A8B422DD010F0070F42B3F6D1DB
:10021000F0B441EA012141EA014122F007047FF0F4
:1002200000070023F0E80256083C85EA010586EA4B
:10023000010685FA47F5A3FA87F586FA47F6A5FA87
:1002400087F68EB9EED1F0BC01F0FF0102F0070293
:1002500032B110F8013B013A83EA010313B1F8D13E
:100260000020704701387047002D06BF354603381F
:10027000073815F0010F07D1013015F4807F02BF58
:10028000013015F4C03F0130F0BC0138704700BFA9
:1002900081F0004102E000BF83F0004330B54FEA37
:1002A00041044FEA430594EA050F08BF90EA020FA4
:1002B0001FBF54EA000C55EA020C7FEA645C7FEA37
:1002C000655C00F0E2804FEA5454D4EB5555B8BF5A
:1002D0006D420CDD2C4480EA020281EA030382EACB
:1002E000000083EA010180EA020281EA0303362D5D
:1002F00088BF30BD11F0004F4FEA01314FF4801C30
:100300004CEA113102D0404261EB410113F0004F41
:100310004FEA03334CEA133302D0524263EB4303F8
:1003200094EA050F00F0A780A4F10104D5F1200E96
:100330000DDB02FA0EFC22FA05F2801841F10001F1
:1003400003FA0EF2801843FA05F359410EE0A5F1C5
:1003500020050EF1200E012A03FA0EFC28BF4CF0F6
:10036000020C43FA05F3C01851EBE37101F00045AC
:1003700007D54FF0000EDCF1000C7EEB00006EEBB9
:100380000101B1F5801F1BD3B1F5001F0CD3490843
:100390005FEA30004FEA3C0C04F101044FEA44529A
:1003A00012F5800F80F09A80BCF1004F08BF5FEA21
:1003B000500C50F1000041EB045141EA050130BD01
:1003C0005FEA4C0C404141EB010111F4801FA4F1A4
:1003D0000104E9D191F0000F04BF01460020B1FAF9
:1003E00081F308BF2033A3F10B03B3F120020CDA31
:1003F0000C3208DD02F1140CC2F10C0201FA0CF00F
:1004000021FA02F10CE002F11402D8BFC2F1200C73
:1004100001FA02F120FA0CFCDCBF41EA0C01904029
:10042000E41AA2BF01EB0451294330BD6FEA040472
:100430001F3C1CDA0C340EDC04F11404C4F120025D
:1004400020FA04F001FA02F340EA030021FA04F36F
:1004500045EA030130BDC4F10C04C4F1200220FAC6
:1004600002F001FA04F340EA0300294630BD21FA04
:1004700004F0294630BD94F0000F83F4801306BFCA
:1004800081F480110134013D4EE77FEA645C18BFBE
:100490007FEA655C29D094EA050F08BF90EA020F55
:1004A00005D054EA000C04BF1946104630BD91EA4D
:1004B000030F1EBF0021002030BD5FEA545C05D150
:1004C0004000494128BF41F0004130BD14F580048F
:1004D0003CBF01F5801130BD01F0004545F0FE4103
:1004E00041F470014FF0000030BD7FEA645C1ABF38
:1004F000194610467FEA655C1CBF0B46024650EA6F
:10050000013406BF52EA033591EA030F41F400219A
:1005100030BD00BF90F0000F04BF0021704730B520
:100520004FF4806404F132044FF000054FF00001F5
:1005300050E700BF90F0000F04BF0021704730B5B6
:100540004FF4806404F1320410F0004548BF40428B
:100550004FF000013EE700BF42004FEAE2014FEAE0
:1005600031014FEA02701FBF12F07F4393F07F4FBB
:1005700081F06051704792F0000F14BF93F07F4FED
:10058000704730B54FF4607401F0004521F0004130
:1005900020E700BF50EA010208BF704730B54FF0B6
:1005A00000050AE050EA010208BF704730B511F0BB
:1005B000004502D5404261EB41014FF4806404F1F3
:1005C00032045FEA915C3FF4DCAE4FF003025FEA75
:1005D000DC0C18BF03325FEADC0C18BF033202EBFD
:1005E000DC02C2F1200300FA03FC20FA02F001FA57
:1005F00003FE40EA0E0021FA02F11444C1E600BFF6
:1006000070B54FF0FF0C4CF4E06C1CEA11541DBFA8
:100610001CEA135594EA0C0F95EA0C0F00F0DEF873
:100620002C4481EA030621EA4C5123EA4C5350EA58
:10063000013518BF52EA033541F4801143F48013A9
:1006400038D0A0FB02CE4FF00005E1FB02E506F03A
:100650000042E0FB03E54FF00006E1FB03569CF08F
:10066000000F18BF4EF0010EA4F1FF04B6F5007F95
:1006700064F5407404D25FEA4E0E6D4146EB060607
:1006800042EAC62141EA55514FEAC52040EA5E5090
:100690004FEACE2EB4F1FD0C88BFBCF5E06F1ED83A
:1006A000BEF1004F08BF5FEA500E50F1000041EB71
:1006B000045170BD06F0004646EA010140EA02001E
:1006C00081EA0301B4EB5C04C2BFD4EB0C0541EA40
:1006D000045170BD41F480114FF0000E013C00F355
:1006E000AB8014F1360FDEBF002001F0004170BD79
:1006F000C4F10004203C35DA0C341BDC04F1140492
:10070000C4F1200500FA05F320FA04F001FA05F21D
:1007100040EA020001F0004221F0004110EBD370EA
:1007200021FA04F642EB06015EEA430E08BF20EA16
:10073000D37070BDC4F10C04C4F1200500FA04F3B9
:1007400020FA05F001FA04F240EA020001F000414B
:1007500010EBD37041F100015EEA430E08BF20EABE
:10076000D37070BDC4F1200500FA05F24EEA020E06
:1007700020FA04F301FA05F243EA020321FA04F035
:1007800001F0004121FA04F220EA020000EBD370EC
:100790005EEA430E08BF20EAD37070BD94F0000FEC
:1007A0000FD101F00046400041EB010111F4801F20
:1007B00008BF013CF7D041EA060195F0000F18BFD1
:1007C000704703F00046520043EB030313F4801F0D
:1007D00008BF013DF7D043EA0603704794EA0C0FC7
:1007E0000CEA135518BF95EA0C0F0CD050EA4106DD
:1007F00018BF52EA4306D1D181EA030101F000415A
:100800004FF0000070BD50EA410606BF1046194681
:1008100052EA430619D094EA0C0F02D150EA01368D
:1008200013D195EA0C0F05D152EA03361CBF1046CE
:1008300019460AD181EA030101F0004141F0FE416D
:1008400041F470014FF0000070BD41F0FE4141F4F1
:10085000780170BD70B54FF0FF0C4CF4E06C1CEAF1
:1008600011541DBF1CEA135594EA0C0F95EA0C0FA6
:1008700000F0A7F8A4EB050481EA030E52EA033561
:100880004FEA013100F088804FEA03334FF0805582
:1008900045EA131343EA12634FEA022245EA1115AF
:1008A00045EA10654FEA00260EF000419D4208BF60
:1008B000964244F1FD0404F5407402D25B084FEA0D
:1008C0003202B61A65EB03055B084FEA32024FF4B9
:1008D00080104FF4002CB6EB020E75EB030E22BF16
:1008E000B61A754640EA0C005B084FEA3202B6EBD6
:1008F000020E75EB030E22BFB61A754640EA5C0085
:100900005B084FEA3202B6EB020E75EB030E22BF14
:10091000B61A754640EA9C005B084FEA3202B6EB15
:10092000020E75EB030E22BFB61A754640EADC00D4
:1009300055EA060E18D04FEA051545EA16754FEA36
:1009400006164FEAC30343EA52734FEAC2025FEA54
:100950001C1CC0D111F4801F0BD141EA00014FF0E3
:1009600000004FF0004CB6E711F4801F04BF0143B4
:100970000020B4F1FD0C88BFBCF5E06F3FF6AFAED0
:10098000B5EB030C04BFB6EB020C5FEA500C50F160
:10099000000041EB045170BD0EF0004E4EEA1131E3
:1009A00014EB5C04C2BFD4EB0C0541EA045170BDEA
:1009B00041F480114FF0000E013C90E645EA060E2E
:1009C0008DE60CEA135594EA0C0F08BF95EA0C0F5C
:1009D0003FF43BAF94EA0C0F0AD150EA01347FF4A4
:1009E00034AF95EA0C0F7FF425AF104619462CE77B
:1009F00095EA0C0F06D152EA03353FF4FDAE1046DE
:100A0000194622E750EA410618BF52EA43067FF42E
:100A1000C5AE50EA41047FF40DAF52EA43057FF4BE
:100A2000EBAE12E74FF0FF3C06E000BF4FF0010CC9
:100A300002E000BF4FF0010C4DF804CD4FEA410C2D
:100A40007FEA6C5C4FEA430C18BF7FEA6C5C1BD0FA
:100A500001B050EA410C0CBF52EA430C91EA030F7B
:100A600002BF90EA020F0020704710F1000F91EAD8
:100A7000030F58BF994208BF90422CBFD8176FEAA6
:100A8000E37040F0010070474FEA410C7FEA6C5C74
:100A900002D150EA013C07D14FEA430C7FEA6C5C7B
:100AA000D6D152EA033CD3D05DF8040B704700BFA7
:100AB0008446104662468C461946634600E000BFF5
:100AC00001B5FFF7B7FF002848BF10F1000F01BDC7
:100AD0004DF808EDFFF7F4FF0CBF012000205DF892
:100AE00008FB00BF4DF808EDFFF7EAFF34BF012017
:100AF00000205DF808FB00BF4DF808EDFFF7E0FFB0
:100B000094BF012000205DF808FB00BF4DF808ED00
:100B1000FFF7CEFF94BF012000205DF808FB00BF67
:100B20004DF808EDFFF7C4FF34BF012000205DF849
:100B300008FB00BF4FEA410C7FEA6C5C02D150EA2F
:100B4000013C0AD14FEA430C7FEA6C5C02D152EAC5
:100B5000033C02D14FF0000070474FF00100704796
:100B60004FEA410212F5001215D211D56FF47873D5
:100B7000B3EB625212D94FEAC12343F0004343EA78
:100B8000505311F0004F23FA02F018BF4042704753
:100B90004FF00000704750EA013005D111F00040DD
:100BA00008BF6FF0004070474FF00000704700BF73
:100BB0004FEA4102B2F1E04324BFB3F5001CDCF17F
:100BC000FE5C0DD901F0004C4FEAC0024CEA5070B7
:100BD000B2F1004F40EB830008BF20F001007047E6
:100BE00011F0804F21D113F13872BCBF01F00040E9
:100BF000704741F480114FEA5252C2F11802C2F11B
:100C0000200C10FA0CF320FA02F018BF40F001009B
:100C10004FEAC1234FEAD32303FA0CFC40EA0C004D
:100C200023FA02F34FEA4303CCE77FEA625307D18A
:100C300050EA01331EBF4FF0FE4040F440007047C1
:100C400001F0004040F0FE4040F40000704700BF5B
:100C500053B94AB9002908BF00281CBF4FF0FF3123
:100C60004FF0FF3000F07AB9ADF1080C6DE904CE19
:100C700000F006F8DDF804E0DDE9022304B0704777
:100C80002DE9F0478C460D460446089E002B51D1B5
:100C90008A4217466DD9B2FA82FEBEF1000F0BD020
:100CA000CEF1200C01FA0EF520FA0CFC02FA0EF738
:100CB0004CEA050C00FA0EF44FEA174A250CBCFB6F
:100CC000FAF81FFA87F90AFB18CC45EA0C4508FB2D
:100CD00009F3AB420AD9ED1908F1FF3280F0238104
:100CE000AB4240F22081A8F102083D44ED1AA4B2C3
:100CF000B5FBFAF00AFB105544EA054400FB09F97C
:100D0000A14509D9E41900F1FF3380F00A81A1451A
:100D100040F2078102383C44A4EB090440EA084051
:100D20000021002E61D024FA0EF400233460736099
:100D3000BDE8F0878B4207D9002E54D0002186E809
:100D400021000846BDE8F087B3FA83F1002940F09E
:100D50008E80AB4202D3824200F2FA80841A65EBA5
:100D600003050120AC46002E3FD086E81010BDE8F8
:100D7000F08712B90127B7FBF2F7B7FA87FEBEF189
:100D8000000F34D1EB1B3A0C1FFA87FC0121B3FB97
:100D9000F2F8250C02FB183345EA03450CFB08F377
:100DA000AB4207D9ED1908F1FF3002D2AB4200F295
:100DB000D1808046ED1AA3B2B5FBF2F002FB1055CC
:100DC00043EA05440CFB00FCA44507D9E41900F1F3
:100DD000FF3302D2A44500F2B8801846A4EB0C04FD
:100DE00040EA08409DE731463046BDE8F087CEF145
:100DF000200405FA0EF307FA0EF720FA04F83A0C6D
:100E000025FA04F448EA0308B4FBF2F14FEA184566
:100E100002FB11441FFA87FC45EA044501FB0CF371
:100E2000AB4200FA0EF409D9ED1901F1FF3080F060
:100E30008A80AB4240F2878002393D44EB1A1FFAA8
:100E400088F5B3FBF2F002FB103345EA034500FBE3
:100E50000CF3AB4207D9ED1900F1FF386FD2AB426A
:100E60006DD902383D44EB1A40EA01418FE7C1F1E8
:100E7000200722FA07F88B4005FA01F448EA030339
:100E800020FA07FE4FEA134CFD404EEA040EB5FB74
:100E9000FCF94FEA1E440CFB19551FFA83F844EA8B
:100EA000054509FB08F4AC4202FA01F200FA01FA26
:100EB00008D9ED1809F1FF3043D2AC4241D9A9F16C
:100EC00002091D442D1B1FFA8EFEB5FBFCF00CFB26
:100ED00010554EEA054400FB08F8A04507D9E41870
:100EE00000F1FF3529D2A04527D902381C4440EA39
:100EF0000940A4EB0804A0FB02894C45C6464D46B8
:100F000015D312D056B1BAEB0E0364EB050404FA04
:100F100007F7CB401F43CC40376074600021BDE829
:100F2000F0871846F8E69046E0E6C245EAD2B8EB0C
:100F3000020E69EB03050138E4E72846D7E740468F
:100F400091E78146BEE7014678E702383C4445E731
:100F5000084608E7A8F102083D442BE7704700BFA8
:100F600038B50E4A0E4B054618784FF47A73B3FB2A
:100F7000F0F31068B0FBF3F000F096F8044658B9AF
:100F80000F2D09D8024629464FF0FF3000F04AF8ED
:100F9000044B20461D6038BD012038BD34000020C0
:100FA000000000200400002008B50B4B1A6842F432
:100FB00000721A601A6842F480621A601A6842F479
:100FC00080721A60032000F01BF80020FFF7C8FFB2
:100FD00001F05CFF002008BD003C0240034A044BC6
:100FE00011681B780B441360704700BF6802002033
:100FF00000000020014B1868704700BF6802002005
:10100000074AD36823F4E0631B041B0C43F0BF635F
:10101000000243F4003300F4E0600343D360704700
:1010200000ED00E0174B30B5DC68C4F30224C4F1D6
:101030000703251D042B28BF0423062D4FF00105AF
:1010400005FA03F303F1FF338CBF033C002419407E
:10105000A14005FA04F4013C2240002842EA0102C2
:101060004FEA0212ADBF00F1604000F00F00064BE6
:1010700000F56140B5BFD2B2D2B21A5480F8002355
:1010800030BD00BF00ED00E014ED00E0002808DBFB
:101090004209012300F01F0003FA00F0014B43F85E
:1010A0002200704700E100E00138B0F1807F0AD2F1
:1010B000064B074A5860F02182F8231000200722CF
:1010C00098601A6070470120704700BF10E000E090
:1010D00000ED00E02DE9F04F85B00B68DFF89C8152
:1010E000644A01934FF001090023019C09FA03F7B8
:1010F00007EA0406B74240F0AD804C6824F0100ABD
:10110000BAF1020F16D14FEAD30C00EB8C0C03F0AE
:10111000070BDCF820504FEA8B0B4FF00F0E0EFA46
:101120000BFE25EA0E0E0D6905FA0BF545EA0E05D4
:10113000CCF820504FEA430C0325D0F800B005FA54
:101140000CF5ED4304F0030E0BEA050B0EFA0CFE52
:101150000AF1FF3A4EEA0B0EBAF1010F0095C0F802
:1011600000E015D8D0F808E005EA0E0ECD6805FAC3
:101170000CFA4AEA0E0EC0F808E0D0F804E02EEAB5
:101180000707C4F3001E0EFA03FE4EEA0707476086
:10119000C768009D3D408F6807FA0CF73D43C56066
:1011A000E50057D54FF0000BCDF80CB0D8F84470DF
:1011B000314D47F48047C8F84470D8F8447007F4BC
:1011C00080470397039F23F0030707F1804707F544
:1011D0009C3703F0030CD7F808A04FEA8C0C4FF0B3
:1011E0000F0E0EFA0CFEA8422AEA0E0E39D005F5B3
:1011F0008065A84237D005F58065A84235D005F551
:101200008065A84233D005F58065A84214BF072544
:10121000042505FA0CF545EA0E05BD601568F7438F
:1012200014F4803F0CBF3D4035431560556814F4FD
:10123000003F0CBF3D4035435560956814F4801F56
:101240000CBF3D4035439560D568A40254BF3D4076
:101250003543D5600133102B7FF447AF05B0BDE8AF
:10126000F08F5D46D5E70125D3E70225D1E70325B9
:10127000CFE700BF003C01400000024000380240C0
:101280000AB1816170470904FBE7436931EA03034E
:1012900008BF0904816170472DE9F341044618B97C
:1012A000012002B0BDE8F0810368DD0710D4236897
:1012B000980758D423681A0700F19A8023685B07BF
:1012C00000F1B880A269002A40F019810020E8E707
:1012D000A64B9A6802F00C02042A07D09A6802F022
:1012E0000C02082A0AD15B68590207D59F4B1B687C
:1012F0009A03DCD56368002BD9D1D1E763689B4D95
:10130000B3F5803F11D12B6843F480332B60FFF796
:1013100071FE964D06462B689B03C8D4FFF76AFE04
:10132000801B6428F7D90320BBE7B3F5A02F04D1B5
:101330002B6843F480232B60E5E72A6822F480328F
:101340002A602A6822F480222A60002BDFD1FFF76E
:1013500051FE06462B689F03A9D5FFF74BFE801B65
:101360006428F7D9DFE7814B9A6812F00C0F07D099
:101370009A6802F00C02082A11D15B685E020ED452
:101380007A4B1A68950702D5E268012A88D11A6853
:10139000216922F0F80242EAC1021A608AE7E26893
:1013A000734BB2B101221A60FFF724FE6F4D06465F
:1013B0002B68980707D52B68226923F0F80343EAC6
:1013C000C2032B6076E7FFF715FE801B0228EFD9DA
:1013D000A9E71A60FFF70EFE644D06462B689907D1
:1013E0007FF568AFFFF706FE801B0228F6D99AE763
:1013F0006269604B7AB101221A60FFF7FBFD5B4D19
:1014000006466B6F9F073FF559AFFFF7F3FD801B53
:101410000228F6D987E71A60FFF7ECFD534D064620
:101420006B6F98077FF54AAFFFF7E4FD801B02283A
:10143000F6D978E74D4B1A6C12F0805228D1019200
:101440001A6C42F080521A641B6C03F080530193B3
:10145000019B0126484D2B68D9051BD5A368434D38
:10146000012B27D12B6F43F001032B67FFF7C2FD40
:101470003E4D074641F288382B6F9B0739D5002E29
:101480003FF420AF394A136C23F08053136419E7FB
:101490000026DFE72B6843F480732B60FFF7AAFD7B
:1014A00007462B68DA05D9D4FFF7A4FDC01B022834
:1014B000F7D938E7052B04D12B6F43F004032B67D2
:1014C000D0E72A6F22F001022A672A6F22F0040275
:1014D0002A67002BCAD1FFF78DFD41F288380746F5
:1014E0002B6F9807CBD5FFF785FDC01B4045F7D97B
:1014F00019E7FFF77FFDC01B4045BDD913E71B4D22
:10150000AB6803F00C03082B3FF4CAAE1B4E00235C
:10151000022A336034D1FFF76DFD07462B6899012D
:101520001ED4226AE3691343626A43EA8213E26AC1
:1015300043EA0263A26A0D4C5208013A43EA0243AD
:101540006B6001233360FFF755FD054623689A0160
:101550003FF5BCAEFFF74EFD401B0228F6D9E2E690
:10156000FFF748FDC01B0228D8D9DCE6003802404E
:1015700000004742800E4742007000406000474232
:10158000FFF738FD04462B689B017FF59FAEFFF700
:1015900031FD001B0228F6D9C5E600BF134908B586
:1015A0008B6803F00C03042B03D0082B03D01048E6
:1015B00008BD104808BD4A684B68496813F48003A9
:1015C00014BF0C480A48C1F3881118BF002302F069
:1015D0003F02A1FB0001FFF73BFB044B5B68C3F339
:1015E000014301335B00B0FBF3F008BD003802405B
:1015F0000024F40000127A002DE9F0410D46044663
:1016000010B90120BDE8F081444B1A6802F00F02C6
:101610008A4228D321688F072DD4C80740D43F4B76
:101620001A6802F00F02954266D3226851076CD403
:10163000130707D53A4A2169936823F4604343EAC4
:10164000C1039360FFF7AAFF354B364A9B68C3F38B
:101650000313D35CD840344B18600020FFF780FCA4
:101660000020BDE8F081CAB21A701B6803F00F03B6
:101670009942C6D1CEE72A4B11F0040F1EBF9A68DB
:1016800042F4E0529A600E0742BF9A6842F4604208
:101690009A609A68A06822F0F00202439A60BCE760
:1016A00062681F4B012A1DD11B6813F4003FA8D0AC
:1016B0001B4EB36823F003031343B360FFF79AFC98
:1016C00041F288380746B368626803F00C03B3EB55
:1016D000820FA4D0FFF78EFCC01B4045F3D9032036
:1016E000BDE8F081911E01291B6802D813F0007F2C
:1016F000DDE713F0020FDAE7EAB21A701B6803F0B5
:101700000F039D427FF47DAF8FE70549E0688B684A
:1017100023F4E05303438B608AE700BF003C0240A0
:10172000003802409E55000834000020044B054A52
:101730009B68C3F38223D35C034A1068D840704788
:1017400000380240AE55000834000020044B054A22
:101750009B68C3F34233D35C034A1068D840704798
:1017600000380240AE55000834000020036A23F020
:1017700001030362036A70B5446882690D6822F050
:1017800073022A438D6823F002032B430A4DA842BB
:101790000BD1CD688E6923F008032B434D6924F4E7
:1017A0004074354323F004032C43446082614A684B
:1017B0004263036270BD00BF00000140036A23F46E
:1017C00080730362036A70B54468C2690D6822F0D1
:1017D00073022A438D6823F4007343EA05230B4DFB
:1017E000A8420DD1CD688E6923F4006343EA052336
:1017F0004D6924F44054354323F4806344EA0514CE
:101800004460C2614A68C263036270BD0000014067
:10181000036A23F480530362036A30B54468C269E3
:101820000D6822F4E64242EA05228D6823F4005353
:1018300043EA0533064DA84202BF4D6924F48044B3
:1018400044EA85144460C2614A680264036230BDA0
:101850000000014070477047704703681A6991079C
:1018600010B504460ED5DA6892070BD56FF0020268
:101870001A619B6901229B07027777D000F0C4FDB3
:101880000023237723681A69500710D5DA685107B7
:101890000DD56FF004021A619B69022213F4407F98
:1018A0002277204668D000F0AFFD0023237723681D
:1018B0001A6912070FD5DA6810070CD56FF0080205
:1018C0001A61DB6904229907227720465AD000F07A
:1018D0009BFD0023237723681A69D20610D5DA68A6
:1018E000D0060DD56FF010021A61DB69082213F4DF
:1018F000407F227720464BD000F086FD00232377DF
:1019000023681A69D10708D5DA68D20705D56FF0C0
:1019100001021A612046FFF79DFF23681A6910062D
:1019200008D5DA68110605D56FF080021A612046E5
:1019300000F0FEFA23681A69520608D5DA685006E4
:1019400005D56FF040021A612046FFF785FF236836
:101950001A69910622D5DA6892061FD56FF0200227
:1019600020461A61BDE8104000F0E1BA01F01EFA0D
:101970002046FFF770FF83E701F018FA2046FFF7D3
:101980006AFF92E701F012FA2046FFF764FFA0E732
:1019900001F00CFA2046FFF75EFFAFE710BD000034
:1019A000244A036890420ED0B0F1804F0BD0A2F5CC
:1019B0007C42904207D002F58062904203D002F54B
:1019C0008062904215D14A6823F070031343194A8C
:1019D000904219D0B0F1804F16D0A2F57C429042CF
:1019E00012D002F5806290420ED002F580629042E1
:1019F0000AD0114A904207D002F58062904203D08B
:101A000002F58062904203D1CA6823F44073134305
:101A10004A6923F08003134303608B68C3620B6839
:101A20008362044B984204BF0B6903630123436143
:101A3000704700BF000001400040014010B504465F
:101A4000A0B190F83D3003F0FF021BB980F83C20B4
:101A500001F08EFA022384F83D302068211DFFF743
:101A60009FFF012384F83D30002010BD012010BDF0
:101A700010B50446A0B190F83D3003F0FF021BB949
:101A800080F83C2001F05CFA022384F83D302068A5
:101A9000211DFFF785FF012384F83D30002010BD94
:101AA000012010BD10B50446A0B190F83D3003F000
:101AB000FF021BB980F83C2001F008FA022384F8E9
:101AC0003D302068211DFFF76BFF012384F83D3076
:101AD000002010BD012010BD036A23F01003036233
:101AE000036A70B5446882690D6822F4E64242EAEE
:101AF00005228D6823F0200343EA05130B4DA8420D
:101B00000DD1CD688E6923F0800343EA05134D693A
:101B100024F44064354323F0400344EA85044460E0
:101B200082614A688263036270BD00BF00000140A9
:101B300038B590F83C30012B04464FF0020018D025
:101B4000012384F83C3084F83D001D460C2A0BD854
:101B5000DFE802F0070A0A0A100A0A0A140A0A0A47
:101B600018002068FFF702FE002084F83D5084F83A
:101B70003C0038BD2068FFF7AFFFF5E72068FFF7AE
:101B80001DFEF1E72068FFF743FEEDE738B590F85A
:101B90003C30012B04464FF0020025D0012384F88D
:101BA0003C3084F83D000C2A18D8DFE802F0071713
:101BB00017171E1717172F17171740002068FFF762
:101BC000D5FD236809699A6942F008029A619A6909
:101BD00022F004029A619A690A439A610123002063
:101BE00084F83D3084F83C0038BD2068FFF774FF6E
:101BF000236809699A6942F400629A619A6922F439
:101C000080629A619A6942EA0122E6E72068FFF75A
:101C1000D5FD23680969DA6942F00802DA61DA69F8
:101C200022F00402DA61DA690A43DA61D6E7206851
:101C3000FFF7EEFD23680969DA6942F40062DA61B0
:101C4000DA6922F48062DA61DA6942EA0122ECE7B9
:101C500070B5046A164E24F001040462B04284692F
:101C6000056A12D0B0F1804F0FD0A6F57C46B04285
:101C70000BD006F58066B04207D006F58066B0420C
:101C800003D006F59A36B0420FD124F00304224364
:101C90001B0122F0F002DBB225F00A0501F00A0177
:101CA0001A4329438261016270BD44F00102EFE7EB
:101CB00000000140F8B590F83C30012B04460D4679
:101CC0004FF0020019D0012384F83C3084F83D0025
:101CD000A2B9CB68206806C9FFF7BAFF2368A968D4
:101CE0009A6922F00C029A619A690A439A61012367
:101CF000002084F83D3084F83C00F8BD042A8E684A
:101D00002368E86882C91FD11A6A22F010021A6299
:101D10009A691D6A22F4407242EA0722000380B2E7
:101D200022F470420901024301F0A00125F0A00055
:101D300001439A6119629A6922F440629A619A6930
:101D400042EA06269E61D2E7082A1A6A1CD122F4CA
:101D500080721A62DA691D6A22F003023A430001B6
:101D6000C0B222F0F0020902024301F4206125F41E
:101D700020600143DA611962DA6922F00C02DA614B
:101D8000DA691643DE61B2E722F480521A62DA6938
:101D90001D6A22F4407242EA0722000322F47042D4
:101DA00080B20903104301F4204125F4204211437D
:101DB000D8611962DA6922F44062DA61DA6942EACA
:101DC0000626DFE7036A01F01F0110B501248C40ED
:101DD00023EA04030362036A8A401A43026210BDC5
:101DE00010B5044601220068FFF7ECFF2368094A9A
:101DF000934202BF5A6C42F400425A649A6802F05D
:101E00000702062A1EBF1A6842F001021A6000206B
:101E100010BD00BF0000014010B504460C290DD8CC
:101E2000DFE801F0070C0C0C230C0C0C280C0C0C3C
:101E30002D000268D36843F00203D36020680122BA
:101E4000FFF7C0FF2368104A934202BF5A6C42F466
:101E500000425A649A6802F00702062A1EBF1A68F6
:101E600042F001021A60002010BD0268D36843F0FE
:101E70000403E2E70268D36843F00803DDE7026881
:101E8000D36843F01003D8E700000140FFF7C4BF58
:101E900010B504460C290DD8DFE801F0070C0C0C36
:101EA0001C0C0C0C210C0C0C26000268D36843F0AF
:101EB0000203D36020680122FFF784FF23689A6839
:101EC00002F00702062A1EBF1A6842F001021A60D9
:101ED000002010BD0268D36843F00403E9E70268FC
:101EE000D36843F00803E4E70268D36843F01003C3
:101EF000DFE790F83C30012B30B54FF0020314D0EF
:101F0000046880F83D306268A3680D68496822F073
:101F1000700223F080030B432A436260A360012315
:101F200080F83D30002380F83C30184630BD7047C3
:101F3000704700002DE9F0470668C2683369C1693F
:101F400023F4405313433361044683680069F26805
:101F50000343606922F41642034322F00C020B4350
:101F60001343F3607369A26923F440731343B1F51B
:101F7000004F73617A4B7CD19E4203D003F580639E
:101F80009E4244D1FFF7E2FB192505FB00F3606890
:101F90004FF064094000B3FBF0F3B3FBF9F34FEAF1
:101FA0000318FFF7D3FB636868435B00B0FBF3F7EC
:101FB000FFF7CCFB636868435B00B0FBF3F3B3FB54
:101FC000F9F309FB1373DB003233B3FBF9F35B0066
:101FD00003F4F877FFF7BAFB626868435200B0FB7E
:101FE000F2FAFFF7B3FB636868435B00B0FBF3F3FF
:101FF000B3FBF9F309FB13A3DB003233B3FBF9F3B3
:1020000003F0070343443B44B360BDE8F087FFF7A8
:102010008DFB192505FB00F360684FF06409400053
:10202000B3FBF0F3B3FBF9F34FEA0318FFF77EFBC2
:10203000636868435B00B0FBF3F7FFF777FB636807
:1020400068435B00B0FBF3F3B3FBF9F309FB1373D5
:10205000DB003233B3FBF9F35B0003F4F877FFF7EF
:1020600065FB626868435200B0FBF2FAFFF75EFB63
:10207000B9E79E4202D03B4B9E4240D1FFF766FB40
:10208000676819254FF0640905FB00F3BF00B3FB37
:10209000F7F3B3FBF9F31F01FFF758FB63686843DD
:1020A0009B00B0FBF3F8FFF751FB636868439B00AC
:1020B000B0FBF3F3B3FBF9F309FB13831B013233DA
:1020C000B3FBF9F303F0F008FFF740FB62686843E5
:1020D0009200B0FBF2FAFFF739FB636868439B009C
:1020E000B0FBF3F3B3FBF9F309FB13A31B0132338A
:1020F000B3FBF9F303F00F0343EA080383E7FFF7A9
:1021000015FB676819254FF0640905FB00F3BF0054
:10211000B3FBF7F3B3FBF9F31F01FFF707FB6368AA
:1021200068439B00B0FBF3F8FFF700FB636868436C
:102130009B00B0FBF3F3B3FBF9F309FB13831B0123
:102140003233B3FBF9F303F0F008FFF7EFFA6268FC
:1021500068439200B0FBF2FAFFF7E8FABDE700BF70
:102160000010014000140140F8B504460E46174621
:102170001D4621680B6836EA030301D10020F8BD33
:102180006B1CF7D095B92368DA6822F4D072DA6054
:102190005A6922F001025A61202384F8393084F808
:1021A0003A30002384F838300320F8BDFEF722FFD0
:1021B000C01B8542DDD2E6E710B5044640B390F877
:1021C000393003F0FF021BB980F8382000F018FF07
:1021D0002268242384F83930D36823F40053D36071
:1021E0002046FFF7A7FE23681A6922F490421A617D
:1021F0005A6922F02A025A61DA6842F40052DA601F
:1022000000202023E06384F8393084F83A3010BD90
:10221000012010BD2DE9F0411F4690F83930202BE8
:1022200004460D4690464FD100294AD0002A48D096
:1022300090F83830012B47D0012380F83830002344
:10224000C363212380F83930FEF7D4FEA4F824803C
:102250000646A4F82680E38C9BB26BB93B46324617
:1022600040212046FFF780FFB0B9202384F83930A1
:1022700084F83800BDE8F081E38C013B9BB2E38435
:10228000A368B3F5805F32463B464FF0800120469D
:102290000ED1FFF769FF10B10320BDE8F0812B8854
:1022A0002268C3F308035360236943B90235D2E7B8
:1022B000FFF75AFF0028EFD123682A785A600135CA
:1022C000C9E70120BDE8F0810220BDE8F0812DE9D9
:1022D000F0411F4690F83A30202B04460D469046B8
:1022E00052D100294DD0002A4BD090F83830012B24
:1022F0004AD0012380F838300023C363222380F8BA
:102300003A30FEF777FEA4F82C800646A4F82E801B
:10231000E08D80B230B9202384F83A3084F8380058
:10232000BDE8F081E38D013B9BB2E385A368B3F583
:10233000805F32463B464FF02001204612D1FFF726
:1023400013FF10B10320BDE8F081236822695B68A8
:1023500022B9C3F3080325F8023BD9E7DBB225F81D
:10236000013BD5E7FFF700FF0028EBD12368216987
:102370005B686A1C11B92B701546C9E703F07F032F
:10238000F9E70120BDE8F0810220BDE8F0810000FE
:1023900030B595B03022002108A800F017FF0021C9
:1023A000142203A800F012FF0024154B01941A6CAC
:1023B00042F080521A641B6C03F080530193019B1E
:1023C000104B02941A6842F440421A601B680E9443
:1023D00003F440430293029B01254FF4A02308A875
:1023E00009930895FEF758FF0F23214603A803938E
:1023F0000495059406940794FFF7FEF815B030BDD8
:1024000000380240007000400368B3F1804F06D1ED
:10241000037F012B04D1044A136801331360704712
:10242000022BFCD1014AF7E73402002038020020D9
:1024300010B50F4C0F494FF0FF3306222046FFF72F
:10244000E9FE4FF0FF3304220B492046FFF7E2FE7E
:102450004FF0FF332A2209492046FFF7DBFE2046D2
:102460004FF0FF3376220649BDE81040FFF7D2BE99
:102470002C0300203C540008435400084854000832
:102480007354000813B50A4C0A494FF0FF33042275
:102490002046FFF7BFFE4FF0FF33012201A920467F
:1024A000FFF715FF01A800F062FE02B010BD00BFEB
:1024B0002C0300209955000870B5884BADF5966D3A
:1024C00004466A4603F1180618685968154603C59C
:1024D0000833B3422A46F7D11B882B804A220021B9
:1024E0000DF11A0000F072FE631E022B00F2F18063
:1024F00022467B4919A800F071FE19A8FDF770FE6D
:102500004FF0FF3382B219A97648FFF783FE022C01
:1025100030D0032C00F0DF806846FDF761FE4FF0FD
:10252000FF3382B269466F486F4DFFF773FE4FF07D
:10253000FF3303220DF24C416A48FFF7C8FE4FF00B
:10254000FF3303220DF24C416648FFF763FE0DF2A4
:102550004C4000F00CFE64246043E8600DF24C40F7
:1025600000F005FE614B60432861012018600DF505
:10257000966D70BD5C4C5E49226819A800F02EFE75
:1025800062685C4932A800F029FEA2685A494BA84B
:1025900000F024FE594B5A491A6864A800F01EFE48
:1025A000584B59491A687DA800F018FE62695749CE
:1025B00096A800F013FEA2695549AFA800F00EFEE0
:1025C000544B55491A68C8A800F008FE534B5449AB
:1025D0001A68E1A800F002FEE2695249FAA800F088
:1025E000FDFD226A50490DF24C4000F0F7FD19A89C
:1025F000FDF7F6FD4FF0FF3382B219A93948FFF716
:1026000009FE32A8FDF7ECFD4FF0FF3382B232A98C
:102610003448FFF7FFFD4BA8FDF7E2FD4FF0FF3315
:1026200082B24BA92F48FFF7F5FD64A8FDF7D8FD4E
:102630004FF0FF3382B264A92A48FFF7EBFD7DA873
:10264000FDF7CEFD4FF0FF3382B27DA92548FFF79D
:10265000E1FD96A8FDF7C4FD4FF0FF3382B296A9C5
:102660002048FFF7D7FDAFA8FDF7BAFD4FF0FF33C5
:1026700082B2AFA91B48FFF7CDFDC8A8FDF7B0FD9A
:102680004FF0FF3382B2C8A91648FFF7C3FDE1A897
:10269000FDF7A6FD4FF0FF3382B2E1A91148FFF725
:1026A000B9FDFAA8FDF79CFD4FF0FF3382B2FAA9FD
:1026B0000C48FFF7AFFD0DF24C40FDF791FD4FF0D8
:1026C000FF3382B20DF24C410648FFF7A3FD012013
:1026D0004DE700204BE7022049E700BFD853000830
:1026E000175500082C0300200800002030020020AD
:1026F000EA540008F4540008FE5400084C0200207C
:102700000A550008500200201B5500082C550008EF
:102710004155000854020020565500085802002078
:102720006455000872550008865500082DE9F043ED
:102730008FB0FEF739FCFFF72BFE1422002107A80B
:10274000002400F043FD814B01941A6B8048814DB9
:10275000814F42F004021A631A6B02F004020192E4
:10276000019A02941A6B42F080021A631A6B02F00B
:1027700080020292029A03941A6B42F001021A63D9
:102780001A6B02F001020392039A04941A6B42F04E
:1027900002021A631B6B03F00203049322464FF4F8
:1027A0000871049BFEF76CFD224680216B48FEF702
:1027B00067FD4FF40053079307A9694B67480893D7
:1027C0004FF001080994FEF785FC4FF4087307A940
:1027D0005F480793CDF8208009940A94FEF77AFCAD
:1027E000802307A95D480793CDF8208009940A94B7
:1027F000FEF770FC1C220DEB0200214605940694A6
:1028000000F0E4FC574BAC6040F28F16284685E898
:102810001800EE602C61AC61FFF72AF905A9284683
:1028200005940694FFF765FB6023224607A9284616
:102830000793089609940B94FFF7A8F9042207A9B7
:102840002846FFF7A3F9284600F0B0FB1C220DEB49
:10285000020021460594069400F0B8FC424BBC608F
:1028600041F63F7987E8080238463123FB603C6136
:10287000BC61FFF7E3F805A9384605940694FFF715
:1028800038FB07A9224638460794089409940B940C
:10289000FFF74EF93548364A364E84604FF4E1333F
:1028A00080E80C000C234361C46004618461C4614E
:1028B000FFF782FC1022214607A80594069400F039
:1028C00085FC4FF0804386E8080230464FF0FF3326
:1028D000F360B4603461B461FFF7E4F805A93046F1
:1028E00005940694FFF705FB224607A93046079496
:1028F000CDF8208009940A94FFF7DCF9042207A997
:102900003046FFF7D7F921463046FFF7C1FA0421D8
:102910003046FFF7BDFA21462846FFF761FA042149
:102920002846FFF75DFA21463846FFF7AFFA2B68D5
:102930004FF4FA725A639A63FFF77AFDFFF7A2FD2C
:102940000446FFF7B9FD032CF8D1F5E70038024043
:1029500000000240AC0200206C020020000802408F
:102960000000211000040040000800402C0300205B
:1029700000440040EC020020012A10B51AD1144B8B
:10298000091A1960134B1A686FF003006FF01004F6
:10299000504304FB010002F1C704B4F5C77F03D91B
:1029A00002FB01F4002C01DC11441960002809DA53
:1029B000002010BD022A04D1074B091A1960074BE9
:1029C000E1E70020B0F5C87FA8BF4FF4C87010BD84
:1029D00028020020440200202C020020480200208F
:1029E0002DE9F04F2DED048B754B83B01868FDF782
:1029F00091FD6DA3D3E90023FDF72CFF714B044635
:102A000018680D46FDF796FD02460B4620462946FE
:102A1000FDF7F6FD66A3D3E90023FDF7F1FD0022E3
:102A2000694BFDF7EDFD64A3D3E90023FDF7E8FD55
:102A30000022664BFDF7E4FDFEF792F8644B8346F7
:102A40001868FDF767FD58A3D3E90023FDF702FFDF
:102A5000604B044618680D46FDF76CFD02460B46B8
:102A600020462946FDF7CCFD51A3D3E90023FDF70D
:102A7000C7FD0022544B584DFDF7C2FD4EA3D3E9CC
:102A80000023FDF7BDFD0022504BFDF7B9FDFEF719
:102A900067F804465844FDF74DFD00224F4BFDF703
:102AA000AFFDFEF75DF8FDF745FDD5F808A0064639
:102AB00050460F46FDF73EFD0022444BFDF7CAFE8F
:102AC00041EC100B41EC180B01F006FA53EC102B03
:102AD0002868CDE90023FDF72DFDDDE900238046C0
:102AE000894630463946FDF78BFD02460B46404687
:102AF0004946FDF7D3FBFEF733F8B0EE480AF0EE97
:102B0000680A286001F034FA53EC102B6868CDE9AC
:102B10000023FDF70FFDDDE900238046894630469E
:102B20003946FDF76DFD02460B4640464946FDF726
:102B3000B5FBFEF715F86860A4EB0B004FF0AA0B8D
:102B400090FBFBF05044A860FDF7F4FC00221F4B03
:102B5000FDF780FEFEF72CF8FDF7FEFC41EC100BB4
:102B600041EC180B01F004FAB0EE409AF0EE609AD6
:102B7000B0EE480AF0EE680A01F0AEF9B0EE401A85
:102B8000F0EE601AB0EE490AF0EE690A01F038FA88
:102B900051EC100BFDF7E4FF64235843A86003B029
:102BA000BDEC048BBDE8F08F0000000000E0704039
:102BB0001F85EB51B81E09409A9999999999A93F97
:102BC0004C0200202C00002000004440000059402E
:102BD0005002002030000020080000200000E03FEC
:102BE0002DE9F0416C4C2368E7682669FF1A636899
:102BF0002DED048BF61A06FB06F082B007FB0700EA
:102C0000FDF798FC41EC100B01F0FCF951EC100BB6
:102C1000FDF7A6FF0428254607DC00236361A361B6
:102C200002B0BDEC048BBDE8F081FDF783FC00220F
:102C30005A4BFDF70FFE41EC100B00F0A5FF51ECD5
:102C4000100BFDF78DFF642404FB00F808FB07F070
:102C5000FDF770FC0022514BFDF7FCFDFDF780FFF6
:102C6000074608FB06F0FDF765FC00224B4BFDF71D
:102C7000F1FDFDF775FF0646404307FB0700FDF732
:102C800059FC41EC100B01F0BDF951EC100BFDF7B4
:102C900067FF28623846FDF74DFCCDE9000130465C
:102CA000FDF748FC9DED001B41EC100B01F0A8F96D
:102CB00051EC100BFDF754FFAB686043C01AFDF7F1
:102CC00039FC0022354BFDF7C5FD41EC100B41EC02
:102CD000180B01F04DF9B0EE409AF0EE609AB0EEAC
:102CE000480AF0EE680A01F0F7F8B0EE401AF0EE8C
:102CF000601AB0EE490AF0EE690A01F081F951EC70
:102D0000100BFDF72DFF2B6A25494443A4006FF0FB
:102D10005402EC6102FB04344FF47A6294FBF2F348
:102D200001FB0044002B94FBF2F41E4ACCBF0121AE
:102D30004FF0FF311160002C1B4ACCBF01214FF036
:102D4000FF314FF48776116006FB03F0FDF7F2FBCD
:102D50000FA3D3E90023FDF77DFDFDF701FF80EA16
:102D6000E073A3EBE0736B6106FB04F0FDF7E2FB9D
:102D700007A3D3E90023FDF76DFDFDF7F1FE80EA1F
:102D8000E073A3EBE073AB614AE700BFAFF30080F1
:102D90000BD7A3703D6A5F40080000200000594037
:102DA000A00901002C00002030000020F8B50268C6
:102DB000264B9A4249D1037F012B46D1244B1E68F2
:102DC000012E42D12348244C244D254F2021FEF7CB
:102DD0005CFA244A244B196813681160CB1A234A01
:102DE0002360234B196813681160CB1A2B60FFF71F
:102DF000F7FDFFF7F5FE3246796920681D4CFFF7B5
:102E0000BBFD02222060B96928681B4DFFF7B4FDA5
:102E10001A4A286012681A48012A0CBF002232465A
:102E20008021FEF72DFA174B21681A680948516373
:102E3000154A12681C46012A18BF00224FF400717F
:102E4000FEF71EFA23682A689A63F8BD000800405E
:102E500030020020000002404C02002050020020FE
:102E6000080000203C020020340200204002002024
:102E70003802002054020020580200202C000020BC
:102E800000080240AC0200203000002007B50E4BC5
:102E9000002100915A6C42F480425A645A6C02F448
:102EA00080420092009A01911A6C42F080521A649A
:102EB0001B6C03F0805301930720019BFEF7A0F8E1
:102EC00003B05DF804FB00BF0038024010B50446B3
:102ED00088B01422002103A800F078F92368B3F128
:102EE000804F28D103F50E33002401941A6C134847
:102EF00042F001021A641A6C02F001020192019A76
:102F000002941A6B42F001021A631B6B03F0010377
:102F10000293029B032303930223049303A9012337
:102F20000793FEF7D7F81C2022462146FEF77AF8D1
:102F30001C20FEF7ABF808B010BD00BF0000024037
:102F40000268094B9A4282B00BD100230193074BD0
:102F50001A6C42F002021A641B6C03F00203019324
:102F6000019B02B0704700BF0004004000380240DF
:102F700007B50D4B02689A4213D1002203F50C33BA
:102F80000192196C41F0040119641B6C03F00403F5
:102F900001931E201146019BFEF744F81E20FEF708
:102FA00075F803B05DF804FB0008004010B5044656
:102FB00086B01422002101A800F008F922680D4B08
:102FC0009A4214D1002300930B4B0C481A6B42F029
:102FD00001021A631B6B03F001030093009BC023E3
:102FE000019301A9022302930593FEF773F806B03B
:102FF00010BD00BF00040040003802400000024045
:1030000010B5044688B01422002103A800F0DEF8B1
:103010002268154B9A4224D103F5FA33002101911D
:103020001A6C124842F400321A641A6C02F400322C
:103030000192019A02911A6B42F001021A631B6B12
:1030400003F001030293029B0C23039302230493D6
:10305000012305930323069303A907230793FEF790
:1030600039F808B010BD00BF004400400000024025
:103070007047FEE7FEE7FEE7FEE7704770477047E0
:10308000FDF7ACBF0148FEF7E8BB00BFEC02002033
:103090000148FEF7E2BB00BF6C02002008B50A4BF6
:1030A0001968024609B90949196018686946024455
:1030B0008A4206D900F060F80C2303604FF0FF301D
:1030C00008BD1A6008BD00BF5C020020700300202C
:1030D0000F49D1F8883043F47003C1F888300D4BA4
:1030E0001A68002042F001021A6098601A6822F003
:1030F000847222F480321A60074A5A601A6822F4F5
:1031000080221A60D8604FF000638B60704700BF68
:1031100000ED00E00038024010300024DFF834D029
:10312000002103E00C4B5B58435004310B480C4B1F
:1031300042189A42F6D30B4A02E0002342F8043BBD
:10314000094B9A42F9D3FFF7C3FF00F01BF8FFF7D2
:10315000EDFA704700000220285900080000002006
:103160000C0200200C02002070030020FEE70A225F
:10317000002100F0D7B80000014B1868704700BF6D
:103180003800002070B50D4E0D4CA41BA410002576
:10319000A54209D10B4E0C4C02F012F9A41BA4104D
:1031A0000025A54205D170BD56F825309847013558
:1031B000EEE756F8253098470135F2E72059000828
:1031C00020590008205900082459000802440346E9
:1031D000934200D1704703F8011BF9E70EB400B524
:1031E0009CB04FF402711DABADF814100290069024
:1031F0006FF000410A48049107914FF6FF7153F8B0
:10320000042BADF816100068019302A900F010F924
:10321000029B00221A701CB05DF804EB03B07047EB
:10322000380000202DE9F84F8046894692461F4617
:103230008B465D460A9815F8014B00F089F820444A
:10324000467816F008060BD12D2C0BD12C780126D0
:103250000BF1020567B1102F14D1302C0AD011E008
:10326000AB46E6E72B2C04BF2C780BF10205F1E707
:10327000302C27D12B7803F0DF03582B4BD16C78FF
:1032800010270235002E0CBF6FF000414FF00041B7
:103290000022B1FBF7FE104607FB1E1CA4F1300311
:1032A000092B11D81C46A7421DDD531C07D08645AB
:1032B00016D301D1A44513DB00FB0740012215F80A
:1032C000014BEBE70A27DDE7A4F14103192B01D8F5
:1032D000373CE8E7A4F16103192B04D8573CE2E737
:1032E0004FF0FF32EBE7531C08D12223C8F800301F
:1032F0000846BAF1000F07D1BDE8F88F06B1404289
:10330000BAF1000F0CD022B1013DCAF80050BDE85F
:10331000F88F4D46F9E73024002FB3D10827B1E7E5
:10332000BDE8F88F084B37B51C68084D236A002BA1
:1033300008BF2B46009313460A4601462046FFF776
:1033400071FF03B030BD00BF380000209C0000209A
:10335000D0F8EC00704782B001B901A942B14BB17D
:1033600013780B601278101C18BF012002B0704750
:103370001046FBE76FF00100F8E72DE9F0478E6893
:103380009E4282460C469146984635D88A8912F468
:10339000906F31D0256809696F1A6569022305EBC2
:1033A000450595FBF3F508F101033B449D4238BF09
:1033B0001D46530531D5294600F044FB064650B959
:1033C0000C23CAF80030A38943F04003A3814FF0D7
:1033D000FF30BDE8F0873A46216900F0C0FAA389C2
:1033E00023F4906343F08003A381266165613E442A
:1033F000ED1B2660A5604646464528BF4646324638
:103400004946206800F0B6FAA3689B1BA3602368B6
:103410001E4426600020BDE8F0872A4600F070FBBD
:1034200006460028E1D12169504600F0BDFAC7E701
:103430002DE9F04F9DB0804603938B891C060D4605
:1034400016460FD50B696BB9402100F0FBFA2860D6
:10345000286128B90C23C8F800304FF0FF30C5E0D0
:1034600040236B610023099320238DF829303023FA
:103470008DF82A304FF0010B37463C4614F8013BDB
:10348000002B3CD1B7EB060A0BD0534632462946F7
:103490004046FFF772FF013000F0A380099B5344C0
:1034A00009933B78002B00F09C8000234FF0FF3203
:1034B00004930793059206938DF853301A930522CF
:1034C00021785048FCF794FE671C049BD8B9D906B4
:1034D00044BF20228DF853201A0744BF2B228DF8B9
:1034E000532022782A2A16D0079A00210A2027463C
:1034F00001343B78303B092B51D9C9B111E0252B60
:10350000C0D02746B9E73F4A801A0BFA00F01843AB
:1035100004903C46D3E7039A111D12680391002AD8
:1035200001DB079204E0524243F002030792049346
:103530003B782E2B0ED17B782A2B07F1010132D15B
:10354000039B1A1D1B680392002BB8BF4FF0FF337B
:10355000023705932C4C397803222046FCF748FEAD
:1035600038B14023001B03FA00F0049B034304938B
:103570000137397825488DF8281006227E1CFCF783
:1035800037FE002835D0224BFBB9039B073323F0CD
:10359000070308330393099B4B4409936CE700FB33
:1035A00002320121A3E70023059318460A240F469F
:1035B00001313A78303A092A03D9002BCAD0059054
:1035C000C8E704FB00200123F1E703AB00932A4680
:1035D000104B04A94046AFF30080B0F1FF3F814695
:1035E000D9D1AB895B063FF538AF09981DB0BDE86E
:1035F000F08F03AB00932A46064B04A9404600F027
:1036000081F8EAE7C0550008C6550008CA55000809
:10361000000000007B3300082DE9F04791461F466B
:103620008A680B69DDF820809342B8BF1346C9F859
:10363000003091F8432006460C4612B10133C9F818
:1036400000302368990642BFD9F800300233C9F828
:103650000030256815F0060507D104F1190AE36862
:10366000D9F800209B1A9D4229DB94F84330226848
:10367000003318BF012392062ED404F143023946C9
:103680003046C047013021D02368E568D9F80020D2
:1036900003F00603042B08BFAD1AA36822690CBF10
:1036A00025EAE57500259342C4BF9B1AED184FF03B
:1036B00000091A344D451BD10020BDE8F0870123D5
:1036C000524639463046C047013003D14FF0FF30F3
:1036D000BDE8F0870135C2E7E1185A1C302081F8B7
:1036E0004300224494F8451082F843100233C4E7A3
:1036F0000123224639463046C0470130E6D009F161
:103700000109D7E72DE9F04317460A7E85B06E2AF6
:10371000984606460C460C9B01F1430E00F0BC8017
:103720001AD8632A2ED00AD8002A00F0C880582A56
:1037300000F08A8004F1420584F842202AE0642ADD
:1037400001D0692AF6D121681A6811F0800F23D0C0
:10375000111D1960136827E0732A00F0B48008D89F
:103760006F2A2AD0702AE5D10A6842F020020A6046
:1037700003E0752A21D0782ADCD1782284F845200C
:103780006E4964E01A6801F14205111D1960136861
:1037900084F842300123A3E011F0400F02F104014C
:1037A0001960D7D0B2F90030002B03DA2D225B422A
:1037B00084F8432062490A2217E02068196810F053
:1037C000800F03D0081D18600B6806E010F0400F52
:1037D00001F104001860F7D00B8859496F2A14BF13
:1037E0000A220822002084F843006568A560002DA5
:1037F000C0F29C80206820F004002060002B3FD1A4
:10380000002D40F095807546082A0BD12368DA0711
:1038100008D5236962689A42DEBF302305F8013C6F
:1038200005F1FF35AEEB05032361CDF800803B4683
:1038300003AA21463046FFF7EFFE013055D14FF085
:10384000FF3005B0BDE8F08381F845203C4922688F
:10385000186812F0800F00F104051D6001D00368A4
:1038600002E05506FBD50388D00744BF42F0200292
:1038700022601BB9226822F0200222601022B1E7E8
:103880007546B3FBF2F002FB1033CB5C05F8013D4B
:1038900003460028F5D1B7E708681A68496910F0AF
:1038A000800F04D0101D18601368196007E010F035
:1038B000400F02F1040018601368F6D0198000234D
:1038C00023617546B1E71A68111D196015686268B1
:1038D00000212846FCF78CFC08B1401B606063683F
:1038E0002361002384F843309FE723692A46394641
:1038F0003046C0470130A2D023689B0707D500257A
:1039000004F11909E368039A9B1A9D4205DBE068FC
:10391000039B9842B8BF184693E701234A463946AD
:103920003046C04701308AD00135EBE7002BA7D1E4
:103930000B7884F8423004F1420565E7E25500084F
:10394000D155000849B1FF2A85BF8A2303600A7058
:103950004FF0FF3098BF012070470846704710B500
:10396000431E0A44914200D110BD11F8014B03F8E7
:10397000014FF7E7884210B501EB020303D8421E5E
:1039800099420CD110BD9842F9D28118D21AD34273
:1039900000D110BD13F8014D01F8014DF7E711F802
:1039A000014B02F8014FEBE738B50546002945D039
:1039B00051F8043C0C1F002BB8BFE41800F0D6F8F7
:1039C0001F4A1368104633B9636014602846BDE887
:1039D000384000F0CCB8A3420CD921686218934259
:1039E00004BF1A685B68636004BF521822600460F9
:1039F000ECE713465A680AB1A242FAD91968581876
:103A0000A0420BD120680144581882421960DDD1D0
:103A1000106852685A6001441960D7E702D90C2334
:103A20002B60D3E7206821188A4204BF11685268CE
:103A3000626004BF091821605C60C7E738BD00BF41
:103A40006002002070B5CD1C25F0030508350C2D53
:103A500038BF0C25002D064601DBA94203D90C23F3
:103A60003360002070BD00F081F8234A14682146BD
:103A700091B9224C23681BB9304600F067F82060EA
:103A80002946304600F062F8431C26D10C233360EF
:103A9000304600F06CF8E4E70B685B1B1AD40B2B84
:103AA0000FD90B60CD50CC18304600F060F804F10F
:103AB0000B00231D20F00700C31A1BD05A42E2500E
:103AC00070BD8C420DBF63684B686360136018BFA4
:103AD0000C46E9E70C464968CAE7C41C24F0030415
:103AE000A04205D0211A304600F030F80130CDD088
:103AF0002560D9E770BD00BF60020020640200208D
:103B0000F8B5074614460E4621B91146BDE8F840FF
:103B1000FFF798BF22B9FFF747FF25462846F8BDB3
:103B200000F026F884420FD921463846FFF78AFF75
:103B300005460028F2D031462246FFF710FF3146F5
:103B40003846FFF731FFE9E73546E7E738B5064C79
:103B50000023054608462360FFF7A0FA431C02D164
:103B6000236803B12B6038BD6C0300207047704799
:103B700051F8040C0028A0F10400BCBF0B58C01879
:103B800070470000000000002DE9F84F55EC104B85
:103B9000C74B25F000469E42AB4618DDC54A96420B
:103BA00001DC09D144B122462B4620462946FCF7C8
:103BB00075FB04460D4606E0BBF1000F00F33A81A9
:103BC0009FA5D5E9004545EC104BBDE8F88FBA4BF1
:103BD0009E4214DCA3F1DE739E420DDC9AA3D3E96E
:103BE000002310EE100A2946FCF758FB0022B34BC5
:103BF000FCF796FF0028E6D14FF0FF3A2BE000F0EB
:103C0000AFF9AF4B9E4255EC104B00F3BF80A3F5CC
:103C100050239E4200F3A08010EE102A10EE100AEE
:103C20002B462946FCF73AFB0022A44BFCF734FB59
:103C3000002206460F464FF0804320462946FCF7F7
:103C40002DFB02460B4630463946FCF703FE4FF08B
:103C5000000A04460D4622462B4620462946FCF71C
:103C6000CFFC02460B4680468946FCF7C9FC78A388
:103C7000D3E9002306460F46FCF7C2FC76A3D3E93E
:103C80000023FCF70BFB32463B46FCF7B9FC74A360
:103C9000D3E90023FCF702FB32463B46FCF7B0FCBD
:103CA00071A3D3E90023FCF7F9FA32463B46FCF74F
:103CB000A7FC6FA3D3E90023FCF7F0FA32463B469A
:103CC000FCF79EFC6CA3D3E90023FCF7E7FA42461D
:103CD0004B46FCF795FC6AA3D3E90023804689464E
:103CE00030463946FCF78CFC67A3D3E90023FCF788
:103CF000D3FA32463B46FCF783FC65A3D3E90023A5
:103D0000FCF7CAFA32463B46FCF77AFC62A3D3E9D9
:103D10000023FCF7C1FA32463B46FCF771FC60A376
:103D2000D3E90023FCF7B8FA32463B46FCF768FCBF
:103D3000BAF1FF3F02460B4655D140464946FCF7D3
:103D4000ADFA22462B46FCF75BFC02460B462046AA
:103D50002946FCF7A1FA2CE710EE100A0022574B77
:103D60002946FCF799FA002206460F46534B204697
:103D70002946FCF793FA02460B4630463946FCF7D3
:103D800069FD4FF0010A04460D4664E74D4B9E4223
:103D90001DDC10EE100A00224B4B2946FCF77CFA82
:103DA000002206460F46484B20462946FCF728FCD1
:103DB0000022424BFCF772FA02460B463046394667
:103DC000FCF748FD4FF0020A04460D4643E72B4638
:103DD00010EE102A00203D49FCF73CFD4FF0030A8D
:103DE00004460D4637E740464946FCF757FA224657
:103DF0002B46FCF705FC364E364B4FEACA0A5644B2
:103E00009A44DAE90023FCF747FA22462B46FCF7EE
:103E100043FA02460B46D6E90001FCF73DFABBF136
:103E2000000F04460D46BFF6CEAE01F10043044636
:103E30001D46C8E61CA5D5E90045C4E6AFF30080E1
:103E4000182D4454FB21F9BF9C7500883CE4377E53
:103E500011DA22E33AAD903FEB0D76244B7BA93F7C
:103E6000513DD0A0660DB13F6E204CC5CD45B73F4A
:103E7000FF8300922449C23F0D5555555555D53FF6
:103E80002F6C6A2C44B4A2BF9AFDDE522DDEAD3FEA
:103E90006D9A74AFF2B0B33F711623FEC671BC3F8A
:103EA000C4EB98999999C93F182D4454FB21F93FC7
:103EB000FFFF0F440000F07FFFFFDB3F0000F03FFB
:103EC000FFFFF23FFF7F03400000F83F0000F0BF1C
:103ED000F8560008185700081FB551EC100B1E4A81
:103EE00021F00043934206DC9FED191B00F064FCB7
:103EF00051EC100B07E0194A934209DD10EE102A2D
:103F00000B46FCF7C9F941EC100B05B05DF804FB5A
:103F1000684600F0ADF900F0030001289DED021B9A
:103F20009DED000B07D002280ED00028DED0012026
:103F300001F07AF8DCE701F077F853EC102B10EE83
:103F4000100A03F10041DEE700F036FCF5E700BFA0
:103F50000000000000000000FB21E93FFFFFEF7FB1
:103F600053EC102B23F0004343EC102B7047000060
:103F70001FB551EC100B204A21F00043934207DC9F
:103F80009FED1B1B002001F04FF851EC100B07E0D8
:103F90001A4A934209DD10EE102A0B46FCF77CF911
:103FA00041EC100B05B05DF804FB684600F060F9C9
:103FB00000F0030001289DED021B9DED000B04D0D5
:103FC000022805D070B90120DDE700F0F5FBDCE741
:103FD000012001F029F853EC102B10EE100A03F128
:103FE0000041DDE700F0E8FBF5E700BFAFF300803C
:103FF0000000000000000000FB21E93FFFFFEF7F11
:1040000000F05AB82DE9F0432DED028B8BB055EC42
:10401000104B00F01FFB264BB0EE408AF0EE608A9A
:1040200093F90060731C2AD022462B46204629466D
:10403000FCF780FD074610BB4FF000084FF0000969
:1040400042464B4620462946FCF74CFDB8B10123B9
:104050000093184B01930897CDE90445CDE902453B
:10406000B6B9CDE90689684601F01EF9D0B1089BC2
:104070001BB1FFF781F8089B03609DED068BB0EE46
:10408000480AF0EE680A0BB0BDEC028BBDE8F08385
:1040900042464B4640464946FCF7DCFB022ECDE942
:1040A0000601E0D1FFF768F821230360DFE700BFD6
:1040B00008020020385700082DE9F84357EC116B2F
:1040C000734227F000423343DFF89CC151EC100BE0
:1040D00042EAD373634511EE108A10EE109A8E46B1
:1040E00007D8444221F00043044343EAD4746445B2
:1040F00007D932463B46FCF7D1F841EC100BBDE83E
:10410000F88307F1404404F58014344303D1BDE83B
:10411000F843FFF739BDBC1704F0020459EA03095C
:1041200044EAD17407D1022C30D0032CE5D13CA154
:10413000D1E90001E1E758EA020806D1BEF1000F1B
:104140006ADA39A1D1E90001D7E7624522D1934269
:1041500011D1022C07D0032C09D0012C56D134A147
:10416000D1E90001C9E734A1D1E90001C5E734A1D3
:10417000D1E90001C1E7022C08D0032CD7D0012CD3
:104180004FF0000046D14FF00041B6E72EA1D1E933
:104190000001B2E76345D1D09B1A1B153C2B1EDCF6
:1041A000002F01DA3C331EDB32463B46FCF752FB64
:1041B00041EC100BFFF7D4FEFFF7E6FC51EC100BBF
:1041C000012C13D0022C14D0002C96D020A3D3E9BC
:1041D0000023FCF761F81CA3D3E9002313E01EA120
:1041E000D1E90001ECE700200021E9E701F10041FD
:1041F00083E717A3D3E90023FCF74EF802460B46EA
:1042000011A1D1E90001FCF747F876E714A1D1E943
:10421000000172E7002170E70FA1D1E900016CE70E
:10422000182D4454FB2109C0182D4454FB21F9BF1B
:10423000182D4454FB21E9BFD221337F7CD90240A1
:10424000D221337F7CD902C0182D4454FB21094070
:10425000075C143326A6A13C182D4454FB21F93FDA
:10426000182D4454FB21E93F0000F07F00000000BE
:104270002DE9F04F57EC106BC34B8DB027F0004881
:1042800098450446049707DC0022002384ED000BC8
:10429000C0E90223002527E0BC4B984575DC049B50
:1042A000BB4D002B10EE100AA9A3D3E90023394619
:1042B00036DDFBF7F1FFA84506460F4618D0A6A34A
:1042C000D3E90023FBF7E8FF02460B46C4E90023CD
:1042D00030463946FBF7E0FF9FA3D3E90023FBF705
:1042E000DBFFC4E90201012528460DB0BDE8F08FCF
:1042F0009BA3D3E90023FBF7CFFF9BA3D3E90023C4
:1043000006460F46FBF7C8FF02460B46C4E90023EA
:1043100030463946FBF7C0FF93A3D3E90023DEE71D
:10432000FBF7BCFFA84506460F4616D08AA3D3E983
:104330000023FBF7B3FF02460B46C4E900233046D7
:104340003946FBF7A9FF84A3D3E90023FBF7A6FFB7
:104350004FF0FF35C4E90201C6E781A3D3E900238A
:10436000FBF79CFF80A3D3E9002306460F46FBF72B
:1043700095FF02460B46C4E9002330463946FBF759
:104380008BFF79A3D3E90023E0E7824B984500F344
:10439000D080FFF7E5FD57EC106B10EE100A74A308
:1043A000D3E900233946FCF72BF900227A4BFBF7BF
:1043B00075FFFCF7D5FB0546FCF7BCF864A3D3E911
:1043C0000023CDE90201FCF71BF902460B463046FB
:1043D0003946FBF761FF60A3D3E9002382468B4691
:1043E000DDE90201FCF70CF91F2D06460F462ADC19
:1043F0006A1E6A4B53F82230984524D032463B4619
:1044000050465946FBF748FFC4E90001D4E900894A
:10441000504642464B465946FBF73EFF3B46324626
:10442000FBF73AFF049B002BC4E90201BFF65CAF27
:1044300009F100436360C4F80080A06001F100430B
:10444000E3606D4250E732463B4650465946FBF723
:1044500023FF4FEA2852C1F30A53D31A102BC4E9A1
:1044600000010592D2DD3EA3D3E90023DDE902017C
:10447000FCF7C6F806460F4602460B46504659461C
:10448000FBF70AFF02460B468046894650465946CE
:10449000FBF702FF32463B46FBF7FEFE32A3D3E9B1
:1044A000002306460F46DDE90201FCF7A9F8324673
:1044B0003B46FBF7F1FE02460B4606460F464046DA
:1044C0004946FBF7E9FE059AC1F30A53D31A312B8B
:1044D000C4E900012ADD28A3D3E90023DDE90201B4
:1044E000FCF78EF806460F4602460B464046494604
:1044F000FBF7D2FE02460B4682468B4640464946B3
:10450000FBF7CAFE32463B46FBF7C6FE1CA3D3E9C7
:10451000002306460F46DDE90201FCF771F832463A
:104520003B46FBF7B9FE06460F4667E7C246CB4659
:104530006CE71B4B984535DD10EE102A3B463046A4
:104540003946FBF7A9FEC4E90201C4E90001A1E66E
:1045500000004054FB21F93F3163621A61B4D03D41
:104560000000601A61B4D03D7370032E8A19A33B1A
:1045700083C8C96D305FE43F0000002E8A19A33B59
:10458000C14920259A837B39FB21E93F7BD9024031
:10459000FB21F93FFB2139410000E03F4057000873
:1045A000FFFFEF7F4FEA2855A5F21645A8EB05510E
:1045B00030460F46FCF7D4FAFBF7BCFF02460B4629
:1045C00030463946CDE90623FBF766FE00221F4B35
:1045D000FCF716F80F460646FCF7C2FAFBF7AAFFEF
:1045E00002460B4630463946CDE90823FBF754FE18
:1045F0000022164BFCF704F8CDE90A010DF1300951
:104600004FF003080026002732463B4679E90201B5
:1046100008F1FF3AFCF75CFAB0B90D4B01930223A5
:1046200000932A464346214606A800F0ADF9049BB4
:10463000002B0546BFF658AE636803F10043636084
:10464000E36803F10043FBE6D046DDE7000070417C
:10465000C05700082DE9F04155EC104B544EAE43C5
:1046600010EE100A2B462A46214613D110EE102ACE
:104670002B4610EE100A2946FBF7C2FF02460B46F6
:1046800020462946FBF70AFE04460D4645EC104B32
:10469000BDE8F081002D10DC25F000463043F5D058
:1046A0005DB110EE102A2B4620462946FBF7F4FD9B
:1046B00002460B46FCF7CEF8E6E71B150CD1002AA4
:1046C0006DD00020D6026ED5441E1B1BC0F1200405
:1046D00021FA04F422438140A3F2FF33C2F3130210
:1046E000DD0742F4801242BF520002EBD172490052
:1046F0005810002502EBD1731A44490016232C46AA
:104700004FF40016A7199742DEBFD21BBC19AD1992
:104710005200013B02EBD1724FEA56064FEA4101CB
:10472000F0D14FF0200E9C464FF00046A24206EB1F
:104730000C0702DC12D18F4210D8002F07EB060CB9
:1047400034DABCF1000F31DB04F10108121B8F4297
:1047500088BF02F1FF32C91B3344444602EBD177D4
:10476000BEF1010E3A444FEA41014FEA5606DDD14F
:104770000A4306D05C1C13BF01330135734623F096
:1047800001036A105B08E90702F17F5202F500128B
:1047900048BF43F0004302EB00551C4676E7CA0AC7
:1047A000153B49058BE7520001308BE7A046CDE76A
:1047B0000000F07F000000002DE9F04F59EC108B55
:1047C00029F0004785B0B7F1795F8DED001B07DA5E
:1047D00010EE100A4946FCF7C3F9002800F0AA8041
:1047E00042464B4640464946FBF70AFF59A3D3E9E8
:1047F000002304460D46FBF703FF58A3D3E900232B
:10480000FBF74CFD22462B46FBF7FAFE55A3D3E9F6
:104810000023FBF741FD22462B46FBF7F1FE53A395
:10482000D3E90023FBF73AFD22462B46FBF7E8FECF
:1048300050A3D3E90023FBF72FFD22462B46FBF7BD
:10484000DFFE4EA3D3E90023FBF728FD2B462246CB
:10485000FBF7D6FE3A4B9F4282468B462CDC002269
:10486000384B20462946FBF7CBFE524606460F46FC
:104870005B4620462946FBF7C3FEDDE900230446DC
:104880000D4640464946FBF7BBFE02460B46204616
:104890002946FBF701FD02460B4630463946FBF739
:1048A000FBFC0B46284902460020FBF7F5FC41ECD7
:1048B000100B05B0BDE8F08F244B23499F42D7BFB2
:1048C000A7F50013224F00221646D4BF1F4600262C
:1048D00032463B460020FBF7DFFC0022CDE9020117
:1048E000184B20462946FBF78BFE32463B46FBF72A
:1048F000D3FC524606460F465B4620462946FBF748
:104900007FFEDDE9002304460D4640464946FBF79D
:1049100077FE02460B4620462946FBF7BDFC0246C1
:104920000B4630463946FBF7B7FC02460B46DDE93D
:104930000201BAE700200449B9E700BFAFF30080E5
:104940003233D33F0000E03F0000F03F0000E93F7A
:104950000000D23FD43888BEE9FAA8BDC4B1B4BDC6
:104960009EEE213EAD529C804F7E923E9015CB191B
:10497000A001FA3E7751C1166CC1563F4C555555B2
:104980005555A53F000000002DE9F04F2DED028B9D
:10499000ADF5197DD41E06930291C34BA4990990DD
:1049A00053F821300093069B013B0493182394FB9A
:1049B000F3F46FF0170324EAE47404FB033303EB0E
:1049C000020A009B049A9FEDB48B03EB0208A59B9F
:1049D000A71A20AE03EB87090025454513DD9FED9F
:1049E000AE8B0DF5E07B0026009B9E4232DC099BDE
:1049F0000393069B9D1920AB03EBC503089359EC69
:104A0000188B00271FE0EF4207D459F82500FBF769
:104A100091FDE6E802010135DFE751EC180BF8E7FC
:104A20000899039D71E902230891F5E802010395B5
:104A3000FBF7E6FD02460B4640464946FBF72EFCD7
:104A4000013780468946049B9F42E9DDEBE80289F5
:104A50000136C9E7009B009F0CAA02EB83030B936E
:104A6000A59B03EB84030A9398AB07F1005B03EB70
:104A7000C7030BF1FF3B53E928894FEACB030893A7
:104A8000089A98AB1344A3F1980B0026BB1B002B8C
:104A900077DC49EC108B504600F00AFC55EC104BCB
:104AA00000224FF07F5310EE100A2946FBF7A8FDB5
:104AB00041EC100B00F074FB002251EC100B7B4B0F
:104AC000FBF79EFD02460B4620462946FBF7E4FB1A
:104AD0000D460446FCF744F80390FBF72BFD024615
:104AE0000B4620462946FBF7D7FBBAF1000F80465C
:104AF00089466BDD7A1E0CABCAF1180153F822000F
:104B0000039C40FA01F31C448B40C01A0CAB039485
:104B100043F82200CAF1170340FA03FBBBF1000F70
:104B200062DD039B00220133039314466FF07F4143
:104B3000974200F38980BAF1000F07DDBAF1010F47
:104B400000F09680BAF1020F00F09C80BBF1020FDA
:104B50004AD142464B4600205549FBF79DFB804613
:104B60008946002C40D050469FED4D0B00F0A0FB35
:104B70004046494653EC102BFBF78EFB8046894696
:104B800032E000224B4B40464946FBF739FDFBF72C
:104B9000E7FFFBF7CFFC0022474B04460D46FBF72F
:104BA0002FFD02460B4640464946FBF775FBFBF7D7
:104BB000D7FF0CAB294643F826007BE902232046A9
:104BC000FBF76CFB0136804689465FE706D17B1E0A
:104BD0000CAA52F823004FEAE05B9FE70022374B14
:104BE000FBF794FF68BB83460022002340464946FA
:104BF000FBF76EFF002800F0C1807C1E23460022D8
:104C000000998B425CDA002A40F08B8001246FF01F
:104C1000030202FB04F30B99CB58002B56D0089BE0
:104C200098AA1344A3F1900B069BDD1920AB03EB6C
:104C3000C505E3197E1C0393039B9E4248DD1F4676
:104C400012E74FF0020B6CE70CAB53F822304CB973
:104C50002BB10CA8C3F1807340F82230012301323C
:104C60001C4665E70CA8CB1A40F822302346F6E72D
:104C70007A1E0CAB53F82230C3F316030CA941F88B
:104C8000223063E77A1E0CAB53F82230C3F31503CE
:104C9000F4E700BFAFF30080000000000000000058
:104CA000000000000000F03F08590008000020400C
:104CB0000000F03F0000703E000070410000E03F47
:104CC0000CA951F82310013B0A4399E70134A0E7EE
:104CD0000A9B53F82600FBF72DFCE5E80201099B2F
:104CE00008951C4600274FF000084FF00009049B70
:104CF0009F4203DDEBE8028901369DE7089971E9DF
:104D000002230891F4E80201FBF77AFC02460B4605
:104D100040464946FBF7C2FA013780468946E6E736
:104D2000013C0CABAAF1180A53F82430002BF7D041
:104D300050469FEDB50B00F0BBFAE50098AB03EBD6
:104D4000050957EC106BA9F19809A046B8F1000FBE
:104D50004DDA9FEDAF8B0DF5907A00230493574603
:104D6000049BB4EB030976D4AB4B1E4670AB03EB4C
:104D7000C9098DED068B4FF000085EE0CAF1000016
:104D800049EC108B00F094FA55EC104B0022A34B29
:104D900010EE100A2946FBF7B9FEF8B10022A04B2D
:104DA00020462946FBF72CFCFBF7DAFE0646FBF70C
:104DB000C1FB0022994BFBF723FC0B460246294618
:104DC0002046FBF769FAFBF7CBFE7C1C0CAB0AF123
:104DD000180A43F8270043F82460A9E7204629462B
:104DE000FBF7BEFE0CAB3C4643F82700A0E70CAB3C
:104DF00053F82800FBF79EFB32463B46FBF700FCCE
:104E0000002269E90201864B30463946FBF7F8FB80
:104E100008F1FF3806460F4698E7F9E80223F6E85E
:104E20000201FBF7EDFB02460B46DDE90601FBF74D
:104E300035FACDE9060108F10108009B984502DC2E
:104E4000049B9845E9DD049B9DED067B0133AAECAC
:104E5000027B049384E7A49B032B5DD8DFE803F077
:104E60004B26260298AB1D44A5F59C752E46A246FE
:104E7000BAF1000F6EDC2E46A246BAF1010F00F324
:104E80008A8000200021012C00F3A680BBF1000FD6
:104E900040F0A880DDE94823029CC4E90023DDE955
:104EA0004A23C4E90401C4E9022335E0083548ABCC
:104EB0001D44264600200021002E3CDABBF1000FE5
:104EC0003FD0024601F10043029DC5E9002302469E
:104ED0000B46DDE94801FBF7DFF94AAE0125AC429C
:104EE00032DABBF1000F02D001F100431946029BF8
:104EF000C3E9020110E098AB1D44A5F59C750020A4
:104F00000021002C11DABBF1000F02D001F10043A7
:104F10001946029BC3E90001039B03F007000DF54E
:104F2000197DBDEC028BBDE8F08F75E90223FBF71C
:104F3000B5F9013CE5E775E90223FBF7AFF9013E5E
:104F4000BAE702460B46BFE7F6E80223FBF7A6F9ED
:104F50000135C4E716ED027B56E9048953EC172BA3
:104F6000404649468DED007BFBF798F9CDE90401F9
:104F700002460B4640464946FBF78EF9DDE9002321
:104F8000FBF78CF99DED047B66E902010AF1FF3A1B
:104F900006ED027B6CE716ED027B56E9048953ECC3
:104FA000172B404649468DED007BFBF777F9CDE99D
:104FB000040102460B4640464946FBF76DF9DDE920
:104FC0000023FBF76BF99DED047B66E902010AF112
:104FD000FF3A06ED027B50E775E90223FBF75EF925
:104FE000013C50E7029A3B6813607B68106103F153
:104FF00000435360BB689360FB6803F10043D360D8
:1050000001F10043536187E7000000000000F03F1A
:105010000000000000000000C858000800007041B7
:105020000000703E000000002DE9F04F55EC104BE1
:1050300085B025F00043B3F1795F8DED001B029040
:1050400006DA10EE100A2946FBF78AFD002851D037
:1050500022462B4620462946FBF7D2FA82468B464B
:1050600002460B4620462946FBF7CAFA41A3D3E97C
:1050700000238046894650465946FBF7C1FA3FA3B4
:10508000D3E90023FBF708F952465B46FBF7B8FA71
:105090003CA3D3E90023FBF701F952465B46FBF73B
:1050A000AFFA3AA3D3E90023FBF7F6F852465B4682
:1050B000FBF7A6FA37A3D3E90023FBF7EFF8029B2F
:1050C00006460F46DBB902460B4650465946FBF7EB
:1050D00097FA25A3D3E90023FBF7DEF842464B46B7
:1050E000FBF78EFA02460B4620462946FBF7D6F818
:1050F00004460D4645EC104B05B0BDE8F08F00228C
:105100001B4BDDE90001FBF77BFA3246CDE90201DA
:105110003B4640464946FBF773FA02460B46DDE93B
:105120000201FBF7B9F852465B46FBF769FADDE985
:105130000023FBF7B1F80CA3D3E9002306460F4682
:1051400040464946FBF75CFA02460B463046394674
:10515000FBF7A4F802460B4620462946FBF79CF8CD
:10516000C6E700BFAFF30080495555555555C53FBB
:105170000000E03F7CD5CF5A3AD9E53DEB9C2B8A25
:10518000E6E55A3E7DFEB157E31DC73ED561C11924
:10519000A0012A3FA6F810111111813F0000000064
:1051A00051EC100B2DE9F041C1F30A57A7F2FF367D
:1051B000132E10EE108A0C4610EE105A35DC002E1D
:1051C00017DA35A3D3E90023FBF768F800220023A0
:1051D000FBF7A6FC50B1002C5ADA24F0004353EA46
:1051E00008032F4B4FF0000518BF1C4621462846E8
:1051F00025E02C4F374101EA070303431FD026A3C4
:10520000D3E90023FBF74AF800220023FBF788FCD0
:105210000028EBD0002CBEBF4FF4801343FA06F6F3
:10522000A41924EA07040025E0E7332E0BDDB6F5C8
:10523000806F04D110EE102A0B46FBF72FF841ECDB
:10524000100BBDE8F081A7F213474FF0FF3323FAAC
:1052500007F73842F3D010A3D3E90023FBF71EF879
:1052600000220023FBF75CFC0028BFD0002C02DAF0
:10527000142E03D1013425EA0705B7E70123C6F14F
:10528000340603FA06F63544A84588BFE418F2E769
:1052900000252C46AAE700BF9C7500883CE4377EB9
:1052A0000000F0BFFFFF0F0000207047000000006B
:1052B00070B555EC104BC5F30A5206462B46B2B9F1
:1052C00025F0004323433CD00022334B294610EE07
:1052D000100AFBF795F9314A964204460D460B46F3
:1052E00013DA29A3D3E90023FBF78AF90AE040F295
:1052F000FF718A420CD110EE102A2B462046294617
:10530000FAF7CCFF04460D461BE0C1F30A52363AC9
:10531000324440F2FE718A420BDD45EC114B9FEDA9
:105320001C0B00F03FF81AA3D3E9002351EC100B3B
:10533000DAE7002A08DD23F0FF4323F4E00343EA21
:10534000025545EC104B70BD12F1350F0DDA4CF2E1
:1053500050339E4245EC114BE1DC9FED0B0B00F00E
:1053600021F809A3D3E90023E0E723F0FF43363215
:1053700023F4E00343EA0255204629460022084B65
:10538000B2E700BFAFF3008059F3F8C21F6EA5016A
:105390009C7500883CE4377E00005043B03CFFFF22
:1053A0000000903C53EC102B11EE900A23F00041CA
:1053B00000F0004041EA000343EC102B704700006E
:1053C000F8B500BFF8BC08BC9E467047F8B500BFF2
:0853D000F8BC08BC9E467047C2
:1053D8000D0A596F7572206465736972656420736C
:1053E800706565642069733A2000000000000000C1
:1053F80000000000000000000000000000000000A5
:105408000000000000000000000000000000000094
:105418000000000000000000000000000000000084
:105428000000000000000000000000000000000074
:10543800000000001B5B303B3048001B5B324A0019
:1054480057656C636F6D6520746F20746865204EB6
:1054580075636C656F206D616E6167656D656E74EF
:1054680020636F6E736F6C650D0A0053656C65631E
:105478007420746865206F7074696F6E20796F7519
:105488002061726520696E74657265737465642045
:10549800696E3A0D0A09312E20536574206E5F70CB
:1054A800756C73650D0A09322E205072696E74206E
:1054B8006E5F70756C73650D0A09332E20436C6539
:1054C80061722073637265656E20616E642070720C
:1054D800696E742074686973206D6573736167659C
:1054E80020000D0A20583A20256C64000D0A205926
:1054F8003A20256C64000D0A205068693A20256C12
:1055080064000D0A206E5F70756C7365313A202552
:105518006C64000D0A206E5F70756C7365323A20FA
:10552800256C64000D0A206E5F70756C73655F737F
:105538006574313A20256C64000D0A206E5F707521
:105548006C73655F736574323A20256C64000D0ACC
:105558002050574D20313A20256C75000D0A2050F7
:10556800574D20323A20256C75000D0A20616E6770
:10557800756C61725F76656C3A20256C64000D0A63
:10558800206C696E6561725F76656C3A20256C6483
:10559800000D0A3E2000000000000000000001028B
:1055A8000304060708090000000001020304430081
:1055B800504F534958002E00232D302B2000686C83
:1055C8004C0065666745464700303132333435361E
:1055D8003738394142434445460030313233343557
:1055E8003637383961626364656600002020202000
:1055F800202020202028282828282020202020207B
:10560800202020202020202020202020881010105A
:1056180010101010101010101010101004040404B2
:105628000404040404041010101010101041414127
:105638004141410101010101010101010101010192
:105648000101010101010110101010101042424225
:105658004242420202020202020202020202020262
:1056680002020202020202101010102000000000C4
:105678000000000000000000000000000000000022
:105688000000000000000000000000000000000012
:105698000000000000000000000000000000000002
:1056A80000000000000000000000000000000000F2
:1056B80000000000000000000000000000000000E2
:1056C80000000000000000000000000000000000D2
:1056D80000000000000000000000000000000000C2
:1056E80000000000000000000000000000000000B2
:1056F8004FBB610567ACDD3F182D4454FB21E93FE2
:105708009BF681D20B73EF3F182D4454FB21F93FD0
:10571800E2652F227F2B7A3C075C143326A6813C56
:10572800BDCBF07A8807703C075C143326A6913C01
:105738007371727400000000FB21F93FFB210940DE
:105748007CD91240FB2119407A6A1F407CD922403B
:10575800BBFD2540FB2129403A462C407A6A2F4060
:105768005C4731407CD932409C6B3440BBFD3540AE
:10577800DB8F3740FB2139401BB43A403A463C4066
:105788005AD83D407A6A3F404C7E40405C47414091
:105798006C1042407CD942408CA243409C6B4440F0
:1057A800AC344540BBFD4540CBC64640DB8F474047
:1057B800EB584840FB21494083F9A200444E6E0053
:1057C800FC291500D1572700DD34F50062DBC00045
:1057D8003C999500419043006351FE00BBDEAB004D
:1057E800B761C5003A6E2400D24D42004906E00078
:1057F80009EA2E001C92D100EB1DFE0029B11C0005
:10580800E83EA700F535820044BB2E009CE98400E1
:10581800B4267000417E5F00D69139005383390069
:105828009CF439008B5F840028F9BD00F81F3B0009
:10583800DEFF97000F980500112FEF000A5A8B0022
:105848006D1F6D00CF7E360009CB2700464FB7008D
:105858009E663F002DEA5F00BA277500E5EBC7009A
:105868003D7BF100F739070092528A00FB6BEA0092
:105878001FB15F00085D8D00300356007BFC4600B9
:10588800F0AB6B0020BCCF0036F49A00E3A91D00F2
:105898005E619100081BE60085996500A0145F0011
:1058A8008D40680080D8FF0027734D000606310040
:1058B800CA561500C9A873007BE260006B8CC00053
:1058C80000000040FB21F93F000000002D44743E19
:1058D800000000809846F83C0000006051CC783BFE
:1058E80000000080831BF0390000004020257A3832
:1058F800000000802282E336000000001DF36935B5
:105908000200000003000000040000000600000080
:0859180068B3FF7F01000000ED
:04592000C5010008B5
:04592400A1010008D5
:10592800010000001000000000000000000000005E
:105938009D000000000000000000000000000000C2
:10594800000000000000000000000000010000004E
:10595800010000000024F4003C00002000000000CA
:10596800000000000000000000000000000000002F
:10597800000000000000000000000000000000001F
:10598800000000000000000000000000000000000F
:1059980000000000000000000000000000000000FF
:1059A80000000000000000000000000000000000EF
:1059B800000000000000000000000000430000009C
:1059C80000000000000000000000000000000000CF
:1059D800000000000000000000000000430000007C
:1059E80000000000000000000000000000000000AF
:1059F800000000000000000000000000430000005C
:105A0800000000000000000000000000000000008E
:105A1800000000000000000000000000430000003B
:105A2800000000000000000000000000000000006E
:105A3800000000000000000000000000430000001B
:105A4800000000000000000000000000000000004E
:105A580000000000000000000000000043000000FB
:105A6800000000000000000000000000000000002E
:105A780000000000000000000000000043000000DB
:105A8800000000000000000000000000000000000E
:105A98000000000000000000000000004539000878
:105AA8005733000800000000F3550008BE550008F1
:105AB80072540008725400087254000872540008A6
:105AC8007254000872540008725400087254000896
